{
	"data": {
		"bytecode": {
			"linkReferences": {
				"contracts/SafeDecimalMath.sol": {
					"SafeDecimalMath": [
						{
							"length": 20,
							"start": 3459
						},
						{
							"length": 20,
							"start": 10830
						},
						{
							"length": 20,
							"start": 12577
						},
						{
							"length": 20,
							"start": 13048
						}
					]
				}
			},
			"object": "608060405234801561001057600080fd5b506040516158493803806158498339818101604052604081101561003357600080fd5b50805160209091015180826001600160a01b038116610099576040805162461bcd60e51b815260206004820152601960248201527f4f776e657220616464726573732063616e6e6f74206265203000000000000000604482015290519081900360640190fd5b600080546001600160a01b0319166001600160a01b038316908117825560408051928352602083019190915280517fb532073b38c83145e3e5135377a08bf9aab55bc0fd7c1179cd4fb995d2a5159c9281900390910190a150600280546001600160a01b039092166001600160a01b03199092169190911790555050615725806101246000396000f3fe60806040523480156200001157600080fd5b5060043610620000a05760003560e01c806353a47bb7116200006f57806353a47bb7146200016857806374185360146200017257806379ba5097146200017c578063899ffef414620001865780638da5cb5b14620001e257620000a0565b806304f3bcec14620000a5578063130efa5014620000cb5780631627540c146200011f5780632af64bd3146200014a575b600080fd5b620000af620001ec565b604080516001600160a01b039092168252519081900360200190f35b620000af60048036036101c0811015620000e457600080fd5b506001600160a01b0381351690602081019060608101359060808101359060a081013515159060c081019061012081019061016001620001fb565b62000148600480360360208110156200013757600080fd5b50356001600160a01b03166200036e565b005b62000154620003cc565b604080519115158252519081900360200190f35b620000af620004e2565b62000148620004f1565b62000148620006c4565b6200019062000782565b60408051602080825283518183015283519192839290830191858101910280838360005b83811015620001ce578181015183820152602001620001b4565b505050509050019250505060405180910390f35b620000af620007de565b6002546001600160a01b031681565b60008062000208620007ed565b90506001600160a01b038116331462000268576040805162461bcd60e51b815260206004820152601e60248201527f4f6e6c79207065726d697474656420627920746865206d616e616765722e0000604482015290519081900360640190fd5b808a600260009054906101000a90046001600160a01b03168b8b8b8b8b8b8b604051620002959062000950565b6001600160a01b03808c1682528a8116602083015289166040808301919091526060820190899080828437600083820152601f01601f191690910188815260208101889052861515604082015260609081019150859080828437600083820152601f01601f1916909101905083604080828437600083820152601f01601f19169091019050826060808284376000838201819052604051601f909201601f19169093018190039d509b50909950505050505050505050f0801580156200035f573d6000803e3d6000fd5b509a9950505050505050505050565b620003786200081b565b600180546001600160a01b0383166001600160a01b0319909116811790915560408051918252517f906a1c6bd7e3091ea86693dd029a831c19049ce77f1dce2ce0bab1cacbabce229181900360200190a150565b60006060620003da62000782565b905060005b8151811015620004d8576000828281518110620003f857fe5b6020908102919091018101516000818152600383526040908190205460025482516321f8a72160e01b81526004810185905292519395506001600160a01b03918216949116926321f8a721926024808201939291829003018186803b1580156200046157600080fd5b505afa15801562000476573d6000803e3d6000fd5b505050506040513d60208110156200048d57600080fd5b50516001600160a01b0316141580620004bb57506000818152600360205260409020546001600160a01b0316155b15620004ce5760009350505050620004df565b50600101620003df565b5060019150505b90565b6001546001600160a01b031681565b6060620004fd62000782565b905060005b8151811015620006c05760008282815181106200051b57fe5b602090810291909101810151600254604080517f5265736f6c766572206d697373696e67207461726765743a2000000000000000818601526039808201859052825180830390910181526059820180845263dacb2d0160e01b9052605d8201858152607d83019384528151609d84015281519597506000966001600160a01b039095169563dacb2d01958995939492939260bd0191908501908083838c5b83811015620005d3578181015183820152602001620005b9565b50505050905090810190601f168015620006015780820380516001836020036101000a031916815260200191505b50935050505060206040518083038186803b1580156200062057600080fd5b505afa15801562000635573d6000803e3d6000fd5b505050506040513d60208110156200064c57600080fd5b505160008381526003602090815260409182902080546001600160a01b0319166001600160a01b03851690811790915582518681529182015281519293507f88a93678a3692f6789d9546fc621bf7234b101ddb7d4fe479455112831b8aa68929081900390910190a1505060010162000502565b5050565b6001546001600160a01b031633146200070f5760405162461bcd60e51b81526004018080602001828103825260358152602001806200568d6035913960400191505060405180910390fd5b600054600154604080516001600160a01b03938416815292909116602083015280517fb532073b38c83145e3e5135377a08bf9aab55bc0fd7c1179cd4fb995d2a5159c9281900390910190a160018054600080546001600160a01b03199081166001600160a01b03841617909155169055565b60408051600180825281830190925260609160208083019080388339019050509050782134b730b93ca7b83a34b7b726b0b935b2ba26b0b730b3b2b960391b81600081518110620007cf57fe5b60200260200101818152505090565b6000546001600160a01b031681565b600062000816782134b730b93ca7b83a34b7b726b0b935b2ba26b0b730b3b2b960391b62000868565b905090565b6000546001600160a01b03163314620008665760405162461bcd60e51b815260040180806020018281038252602f815260200180620056c2602f913960400191505060405180910390fd5b565b600081815260036020908152604080832054815170026b4b9b9b4b7339030b2323932b9b99d1607d1b9381019390935260318084018690528251808503909101815260519093019091526001600160a01b03169081620009495760405162461bcd60e51b81526004018080602001828103825283818151815260200191508051906020019080838360005b838110156200090d578181015183820152602001620008f3565b50505050905090810190601f1680156200093b5780820380516001836020036101000a031916815260200191505b509250505060405180910390fd5b5092915050565b614d2e806200095f8339019056fe60806040523480156200001157600080fd5b5060405162004d2e38038062004d2e83398181016040526102008110156200003857600080fd5b5080516020820151604083015160a084015160c085015160e08601519495939492936060810193906101008101906101608101906101a001878a6001600160a01b038116620000ce576040805162461bcd60e51b815260206004820152601960248201527f4f776e657220616464726573732063616e6e6f74206265203000000000000000604482015290519081900360640190fd5b600080546001600160a01b0319166001600160a01b038316908117825560408051928352602083019190915280517fb532073b38c83145e3e5135377a08bf9aab55bc0fd7c1179cd4fb995d2a5159c9281900390910190a150600280546001600160a01b03199081166001600160a01b0393841617909155601480546040805180820182528c518082526020808f01519281018390526011919091556012919091558151606080820184528d82528183018d90526000918401829052600b8e9055600c8d9055600d919091558251908101835289518082528a8301518284018190528b85015192909401829052600855600992909255600a919091559216928c169290921760ff60a81b1916600160a81b8715150217909155825190830151620001f982826200047b565b8a6001600160a01b031660008051602062004d0e833981519152600084604051808360018111156200022757fe5b60ff1681526020018281526020019250505060405180910390a28a6001600160a01b031660008051602062004d0e833981519152600183604051808360018111156200026f57fe5b60ff1681526020018281526020019250505060405180910390a26000620002a582846200058260201b620021f71790919060201c565b6013819055845160208087015160408051606081018252848152808401839052818a01519101819052600e849055600f8290556010559293509091906200038490620002fe908490849062000582811b620021f717901c565b73__$b8d33eeb36ac0d1e81cd70156e0043e778$__63907af6c06040518163ffffffff1660e01b815260040160206040518083038186803b1580156200034357600080fd5b505af415801562000358573d6000803e3d6000fd5b505050506040513d60208110156200036f57600080fd5b505190620005e6602090811b62002bb317901c565b6015556200039d8585856001600160e01b036200064416565b8d85604051620003ad9062000976565b6001600160a01b0390921682526020820152604080519182900301906000f080158015620003df573d6000803e3d6000fd5b50600480546001600160a01b0319166001600160a01b03929092169190911790556040518e908590620004129062000976565b6001600160a01b0390921682526020820152604080519182900301906000f08015801562000444573d6000803e3d6000fd5b50600580546001600160a01b0319166001600160a01b039290921691909117905550620009849d5050505050505050505050505050565b60006200049782846200058260201b620021f71790919060201c565b9050806011600001541115620004f4576040805162461bcd60e51b815260206004820152601460248201527f496e73756666696369656e74206361706974616c000000000000000000000000604482015290519081900360640190fd5b6012546200050f8483620006be602090811b6200300417901c565b8111158015620005385750620005348284620006be60201b620030041790919060201c565b8111155b6200057c576040805162461bcd60e51b815260206004820152600f60248201526e109a591cc81d1bdbc81cdad95dd959608a1b604482015290519081900360640190fd5b50505050565b600082820183811015620005dd576040805162461bcd60e51b815260206004820152601b60248201527f536166654d6174683a206164646974696f6e206f766572666c6f770000000000604482015290519081900360640190fd5b90505b92915050565b6000828211156200063e576040805162461bcd60e51b815260206004820152601e60248201527f536166654d6174683a207375627472616374696f6e206f766572666c6f770000604482015290519081900360640190fd5b50900390565b6000806200065d8585856001600160e01b03620006f916565b604080518082018252838152602090810183905260068490556007839055815184815290810183905281519395509193507f6546f60f34df611fa42503098acc39d5ab88bc73febe64b3cc14e5a92e3a66a792918290030190a15050505050565b6000620005dd82620006e585670de0b6b3a7640000620007b6602090811b6200305417901c565b6200081460201b620030ad1790919060201c565b60008084158015906200070b57508315155b6200075d576040805162461bcd60e51b815260206004820152601460248201527f42696473206d757374206265206e6f6e7a65726f000000000000000000000000604482015290519081900360640190fd5b600062000773846001600160e01b036200088016565b90506200078f8187620008bb60201b62002e271790919060201c565b620007a98287620008bb60201b62002e271790919060201c565b9250925050935093915050565b600082620007c757506000620005e0565b82820282848281620007d557fe5b0414620005dd5760405162461bcd60e51b815260040180806020018281038252602181526020018062004ced6021913960400191505060405180910390fd5b60008082116200086b576040805162461bcd60e51b815260206004820152601a60248201527f536166654d6174683a206469766973696f6e206279207a65726f000000000000604482015290519081900360640190fd5b60008284816200087757fe5b04949350505050565b601454600090600160a01b900460ff16620008b757620008b160155483620008db60201b620021db1790919060201c565b620005e0565b5090565b6000620005dd8383670de0b6b3a76400006001600160e01b03620008fb16565b6000620005dd8383670de0b6b3a76400006001600160e01b036200093f16565b6000806200092084620006e585600a0288620007b660201b620030541790919060201c565b90506005600a825b06106200093357600a015b600a9004949350505050565b600080600a8304620009608587620007b660201b620030541790919060201c565b816200096857fe5b0490506005600a8262000928565b61114a8062003ba383390190565b61320f80620009946000396000f3fe608060405234801561001057600080fd5b50600436106102485760003560e01c8063851492581161013b578063be5af9fe116100b8578063d3419bf31161007c578063d3419bf31461055c578063dbea363814610564578063e4cfbdbd1461058a578063eef49ee3146105c2578063fd087ee5146105ca57610248565b8063be5af9fe14610516578063c588f5261461051e578063c7a5bdc814610526578063c8db233e1461052e578063d068cdc51461055457610248565b80639af1d35a116100ff5780639af1d35a146104c05780639e3b34bf146104c8578063ac3791e3146104d0578063b1c9fe6e146104d8578063b634bfbc146104f057610248565b8063851492581461042a578063899ffef4146104325780638b0341361461048a5780638da5cb5b1461049257806398508ecd1461049a57610248565b80633dae89eb116101c957806353a47bb71161018d57806353a47bb7146103c05780636392a51f146103c857806365372147146103ee578063741853601461041a57806379ba50971461042257610248565b80633dae89eb1461035c5780633f6fa65514610364578063408e82af1461036c5780634c33fe9414610392578063532f1179146103b857610248565b806327745bae1161021057806327745bae146102e95780632810e1d6146102f157806329e77b5d146102f95780632af64bd3146103385780633d7a783b1461035457610248565b806302d05d3f1461024d57806304f3bcec146102715780631069143a146102795780631627540c146102a75780632115e303146102cf575b600080fd5b6102556105f8565b604080516001600160a01b039092168252519081900360200190f35b610255610607565b610281610616565b604080516001600160a01b03938416815291909216602082015281519081900390910190f35b6102cd600480360360208110156102bd57600080fd5b50356001600160a01b031661062c565b005b6102d7610688565b60408051918252519081900360200190f35b6102cd61069b565b6102cd6106fd565b61031f6004803603602081101561030f57600080fd5b50356001600160a01b0316610ad1565b6040805192835260208301919091528051918290030190f35b610340610ae6565b604080519115158252519081900360200190f35b61031f610bf0565b61031f610cdb565b610340610cee565b61031f6004803603602081101561038257600080fd5b50356001600160a01b0316610cfe565b6102cd600480360360208110156103a857600080fd5b50356001600160a01b0316610d0a565b610340610df4565b610255610e04565b61031f600480360360208110156103de57600080fd5b50356001600160a01b0316610e13565b6103f6610e1f565b6040518082600181111561040657fe5b60ff16815260200191505060405180910390f35b6102cd610e29565b6102cd610ff1565b6102d76110ad565b61043a61139e565b60408051602080825283518183015283519192839290830191858101910280838360005b8381101561047657818101518382015260200161045e565b505050509050019250505060405180910390f35b61031f611461565b61025561146c565b6104a261147b565b60408051938452602084019290925282820152519081900360600190f35b6104a2611487565b6104a2611493565b61034061149f565b6104e06114e2565b6040518082600381111561040657fe5b6102d76004803603604081101561050657600080fd5b5060ff8135169060200135611526565b61031f61186d565b61031f611876565b61031f611945565b6102cd6004803603602081101561054457600080fd5b50356001600160a01b0316611950565b61031f6119bd565b61031f611a72565b6102cd6004803603604081101561057a57600080fd5b5060ff8135169060200135611a7b565b6102d7600480360360808110156105a057600080fd5b5060ff8135811691602081013590911690604081013590606001351515611c64565b6102d7611e65565b61031f600480360360608110156105e057600080fd5b5060ff81351690602081013590604001351515611e6b565b6014546001600160a01b031681565b6002546001600160a01b031681565b6004546005546001600160a01b03918216911682565b610634611f5c565b600180546001600160a01b0383166001600160a01b0319909116811790915560408051918252517f906a1c6bd7e3091ea86693dd029a831c19049ce77f1dce2ce0bab1cacbabce229181900360200190a150565b6000610695601354611fa5565b90505b90565b6106a3611fdc565b6001600160a01b031663086dabd16040518163ffffffff1660e01b815260040160006040518083038186803b1580156106db57600080fd5b505afa1580156106ef573d6000803e3d6000fd5b505050506106fb611ff6565b565b610705611f5c565b61070d61209e565b61074f576040805162461bcd60e51b815260206004820152600e60248201526d4e6f7420796574206d617475726560901b604482015290519081900360640190fd5b610757611fdc565b6001600160a01b031663086dabd16040518163ffffffff1660e01b815260040160006040518083038186803b15801561078f57600080fd5b505afa1580156107a3573d6000803e3d6000fd5b505050506107af611ff6565b601454600160a01b900460ff161561080e576040805162461bcd60e51b815260206004820152601760248201527f4d61726b657420616c7265616479207265736f6c766564000000000000000000604482015290519081900360640190fd5b6000806108196120a6565b9150915061082681612134565b610868576040805162461bcd60e51b815260206004820152600e60248201526d5072696365206973207374616c6560901b604482015290519081900360640190fd5b600d8290556014805460ff60a01b1916600160a01b179055600061088a6121c4565b601354600e54919250906000906108a890839063ffffffff6121db16565b600f549091506000906108c290849063ffffffff6121db16565b90506108dc6108d7828463ffffffff6121f716565b612251565b50836001600160a01b031663a9059cbb6108f46122d8565b6001600160a01b031663eb1edd616040518163ffffffff1660e01b815260040160206040518083038186803b15801561092c57600080fd5b505afa158015610940573d6000803e3d6000fd5b505050506040513d602081101561095657600080fd5b5051604080516001600160e01b031960e085901b1681526001600160a01b039092166004830152602482018690525160448083019260209291908290030181600087803b1580156109a657600080fd5b505af11580156109ba573d6000803e3d6000fd5b505050506040513d60208110156109d057600080fd5b50506014546040805163a9059cbb60e01b81526001600160a01b0392831660048201526024810184905290519186169163a9059cbb916044808201926020929091908290030181600087803b158015610a2857600080fd5b505af1158015610a3c573d6000803e3d6000fd5b505050506040513d6020811015610a5257600080fd5b507f5528b7e06f48a519cf814c4e5293ee2737c3f5c28d93e30cca112ac649fdd2359050610a7e6122ed565b8787601354868660405180876001811115610a9557fe5b60ff1681526020810196909652506040808601949094526060850192909252608084015260a0830152519081900360c0019150a1505050505050565b600080610add83612332565b91509150915091565b60006060610af261139e565b905060005b8151811015610be7576000828281518110610b0e57fe5b6020908102919091018101516000818152600383526040908190205460025482516321f8a72160e01b81526004810185905292519395506001600160a01b03918216949116926321f8a721926024808201939291829003018186803b158015610b7657600080fd5b505afa158015610b8a573d6000803e3d6000fd5b505050506040513d6020811015610ba057600080fd5b50516001600160a01b0316141580610bcd57506000818152600360205260409020546001600160a01b0316155b15610bde5760009350505050610698565b50600101610af7565b50600191505090565b6004805460408051636b7f817160e11b8152905160009384936001600160a01b03169263d6ff02e29281830192602092829003018186803b158015610c3457600080fd5b505afa158015610c48573d6000803e3d6000fd5b505050506040513d6020811015610c5e57600080fd5b505160055460408051636b7f817160e11b815290516001600160a01b039092169163d6ff02e291600481810192602092909190829003018186803b158015610ca557600080fd5b505afa158015610cb9573d6000803e3d6000fd5b505050506040513d6020811015610ccf57600080fd5b505190925090505b9091565b600080610ce6612433565b915091509091565b601454600160a01b900460ff1681565b600080610add836126fd565b610d12611f5c565b610d1a6127c8565b15610d5f576040805162461bcd60e51b815260206004820152601060248201526f42696464696e6720696e61637469766560801b604482015290519081900360640190fd5b600080610d6a6127d0565b60145491935091506000908190610d89906001600160a01b0316612332565b9150915060008285148015610d9d57508184145b905080610de3576040805162461bcd60e51b815260206004820152600f60248201526e4e6f742063616e63656c6c61626c6560881b604482015290519081900360640190fd5b610dec86612885565b505050505050565b601454600160a81b900460ff1681565b6001546001600160a01b031681565b600080610add83612a8c565b60006106956122ed565b6060610e3361139e565b905060005b8151811015610fed576000828281518110610e4f57fe5b602090810291909101810151600254604080517f5265736f6c766572206d697373696e67207461726765743a2000000000000000818601526039808201859052825180830390910181526059820180845263dacb2d0160e01b9052605d8201858152607d83019384528151609d84015281519597506000966001600160a01b039095169563dacb2d01958995939492939260bd0191908501908083838c5b83811015610f05578181015183820152602001610eed565b50505050905090810190601f168015610f325780820380516001836020036101000a031916815260200191505b50935050505060206040518083038186803b158015610f5057600080fd5b505afa158015610f64573d6000803e3d6000fd5b505050506040513d6020811015610f7a57600080fd5b505160008381526003602090815260409182902080546001600160a01b0319166001600160a01b03851690811790915582518681529182015281519293507f88a93678a3692f6789d9546fc621bf7234b101ddb7d4fe479455112831b8aa68929081900390910190a15050600101610e38565b5050565b6001546001600160a01b0316331461103a5760405162461bcd60e51b815260040180806020018281038252603581526020018061311a6035913960400191505060405180910390fd5b600054600154604080516001600160a01b03938416815292909116602083015280517fb532073b38c83145e3e5135377a08bf9aab55bc0fd7c1179cd4fb995d2a5159c9281900390910190a160018054600080546001600160a01b03199081166001600160a01b03841617909155169055565b601454600090600160a01b900460ff16611139576110c9612b57565b6001600160a01b0316637859f410306040518263ffffffff1660e01b815260040180826001600160a01b03166001600160a01b03168152602001915050600060405180830381600087803b15801561112057600080fd5b505af1158015611134573d6000803e3d6000fd5b505050505b600080611145336126fd565b9150915081600014158061115857508015155b1561116857611165612433565b50505b60008061117433612a8c565b9150915081600014158061118757508015155b6111ce576040805162461bcd60e51b81526020600482015260136024820152724e6f7468696e6720746f20657865726369736560681b604482015290519081900360640190fd5b811561123a576004805460408051630d8acc1560e11b81523393810193909352516001600160a01b0390911691631b15982a91602480830192600092919082900301818387803b15801561122157600080fd5b505af1158015611235573d6000803e3d6000fd5b505050505b80156112a55760055460408051630d8acc1560e11b815233600482015290516001600160a01b0390921691631b15982a9160248082019260009290919082900301818387803b15801561128c57600080fd5b505af11580156112a0573d6000803e3d6000fd5b505050505b60006112b96112b26122ed565b8484612b66565b60408051828152905191925033917fd82b6f69d7477fb41cd83d936de94990cee2fa1a309feeee90101fc0513b6a439181900360200190a280156113955761130081612251565b506113096121c4565b6001600160a01b031663a9059cbb33836040518363ffffffff1660e01b815260040180836001600160a01b03166001600160a01b0316815260200182815260200192505050602060405180830381600087803b15801561136857600080fd5b505af115801561137c573d6000803e3d6000fd5b505050506040513d602081101561139257600080fd5b50505b94505050505090565b60408051600480825260a08201909252606091602082016080803883390190505090506b53797374656d53746174757360a01b816000815181106113de57fe5b6020026020010181815250506c45786368616e6765526174657360981b8160018151811061140857fe5b6020026020010181815250506814de5b9d1a1cd554d160ba1b8160028151811061142e57fe5b60200260200101818152505066119959541bdbdb60ca1b8160038151811061145257fe5b60200260200101818152505090565b600080610ce66127d0565b6000546001600160a01b031681565b600b54600c54600d5483565b600e54600f5460105483565b600854600954600a5483565b6000806114aa6120a6565b601454909250600160a01b900460ff1615905080156114cc57506114cc61209e565b80156114dc57506114dc81612134565b91505090565b60006114ec6127c8565b6114f857506000610698565b61150061209e565b61150c57506001610698565b611514612b89565b61152057506002610698565b50600390565b60006115306127c8565b15611575576040805162461bcd60e51b815260206004820152601060248201526f42696464696e6720696e61637469766560801b604482015290519081900360640190fd5b601454600160a81b900460ff166115c6576040805162461bcd60e51b815260206004820152601060248201526f1499599d5b991cc8191a5cd8589b195960821b604482015290519081900360640190fd5b816115d357506000611867565b6014546001600160a01b0316331415611629576000806115f233612332565b9092509050600185600181111561160557fe5b141561160d57905b611626611620838663ffffffff612bb316565b82612c10565b50505b6116be6116b1600e6002015473__$b8d33eeb36ac0d1e81cd70156e0043e778$__63907af6c06040518163ffffffff1660e01b815260040160206040518083038186803b15801561167957600080fd5b505af415801561168d573d6000803e3d6000fd5b505050506040513d60208110156116a357600080fd5b50519063ffffffff612bb316565b839063ffffffff6121db16565b90506116c983612cef565b6001600160a01b031663410085df33846040518363ffffffff1660e01b815260040180836001600160a01b03166001600160a01b0316815260200182815260200192505050600060405180830381600087803b15801561172857600080fd5b505af115801561173c573d6000803e3d6000fd5b503392507f9bd0a8ca6625e01a9cee5e86eec7813a8234b41f1ca0c9f15a008d1e1d00ee5f915085905083611777868263ffffffff612bb316565b6040518084600181111561178757fe5b60ff168152602001838152602001828152602001935050505060405180910390a260006117b382612251565b90506117bd6121c4565b6001600160a01b031663a9059cbb33846040518363ffffffff1660e01b815260040180836001600160a01b03166001600160a01b0316815260200182815260200192505050602060405180830381600087803b15801561181c57600080fd5b505af1158015611830573d6000803e3d6000fd5b505050506040513d602081101561184657600080fd5b5060009050806118546127d0565b91509150611863828285612d27565b5050505b92915050565b60115460125482565b6014546000908190600160a01b900460ff1615806118ab5750336118a061189b6122ed565b612cef565b6001600160a01b0316145b156118be576118bb601354611fa5565b90505b6004546001600160a01b03163314156118db576006549150610cd7565b6005546001600160a01b03163314156118f8576007549150610cd7565b6040805162461bcd60e51b815260206004820152601760248201527f53656e646572206973206e6f7420616e206f7074696f6e000000000000000000604482015290519081900360640190fd5b600080610ce66120a6565b611958611f5c565b611960612b89565b6119b1576040805162461bcd60e51b815260206004820152601b60248201527f556e65787069726564206f7074696f6e732072656d61696e696e670000000000604482015290519081900360640190fd5b6119ba81612885565b50565b60048054604080516318160ddd60e01b8152905160009384936001600160a01b0316926318160ddd9281830192602092829003018186803b158015611a0157600080fd5b505afa158015611a15573d6000803e3d6000fd5b505050506040513d6020811015611a2b57600080fd5b5051600554604080516318160ddd60e01b815290516001600160a01b03909216916318160ddd91600481810192602092909190829003018186803b158015610ca557600080fd5b60065460075482565b611a836127c8565b15611ac8576040805162461bcd60e51b815260206004820152601060248201526f42696464696e6720696e61637469766560801b604482015290519081900360640190fd5b80611ad257610fed565b611adb82612cef565b6001600160a01b03166359d667a533836040518363ffffffff1660e01b815260040180836001600160a01b03166001600160a01b0316815260200182815260200192505050600060405180830381600087803b158015611b3a57600080fd5b505af1158015611b4e573d6000803e3d6000fd5b50505050336001600160a01b03167f70bd4a33bf447720d717d08f3affb5aecfe4d2ebb8e3dd94539f5313e2447643838360405180836001811115611b8f57fe5b60ff1681526020018281526020019250505060405180910390a26000611bb482612d96565b9050611bbe6121c4565b604080516323b872dd60e01b81523360048201523060248201526044810185905290516001600160a01b0392909216916323b872dd916064808201926020929091908290030181600087803b158015611c1657600080fd5b505af1158015611c2a573d6000803e3d6000fd5b505050506040513d6020811015611c4057600080fd5b506000905080611c4e6127d0565b91509150611c5d828285612d27565b5050505050565b600080611c7c601554856121db90919063ffffffff16565b90506000611c8986612cef565b6001600160a01b0316638b0341366040518163ffffffff1660e01b815260040160206040518083038186803b158015611cc157600080fd5b505afa158015611cd5573d6000803e3d6000fd5b505050506040513d6020811015611ceb57600080fd5b505160135460408051630241ebdb60e61b81529051929350909160009173__$b8d33eeb36ac0d1e81cd70156e0043e778$__9163907af6c091600480820192602092909190829003018186803b158015611d4457600080fd5b505af4158015611d58573d6000803e3d6000fd5b505050506040513d6020811015611d6e57600080fd5b5051601054909150600090611d8a90839063ffffffff612bb316565b9050886001811115611d9857fe5b8a6001811115611da457fe5b1415611e0e576000611dbc848763ffffffff6121db16565b90508715611dd85793611dd5868363ffffffff6121db16565b95505b611e01611deb848863ffffffff612bb316565b611df58388612e00565b9063ffffffff612e2716565b9650505050505050611e5d565b6000611e20858763ffffffff612e2716565b90508715611e2a57925b6000611e368286612e00565b905088611e435780611e53565b611e53818463ffffffff612e2716565b9750505050505050505b949350505050565b60135481565b600080600080611e796127d0565b9150915061311785611e8d576121f7611e91565b612bb35b90506000886001811115611ea157fe5b1415611ebc57611eb583888363ffffffff16565b9250611ecd565b611eca82888363ffffffff16565b91505b8515611f3357611f30611f23600e6002015473__$b8d33eeb36ac0d1e81cd70156e0043e778$__63907af6c06040518163ffffffff1660e01b815260040160206040518083038186803b15801561167957600080fd5b889063ffffffff6121db16565b96505b611f4d8383611f486013548b8663ffffffff16565b612e3c565b94509450505050935093915050565b6000546001600160a01b031633146106fb5760405162461bcd60e51b815260040180806020018281038252602f81526020018061314f602f913960400191505060405180910390fd5b601454600090600160a01b900460ff16611fd257601554611fcd90839063ffffffff6121db16565b611fd4565b815b90505b919050565b60006106956b53797374656d53746174757360a01b612ecf565b611ffe612b57565b6001600160a01b0316635c975abb6040518163ffffffff1660e01b815260040160206040518083038186803b15801561203657600080fd5b505afa15801561204a573d6000803e3d6000fd5b505050506040513d602081101561206057600080fd5b5051156106fb5760405162461bcd60e51b815260040180806020018281038252603c81526020018061319f603c913960400191505060405180910390fd5b600954421190565b6000806120b1612fac565b6001600160a01b0316634308a94f600b600001546040518263ffffffff1660e01b815260040180828152602001915050604080518083038186803b1580156120f857600080fd5b505afa15801561210c573d6000803e3d6000fd5b505050506040513d604081101561212257600080fd5b50805160209091015190925090509091565b60008061213f612b57565b6001600160a01b0316634a41d89d6040518163ffffffff1660e01b815260040160606040518083038186803b15801561217757600080fd5b505afa15801561218b573d6000803e3d6000fd5b505050506040513d60608110156121a157600080fd5b505160095490915083906121bb908363ffffffff612bb316565b11159392505050565b60006106956814de5b9d1a1cd554d160ba1b612ecf565b60006121f08383670de0b6b3a7640000612fc7565b9392505050565b6000828201838110156121f0576040805162461bcd60e51b815260206004820152601b60248201527f536166654d6174683a206164646974696f6e206f766572666c6f770000000000604482015290519081900360640190fd5b601354600090612267908363ffffffff612bb316565b60138190559050612276612b57565b6001600160a01b0316636b3a0984836040518263ffffffff1660e01b815260040180828152602001915050600060405180830381600087803b1580156122bb57600080fd5b505af11580156122cf573d6000803e3d6000fd5b50505050919050565b600061069566119959541bdbdb60ca1b612ecf565b6014546000908190600160a01b900460ff161561230d5750600d54612319565b6123156120a6565b5090505b600c5481101561232a5760016114dc565b600091505090565b60048054604080516308dc30b760e41b81526001600160a01b0385811694820194909452905160009384931691638dc30b70916024808301926020929190829003018186803b15801561238457600080fd5b505afa158015612398573d6000803e3d6000fd5b505050506040513d60208110156123ae57600080fd5b5051600554604080516308dc30b760e41b81526001600160a01b03878116600483015291519190921691638dc30b70916024808301926020929190829003018186803b1580156123fd57600080fd5b505afa158015612411573d6000803e3d6000fd5b505050506040513d602081101561242757600080fd5b50519092509050915091565b60008061243e611fdc565b6001600160a01b031663086dabd16040518163ffffffff1660e01b815260040160006040518083038186803b15801561247657600080fd5b505afa15801561248a573d6000803e3d6000fd5b50505050612496611ff6565b61249e6127c8565b6124e4576040805162461bcd60e51b815260206004820152601260248201527142696464696e6720696e636f6d706c65746560701b604482015290519081900360640190fd5b60006124f1601354611fa5565b905060006124fd6122ed565b601454909150600160a01b900460ff166000808215806125285750600084600181111561252657fe5b145b156125bc576004805460065460408051632bc43fd960e01b81523394810194909452602484019190915260448301889052516001600160a01b0390911691632bc43fd99160648083019260209291908290030181600087803b15801561258d57600080fd5b505af11580156125a1573d6000803e3d6000fd5b505050506040513d60208110156125b757600080fd5b505191505b8215806125d4575060018460018111156125d257fe5b145b156126665760055460075460408051632bc43fd960e01b8152336004820152602481019290925260448201889052516001600160a01b0390921691632bc43fd9916064808201926020929091908290030181600087803b15801561263757600080fd5b505af115801561264b573d6000803e3d6000fd5b505050506040513d602081101561266157600080fd5b505190505b8115158061267357508015155b6126b7576040805162461bcd60e51b815260206004820152601060248201526f4e6f7468696e6720746f20636c61696d60801b604482015290519081900360640190fd5b6040805183815260208101839052815133927fbbe753caa9bb201dbd1740ee3d61c6d2adf5fa89f30233d732281ae5db6a03d4928290030190a290955093505050509091565b600480546040805163270fb89160e21b81526001600160a01b0385811694820194909452905160009384931691639c3ee244916024808301926020929190829003018186803b15801561274f57600080fd5b505afa158015612763573d6000803e3d6000fd5b505050506040513d602081101561277957600080fd5b50516005546040805163270fb89160e21b81526001600160a01b03878116600483015291519190921691639c3ee244916024808301926020929190829003018186803b1580156123fd57600080fd5b600854421190565b6004805460408051634581a09b60e11b8152905160009384936001600160a01b031692638b0341369281830192602092829003018186803b15801561281457600080fd5b505afa158015612828573d6000803e3d6000fd5b505050506040513d602081101561283e57600080fd5b505160055460408051634581a09b60e11b815290516001600160a01b0390921691638b03413691600481810192602092909190829003018186803b158015610ca557600080fd5b60135480156128995761289781612251565b505b60006128a36121c4565b604080516370a0823160e01b815230600482015290519192506000916001600160a01b038416916370a08231916024808301926020929190829003018186803b1580156128ef57600080fd5b505afa158015612903573d6000803e3d6000fd5b505050506040513d602081101561291957600080fd5b5051905080156129b057816001600160a01b031663a9059cbb85836040518363ffffffff1660e01b815260040180836001600160a01b03166001600160a01b0316815260200182815260200192505050602060405180830381600087803b15801561298357600080fd5b505af1158015612997573d6000803e3d6000fd5b505050506040513d60208110156129ad57600080fd5b50505b600480546040805163646d919f60e11b81526001600160a01b03888116948201949094529051929091169163c8db233e9160248082019260009290919082900301818387803b158015612a0257600080fd5b505af1158015612a16573d6000803e3d6000fd5b50506005546040805163646d919f60e11b81526001600160a01b038981166004830152915191909216935063c8db233e9250602480830192600092919082900301818387803b158015612a6857600080fd5b505af1158015612a7c573d6000803e3d6000fd5b50505050836001600160a01b0316ff5b60048054604080516370a0823160e01b81526001600160a01b03858116948201949094529051600093849316916370a08231916024808301926020929190829003018186803b158015612ade57600080fd5b505afa158015612af2573d6000803e3d6000fd5b505050506040513d6020811015612b0857600080fd5b5051600554604080516370a0823160e01b81526001600160a01b038781166004830152915191909216916370a08231916024808301926020929190829003018186803b1580156123fd57600080fd5b6000546001600160a01b031690565b600080846001811115612b7557fe5b1415612b825750816121f0565b5092915050565b601454600090600160a01b900460ff1680156106955750600a544211806106955750506013541590565b600082821115612c0a576040805162461bcd60e51b815260206004820152601e60248201527f536166654d6174683a207375627472616374696f6e206f766572666c6f770000604482015290519081900360640190fd5b50900390565b6000612c22838363ffffffff6121f716565b9050806011600001541115612c75576040805162461bcd60e51b8152602060048201526014602482015273125b9cdd59999a58da595b9d0818d85c1a5d185b60621b604482015290519081900360640190fd5b601254612c88848363ffffffff61300416565b8111158015612ca65750612ca2838363ffffffff61300416565b8111155b612ce9576040805162461bcd60e51b815260206004820152600f60248201526e109a591cc81d1bdbc81cdad95dd959608a1b604482015290519081900360640190fd5b50505050565b600080826001811115612cfe57fe5b1415612d1657506004546001600160a01b0316611fd7565b50506005546001600160a01b031690565b600080612d35858585612e3c565b604080518082018252838152602090810183905260068490556007839055815184815290810183905281519395509193507f6546f60f34df611fa42503098acc39d5ab88bc73febe64b3cc14e5a92e3a66a792918290030190a15050505050565b601354600090612dac908363ffffffff6121f716565b60138190559050612dbb612b57565b6001600160a01b031663aeab5849836040518263ffffffff1660e01b815260040180828152602001915050600060405180830381600087803b1580156122bb57600080fd5b6000818310612e1e57612e19838363ffffffff612bb316565b6121f0565b50600092915050565b60006121f08383670de0b6b3a764000061302e565b6000808415801590612e4d57508315155b612e95576040805162461bcd60e51b815260206004820152601460248201527342696473206d757374206265206e6f6e7a65726f60601b604482015290519081900360640190fd5b6000612ea084611fa5565b9050612eb2868263ffffffff612e2716565b612ec2868363ffffffff612e2716565b9250925050935093915050565b600081815260036020908152604080832054815170026b4b9b9b4b7339030b2323932b9b99d1607d1b9381019390935260318084018690528251808503909101815260519093019091526001600160a01b03169081612b825760405162461bcd60e51b81526004018080602001828103825283818151815260200191508051906020019080838360005b83811015612f71578181015183820152602001612f59565b50505050905090810190601f168015612f9e5780820380516001836020036101000a031916815260200191505b509250505060405180910390fd5b60006106956c45786368616e6765526174657360981b612ecf565b600080600a8304612fde868663ffffffff61305416565b81612fe557fe5b0490506005600a825b0610612ff857600a015b600a9004949350505050565b60006121f08261302285670de0b6b3a764000063ffffffff61305416565b9063ffffffff6130ad16565b6000806130488461302287600a870263ffffffff61305416565b90506005600a82612fee565b60008261306357506000611867565b8282028284828161307057fe5b04146121f05760405162461bcd60e51b815260040180806020018281038252602181526020018061317e6021913960400191505060405180910390fd5b6000808211613103576040805162461bcd60e51b815260206004820152601a60248201527f536166654d6174683a206469766973696f6e206279207a65726f000000000000604482015290519081900360640190fd5b600082848161310e57fe5b04949350505050565bfefe596f75206d757374206265206e6f6d696e61746564206265666f726520796f752063616e20616363657074206f776e6572736869704f6e6c792074686520636f6e7472616374206f776e6572206d617920706572666f726d207468697320616374696f6e536166654d6174683a206d756c7469706c69636174696f6e206f766572666c6f775468697320616374696f6e2063616e6e6f7420626520706572666f726d6564207768696c652074686520636f6e747261637420697320706175736564a265627a7a7231582074af3a39922552413630c524b850f5950ef96c60155e0f9d04844a945aceee0964736f6c63430005110032608060405234801561001057600080fd5b5060405161114a38038061114a8339818101604052604081101561003357600080fd5b508051602091820151600080546001600160a01b031916331781556001600160a01b0390921682526001909252604090208190556002556110d1806100796000396000f3fe608060405234801561001057600080fd5b50600436106101215760003560e01c806370a08231116100ad5780639c3ee244116100715780639c3ee24414610383578063a9059cbb146103a9578063c8db233e146103d5578063d6ff02e2146103fb578063dd62ed3e1461040357610121565b806370a082311461030357806380f55605146103295780638b0341361461034d5780638dc30b701461035557806395d89b411461037b57610121565b806323b872dd116100f457806323b872dd146102255780632bc43fd91461025b578063313ce5671461028d578063410085df146102ab57806359d667a5146102d757610121565b806306fdde0314610126578063095ea7b3146101a357806318160ddd146101e35780631b15982a146101fd575b600080fd5b61012e610431565b6040805160208082528351818301528351919283929083019185019080838360005b83811015610168578181015183820152602001610150565b50505050905090810190601f1680156101955780820380516001836020036101000a031916815260200191505b509250505060405180910390f35b6101cf600480360360408110156101b957600080fd5b506001600160a01b03813516906020013561045e565b604080519115158252519081900360200190f35b6101eb6104db565b60408051918252519081900360200190f35b6102236004803603602081101561021357600080fd5b50356001600160a01b03166104e1565b005b6101cf6004803603606081101561023b57600080fd5b506001600160a01b0381358116916020810135909116906040013561060e565b6101eb6004803603606081101561027157600080fd5b506001600160a01b0381351690602081013590604001356106ca565b610295610861565b6040805160ff9092168252519081900360200190f35b610223600480360360408110156102c157600080fd5b506001600160a01b038135169060200135610866565b610223600480360360408110156102ed57600080fd5b506001600160a01b038135169060200135610920565b6101eb6004803603602081101561031957600080fd5b50356001600160a01b03166109ce565b6103316109e0565b604080516001600160a01b039092168252519081900360200190f35b6101eb6109ef565b6101eb6004803603602081101561036b57600080fd5b50356001600160a01b03166109f5565b61012e610a07565b6101eb6004803603602081101561039957600080fd5b50356001600160a01b0316610a27565b6101cf600480360360408110156103bf57600080fd5b506001600160a01b038135169060200135610ad4565b610223600480360360208110156103eb57600080fd5b50356001600160a01b0316610ae1565b6101eb610b42565b6101eb6004803603604081101561041957600080fd5b506001600160a01b0381358116916020013516610bc3565b6040518060400160405280601181526020017029a72c102134b730b93c9027b83a34b7b760791b81525081565b60006001600160a01b03831661047357600080fd5b3360008181526005602090815260408083206001600160a01b03881680855290835292819020869055805186815290519293927f8c5be1e5ebec7d5bd14f71427d1e84f3dd0314c0f7b2291e5b200ac8c7c3b925929181900390910190a35060015b92915050565b60045481565b6000546001600160a01b03163314610536576040805162461bcd60e51b815260206004820152601360248201527213db9b1e481b585c9ad95d08185b1b1bddd959606a1b604482015290519081900360640190fd5b6001600160a01b0381166000908152600360205260409020548061055a575061060b565b6001600160a01b038216600090815260036020526040812055600454610586908263ffffffff610be016565b6004556040805182815290516000916001600160a01b038516917fddf252ad1be2c89b69c2b068fc378daa952ba7f163c4a11628f55a4df523b3ef9181900360200190a36040805182815290516001600160a01b038416917f696de425f79f4a40bc6d2122ca50507f0efbeabbff86a84871b7196ab8ea8df7919081900360200190a2505b50565b6001600160a01b038316600090815260056020908152604080832033845290915281205480831115610680576040805162461bcd60e51b8152602060048201526016602482015275496e73756666696369656e7420616c6c6f77616e636560501b604482015290519081900360640190fd5b610690818463ffffffff610be016565b6001600160a01b03861660009081526005602090815260408083203384529091529020556106bf858585610c3d565b9150505b9392505050565b600080546001600160a01b03163314610720576040805162461bcd60e51b815260206004820152601360248201527213db9b1e481b585c9ad95d08185b1b1bddd959606a1b604482015290519081900360640190fd5b6001600160a01b03841660009081526001602052604081205490610745828686610e14565b905080610757576000925050506106c3565b60025461076a908363ffffffff610be016565b6002556001600160a01b038616600090815260016020526040812055600454610799908263ffffffff610eb016565b6004556001600160a01b0386166000908152600360205260409020546107c5908263ffffffff610eb016565b6001600160a01b03871660008181526003602090815260408083209490945583518581529351929391927fddf252ad1be2c89b69c2b068fc378daa952ba7f163c4a11628f55a4df523b3ef9281900390910190a36040805182815290516001600160a01b038816917fa59f12e354e8cd10bb74c559844c2dd69a5458e31fe56c7594c62ca57480509a919081900360200190a295945050505050565b601281565b6000546001600160a01b031633146108bb576040805162461bcd60e51b815260206004820152601360248201527213db9b1e481b585c9ad95d08185b1b1bddd959606a1b604482015290519081900360640190fd5b6001600160a01b0382166000908152600160205260409020546108ed906108e8908363ffffffff610be016565b610f0a565b6001600160a01b038316600090815260016020526040902055600254610919908263ffffffff610be016565b6002555050565b6000546001600160a01b03163314610975576040805162461bcd60e51b815260206004820152601360248201527213db9b1e481b585c9ad95d08185b1b1bddd959606a1b604482015290519081900360640190fd5b6001600160a01b0382166000908152600160205260409020546109a2906108e8908363ffffffff610eb016565b6001600160a01b038316600090815260016020526040902055600254610919908263ffffffff610eb016565b60036020526000908152604090205481565b6000546001600160a01b031681565b60025481565b60016020526000908152604090205481565b604051806040016040528060048152602001631cd3d41560e21b81525081565b60008054604080516362c47a9360e11b81528151849384936001600160a01b039091169263c588f5269260048083019392829003018186803b158015610a6c57600080fd5b505afa158015610a80573d6000803e3d6000fd5b505050506040513d6040811015610a9657600080fd5b5080516020918201516001600160a01b03871660009081526001909352604090922054909350909150610aca908383610e14565b925050505b919050565b60006106c3338484610c3d565b6000546001600160a01b03163314610b36576040805162461bcd60e51b815260206004820152601360248201527213db9b1e481b585c9ad95d08185b1b1bddd959606a1b604482015290519081900360640190fd5b806001600160a01b0316ff5b60008054604080516362c47a9360e11b8152815184936001600160a01b03169263c588f5269260048082019391829003018186803b158015610b8357600080fd5b505afa158015610b97573d6000803e3d6000fd5b505050506040513d6040811015610bad57600080fd5b50602001519050610bbd81610f67565b91505090565b600560209081526000928352604080842090915290825290205481565b600082821115610c37576040805162461bcd60e51b815260206004820152601e60248201527f536166654d6174683a207375627472616374696f6e206f766572666c6f770000604482015290519081900360640190fd5b50900390565b60008060009054906101000a90046001600160a01b03166001600160a01b03166327745bae6040518163ffffffff1660e01b815260040160006040518083038186803b158015610c8c57600080fd5b505afa158015610ca0573d6000803e3d6000fd5b505050506001600160a01b03831615801590610cc557506001600160a01b0383163014155b610d08576040805162461bcd60e51b815260206004820152600f60248201526e496e76616c6964206164647265737360881b604482015290519081900360640190fd5b6001600160a01b03841660009081526003602052604090205480831115610d6d576040805162461bcd60e51b8152602060048201526014602482015273496e73756666696369656e742062616c616e636560601b604482015290519081900360640190fd5b610d7d818463ffffffff610be016565b6001600160a01b038087166000908152600360205260408082209390935590861681522054610db2908463ffffffff610eb016565b6001600160a01b0380861660008181526003602090815260409182902094909455805187815290519193928916927fddf252ad1be2c89b69c2b068fc378daa952ba7f163c4a11628f55a4df523b3ef92918290030190a3506001949350505050565b600080610e27858563ffffffff610f8e16565b90506000610e3484610f67565b905060025486148015610e4657508515155b80610e4f575080155b15610e5d5791506106c39050565b80821115610ea7576040805162461bcd60e51b8152602060048201526012602482015271737570706c79203c20636c61696d61626c6560701b604482015290519081900360640190fd5b50949350505050565b6000828201838110156106c3576040805162461bcd60e51b815260206004820152601b60248201527f536166654d6174683a206164646974696f6e206f766572666c6f770000000000604482015290519081900360640190fd5b6000662386f26fc1000082101580610f20575081155b610f63576040805162461bcd60e51b815260206004820152600f60248201526e42616c616e6365203c2024302e303160881b604482015290519081900360640190fd5b5090565b600454600090808311610f7e576000915050610acf565b6106c3838263ffffffff610be016565b60006106c382610fac85670de0b6b3a764000063ffffffff610fb816565b9063ffffffff61101116565b600082610fc7575060006104d5565b82820282848281610fd457fe5b04146106c35760405162461bcd60e51b815260040180806020018281038252602181526020018061107c6021913960400191505060405180910390fd5b6000808211611067576040805162461bcd60e51b815260206004820152601a60248201527f536166654d6174683a206469766973696f6e206279207a65726f000000000000604482015290519081900360640190fd5b600082848161107257fe5b0494935050505056fe536166654d6174683a206d756c7469706c69636174696f6e206f766572666c6f77a265627a7a72315820a3435ce64c4c84e0dd9cc4ddfdb30237bb81efd7f25c16954db2c745dd4aaa1764736f6c63430005110032536166654d6174683a206d756c7469706c69636174696f6e206f766572666c6f7770bd4a33bf447720d717d08f3affb5aecfe4d2ebb8e3dd94539f5313e2447643596f75206d757374206265206e6f6d696e61746564206265666f726520796f752063616e20616363657074206f776e6572736869704f6e6c792074686520636f6e7472616374206f776e6572206d617920706572666f726d207468697320616374696f6ea265627a7a723158208929b49f71cdf3a3e5dcdb1b6b7a3b27c65778f712ee4537eeeb95920ff809ce64736f6c63430005110032",
			"opcodes": "PUSH1 0x80 PUSH1 0x40 MSTORE CALLVALUE DUP1 ISZERO PUSH2 0x10 JUMPI PUSH1 0x0 DUP1 REVERT JUMPDEST POP PUSH1 0x40 MLOAD PUSH2 0x5849 CODESIZE SUB DUP1 PUSH2 0x5849 DUP4 CODECOPY DUP2 DUP2 ADD PUSH1 0x40 MSTORE PUSH1 0x40 DUP2 LT ISZERO PUSH2 0x33 JUMPI PUSH1 0x0 DUP1 REVERT JUMPDEST POP DUP1 MLOAD PUSH1 0x20 SWAP1 SWAP2 ADD MLOAD DUP1 DUP3 PUSH1 0x1 PUSH1 0x1 PUSH1 0xA0 SHL SUB DUP2 AND PUSH2 0x99 JUMPI PUSH1 0x40 DUP1 MLOAD PUSH3 0x461BCD PUSH1 0xE5 SHL DUP2 MSTORE PUSH1 0x20 PUSH1 0x4 DUP3 ADD MSTORE PUSH1 0x19 PUSH1 0x24 DUP3 ADD MSTORE PUSH32 0x4F776E657220616464726573732063616E6E6F74206265203000000000000000 PUSH1 0x44 DUP3 ADD MSTORE SWAP1 MLOAD SWAP1 DUP2 SWAP1 SUB PUSH1 0x64 ADD SWAP1 REVERT JUMPDEST PUSH1 0x0 DUP1 SLOAD PUSH1 0x1 PUSH1 0x1 PUSH1 0xA0 SHL SUB NOT AND PUSH1 0x1 PUSH1 0x1 PUSH1 0xA0 SHL SUB DUP4 AND SWAP1 DUP2 OR DUP3 SSTORE PUSH1 0x40 DUP1 MLOAD SWAP3 DUP4 MSTORE PUSH1 0x20 DUP4 ADD SWAP2 SWAP1 SWAP2 MSTORE DUP1 MLOAD PUSH32 0xB532073B38C83145E3E5135377A08BF9AAB55BC0FD7C1179CD4FB995D2A5159C SWAP3 DUP2 SWAP1 SUB SWAP1 SWAP2 ADD SWAP1 LOG1 POP PUSH1 0x2 DUP1 SLOAD PUSH1 0x1 PUSH1 0x1 PUSH1 0xA0 SHL SUB SWAP1 SWAP3 AND PUSH1 0x1 PUSH1 0x1 PUSH1 0xA0 SHL SUB NOT SWAP1 SWAP3 AND SWAP2 SWAP1 SWAP2 OR SWAP1 SSTORE POP POP PUSH2 0x5725 DUP1 PUSH2 0x124 PUSH1 0x0 CODECOPY PUSH1 0x0 RETURN INVALID PUSH1 0x80 PUSH1 0x40 MSTORE CALLVALUE DUP1 ISZERO PUSH3 0x11 JUMPI PUSH1 0x0 DUP1 REVERT JUMPDEST POP PUSH1 0x4 CALLDATASIZE LT PUSH3 0xA0 JUMPI PUSH1 0x0 CALLDATALOAD PUSH1 0xE0 SHR DUP1 PUSH4 0x53A47BB7 GT PUSH3 0x6F JUMPI DUP1 PUSH4 0x53A47BB7 EQ PUSH3 0x168 JUMPI DUP1 PUSH4 0x74185360 EQ PUSH3 0x172 JUMPI DUP1 PUSH4 0x79BA5097 EQ PUSH3 0x17C JUMPI DUP1 PUSH4 0x899FFEF4 EQ PUSH3 0x186 JUMPI DUP1 PUSH4 0x8DA5CB5B EQ PUSH3 0x1E2 JUMPI PUSH3 0xA0 JUMP JUMPDEST DUP1 PUSH4 0x4F3BCEC EQ PUSH3 0xA5 JUMPI DUP1 PUSH4 0x130EFA50 EQ PUSH3 0xCB JUMPI DUP1 PUSH4 0x1627540C EQ PUSH3 0x11F JUMPI DUP1 PUSH4 0x2AF64BD3 EQ PUSH3 0x14A JUMPI JUMPDEST PUSH1 0x0 DUP1 REVERT JUMPDEST PUSH3 0xAF PUSH3 0x1EC JUMP JUMPDEST PUSH1 0x40 DUP1 MLOAD PUSH1 0x1 PUSH1 0x1 PUSH1 0xA0 SHL SUB SWAP1 SWAP3 AND DUP3 MSTORE MLOAD SWAP1 DUP2 SWAP1 SUB PUSH1 0x20 ADD SWAP1 RETURN JUMPDEST PUSH3 0xAF PUSH1 0x4 DUP1 CALLDATASIZE SUB PUSH2 0x1C0 DUP2 LT ISZERO PUSH3 0xE4 JUMPI PUSH1 0x0 DUP1 REVERT JUMPDEST POP PUSH1 0x1 PUSH1 0x1 PUSH1 0xA0 SHL SUB DUP2 CALLDATALOAD AND SWAP1 PUSH1 0x20 DUP2 ADD SWAP1 PUSH1 0x60 DUP2 ADD CALLDATALOAD SWAP1 PUSH1 0x80 DUP2 ADD CALLDATALOAD SWAP1 PUSH1 0xA0 DUP2 ADD CALLDATALOAD ISZERO ISZERO SWAP1 PUSH1 0xC0 DUP2 ADD SWAP1 PUSH2 0x120 DUP2 ADD SWAP1 PUSH2 0x160 ADD PUSH3 0x1FB JUMP JUMPDEST PUSH3 0x148 PUSH1 0x4 DUP1 CALLDATASIZE SUB PUSH1 0x20 DUP2 LT ISZERO PUSH3 0x137 JUMPI PUSH1 0x0 DUP1 REVERT JUMPDEST POP CALLDATALOAD PUSH1 0x1 PUSH1 0x1 PUSH1 0xA0 SHL SUB AND PUSH3 0x36E JUMP JUMPDEST STOP JUMPDEST PUSH3 0x154 PUSH3 0x3CC JUMP JUMPDEST PUSH1 0x40 DUP1 MLOAD SWAP2 ISZERO ISZERO DUP3 MSTORE MLOAD SWAP1 DUP2 SWAP1 SUB PUSH1 0x20 ADD SWAP1 RETURN JUMPDEST PUSH3 0xAF PUSH3 0x4E2 JUMP JUMPDEST PUSH3 0x148 PUSH3 0x4F1 JUMP JUMPDEST PUSH3 0x148 PUSH3 0x6C4 JUMP JUMPDEST PUSH3 0x190 PUSH3 0x782 JUMP JUMPDEST PUSH1 0x40 DUP1 MLOAD PUSH1 0x20 DUP1 DUP3 MSTORE DUP4 MLOAD DUP2 DUP4 ADD MSTORE DUP4 MLOAD SWAP2 SWAP3 DUP4 SWAP3 SWAP1 DUP4 ADD SWAP2 DUP6 DUP2 ADD SWAP2 MUL DUP1 DUP4 DUP4 PUSH1 0x0 JUMPDEST DUP4 DUP2 LT ISZERO PUSH3 0x1CE JUMPI DUP2 DUP2 ADD MLOAD DUP4 DUP3 ADD MSTORE PUSH1 0x20 ADD PUSH3 0x1B4 JUMP JUMPDEST POP POP POP POP SWAP1 POP ADD SWAP3 POP POP POP PUSH1 0x40 MLOAD DUP1 SWAP2 SUB SWAP1 RETURN JUMPDEST PUSH3 0xAF PUSH3 0x7DE JUMP JUMPDEST PUSH1 0x2 SLOAD PUSH1 0x1 PUSH1 0x1 PUSH1 0xA0 SHL SUB AND DUP2 JUMP JUMPDEST PUSH1 0x0 DUP1 PUSH3 0x208 PUSH3 0x7ED JUMP JUMPDEST SWAP1 POP PUSH1 0x1 PUSH1 0x1 PUSH1 0xA0 SHL SUB DUP2 AND CALLER EQ PUSH3 0x268 JUMPI PUSH1 0x40 DUP1 MLOAD PUSH3 0x461BCD PUSH1 0xE5 SHL DUP2 MSTORE PUSH1 0x20 PUSH1 0x4 DUP3 ADD MSTORE PUSH1 0x1E PUSH1 0x24 DUP3 ADD MSTORE PUSH32 0x4F6E6C79207065726D697474656420627920746865206D616E616765722E0000 PUSH1 0x44 DUP3 ADD MSTORE SWAP1 MLOAD SWAP1 DUP2 SWAP1 SUB PUSH1 0x64 ADD SWAP1 REVERT JUMPDEST DUP1 DUP11 PUSH1 0x2 PUSH1 0x0 SWAP1 SLOAD SWAP1 PUSH2 0x100 EXP SWAP1 DIV PUSH1 0x1 PUSH1 0x1 PUSH1 0xA0 SHL SUB AND DUP12 DUP12 DUP12 DUP12 DUP12 DUP12 DUP12 PUSH1 0x40 MLOAD PUSH3 0x295 SWAP1 PUSH3 0x950 JUMP JUMPDEST PUSH1 0x1 PUSH1 0x1 PUSH1 0xA0 SHL SUB DUP1 DUP13 AND DUP3 MSTORE DUP11 DUP2 AND PUSH1 0x20 DUP4 ADD MSTORE DUP10 AND PUSH1 0x40 DUP1 DUP4 ADD SWAP2 SWAP1 SWAP2 MSTORE PUSH1 0x60 DUP3 ADD SWAP1 DUP10 SWAP1 DUP1 DUP3 DUP5 CALLDATACOPY PUSH1 0x0 DUP4 DUP3 ADD MSTORE PUSH1 0x1F ADD PUSH1 0x1F NOT AND SWAP1 SWAP2 ADD DUP9 DUP2 MSTORE PUSH1 0x20 DUP2 ADD DUP9 SWAP1 MSTORE DUP7 ISZERO ISZERO PUSH1 0x40 DUP3 ADD MSTORE PUSH1 0x60 SWAP1 DUP2 ADD SWAP2 POP DUP6 SWAP1 DUP1 DUP3 DUP5 CALLDATACOPY PUSH1 0x0 DUP4 DUP3 ADD MSTORE PUSH1 0x1F ADD PUSH1 0x1F NOT AND SWAP1 SWAP2 ADD SWAP1 POP DUP4 PUSH1 0x40 DUP1 DUP3 DUP5 CALLDATACOPY PUSH1 0x0 DUP4 DUP3 ADD MSTORE PUSH1 0x1F ADD PUSH1 0x1F NOT AND SWAP1 SWAP2 ADD SWAP1 POP DUP3 PUSH1 0x60 DUP1 DUP3 DUP5 CALLDATACOPY PUSH1 0x0 DUP4 DUP3 ADD DUP2 SWAP1 MSTORE PUSH1 0x40 MLOAD PUSH1 0x1F SWAP1 SWAP3 ADD PUSH1 0x1F NOT AND SWAP1 SWAP4 ADD DUP2 SWAP1 SUB SWAP14 POP SWAP12 POP SWAP1 SWAP10 POP POP POP POP POP POP POP POP POP POP CREATE DUP1 ISZERO DUP1 ISZERO PUSH3 0x35F JUMPI RETURNDATASIZE PUSH1 0x0 DUP1 RETURNDATACOPY RETURNDATASIZE PUSH1 0x0 REVERT JUMPDEST POP SWAP11 SWAP10 POP POP POP POP POP POP POP POP POP POP JUMP JUMPDEST PUSH3 0x378 PUSH3 0x81B JUMP JUMPDEST PUSH1 0x1 DUP1 SLOAD PUSH1 0x1 PUSH1 0x1 PUSH1 0xA0 SHL SUB DUP4 AND PUSH1 0x1 PUSH1 0x1 PUSH1 0xA0 SHL SUB NOT SWAP1 SWAP2 AND DUP2 OR SWAP1 SWAP2 SSTORE PUSH1 0x40 DUP1 MLOAD SWAP2 DUP3 MSTORE MLOAD PUSH32 0x906A1C6BD7E3091EA86693DD029A831C19049CE77F1DCE2CE0BAB1CACBABCE22 SWAP2 DUP2 SWAP1 SUB PUSH1 0x20 ADD SWAP1 LOG1 POP JUMP JUMPDEST PUSH1 0x0 PUSH1 0x60 PUSH3 0x3DA PUSH3 0x782 JUMP JUMPDEST SWAP1 POP PUSH1 0x0 JUMPDEST DUP2 MLOAD DUP2 LT ISZERO PUSH3 0x4D8 JUMPI PUSH1 0x0 DUP3 DUP3 DUP2 MLOAD DUP2 LT PUSH3 0x3F8 JUMPI INVALID JUMPDEST PUSH1 0x20 SWAP1 DUP2 MUL SWAP2 SWAP1 SWAP2 ADD DUP2 ADD MLOAD PUSH1 0x0 DUP2 DUP2 MSTORE PUSH1 0x3 DUP4 MSTORE PUSH1 0x40 SWAP1 DUP2 SWAP1 KECCAK256 SLOAD PUSH1 0x2 SLOAD DUP3 MLOAD PUSH4 0x21F8A721 PUSH1 0xE0 SHL DUP2 MSTORE PUSH1 0x4 DUP2 ADD DUP6 SWAP1 MSTORE SWAP3 MLOAD SWAP4 SWAP6 POP PUSH1 0x1 PUSH1 0x1 PUSH1 0xA0 SHL SUB SWAP2 DUP3 AND SWAP5 SWAP2 AND SWAP3 PUSH4 0x21F8A721 SWAP3 PUSH1 0x24 DUP1 DUP3 ADD SWAP4 SWAP3 SWAP2 DUP3 SWAP1 SUB ADD DUP2 DUP7 DUP1 EXTCODESIZE ISZERO DUP1 ISZERO PUSH3 0x461 JUMPI PUSH1 0x0 DUP1 REVERT JUMPDEST POP GAS STATICCALL ISZERO DUP1 ISZERO PUSH3 0x476 JUMPI RETURNDATASIZE PUSH1 0x0 DUP1 RETURNDATACOPY RETURNDATASIZE PUSH1 0x0 REVERT JUMPDEST POP POP POP POP PUSH1 0x40 MLOAD RETURNDATASIZE PUSH1 0x20 DUP2 LT ISZERO PUSH3 0x48D JUMPI PUSH1 0x0 DUP1 REVERT JUMPDEST POP MLOAD PUSH1 0x1 PUSH1 0x1 PUSH1 0xA0 SHL SUB AND EQ ISZERO DUP1 PUSH3 0x4BB JUMPI POP PUSH1 0x0 DUP2 DUP2 MSTORE PUSH1 0x3 PUSH1 0x20 MSTORE PUSH1 0x40 SWAP1 KECCAK256 SLOAD PUSH1 0x1 PUSH1 0x1 PUSH1 0xA0 SHL SUB AND ISZERO JUMPDEST ISZERO PUSH3 0x4CE JUMPI PUSH1 0x0 SWAP4 POP POP POP POP PUSH3 0x4DF JUMP JUMPDEST POP PUSH1 0x1 ADD PUSH3 0x3DF JUMP JUMPDEST POP PUSH1 0x1 SWAP2 POP POP JUMPDEST SWAP1 JUMP JUMPDEST PUSH1 0x1 SLOAD PUSH1 0x1 PUSH1 0x1 PUSH1 0xA0 SHL SUB AND DUP2 JUMP JUMPDEST PUSH1 0x60 PUSH3 0x4FD PUSH3 0x782 JUMP JUMPDEST SWAP1 POP PUSH1 0x0 JUMPDEST DUP2 MLOAD DUP2 LT ISZERO PUSH3 0x6C0 JUMPI PUSH1 0x0 DUP3 DUP3 DUP2 MLOAD DUP2 LT PUSH3 0x51B JUMPI INVALID JUMPDEST PUSH1 0x20 SWAP1 DUP2 MUL SWAP2 SWAP1 SWAP2 ADD DUP2 ADD MLOAD PUSH1 0x2 SLOAD PUSH1 0x40 DUP1 MLOAD PUSH32 0x5265736F6C766572206D697373696E67207461726765743A2000000000000000 DUP2 DUP7 ADD MSTORE PUSH1 0x39 DUP1 DUP3 ADD DUP6 SWAP1 MSTORE DUP3 MLOAD DUP1 DUP4 SUB SWAP1 SWAP2 ADD DUP2 MSTORE PUSH1 0x59 DUP3 ADD DUP1 DUP5 MSTORE PUSH4 0xDACB2D01 PUSH1 0xE0 SHL SWAP1 MSTORE PUSH1 0x5D DUP3 ADD DUP6 DUP2 MSTORE PUSH1 0x7D DUP4 ADD SWAP4 DUP5 MSTORE DUP2 MLOAD PUSH1 0x9D DUP5 ADD MSTORE DUP2 MLOAD SWAP6 SWAP8 POP PUSH1 0x0 SWAP7 PUSH1 0x1 PUSH1 0x1 PUSH1 0xA0 SHL SUB SWAP1 SWAP6 AND SWAP6 PUSH4 0xDACB2D01 SWAP6 DUP10 SWAP6 SWAP4 SWAP5 SWAP3 SWAP4 SWAP3 PUSH1 0xBD ADD SWAP2 SWAP1 DUP6 ADD SWAP1 DUP1 DUP4 DUP4 DUP13 JUMPDEST DUP4 DUP2 LT ISZERO PUSH3 0x5D3 JUMPI DUP2 DUP2 ADD MLOAD DUP4 DUP3 ADD MSTORE PUSH1 0x20 ADD PUSH3 0x5B9 JUMP JUMPDEST POP POP POP POP SWAP1 POP SWAP1 DUP2 ADD SWAP1 PUSH1 0x1F AND DUP1 ISZERO PUSH3 0x601 JUMPI DUP1 DUP3 SUB DUP1 MLOAD PUSH1 0x1 DUP4 PUSH1 0x20 SUB PUSH2 0x100 EXP SUB NOT AND DUP2 MSTORE PUSH1 0x20 ADD SWAP2 POP JUMPDEST POP SWAP4 POP POP POP POP PUSH1 0x20 PUSH1 0x40 MLOAD DUP1 DUP4 SUB DUP2 DUP7 DUP1 EXTCODESIZE ISZERO DUP1 ISZERO PUSH3 0x620 JUMPI PUSH1 0x0 DUP1 REVERT JUMPDEST POP GAS STATICCALL ISZERO DUP1 ISZERO PUSH3 0x635 JUMPI RETURNDATASIZE PUSH1 0x0 DUP1 RETURNDATACOPY RETURNDATASIZE PUSH1 0x0 REVERT JUMPDEST POP POP POP POP PUSH1 0x40 MLOAD RETURNDATASIZE PUSH1 0x20 DUP2 LT ISZERO PUSH3 0x64C JUMPI PUSH1 0x0 DUP1 REVERT JUMPDEST POP MLOAD PUSH1 0x0 DUP4 DUP2 MSTORE PUSH1 0x3 PUSH1 0x20 SWAP1 DUP2 MSTORE PUSH1 0x40 SWAP2 DUP3 SWAP1 KECCAK256 DUP1 SLOAD PUSH1 0x1 PUSH1 0x1 PUSH1 0xA0 SHL SUB NOT AND PUSH1 0x1 PUSH1 0x1 PUSH1 0xA0 SHL SUB DUP6 AND SWAP1 DUP2 OR SWAP1 SWAP2 SSTORE DUP3 MLOAD DUP7 DUP2 MSTORE SWAP2 DUP3 ADD MSTORE DUP2 MLOAD SWAP3 SWAP4 POP PUSH32 0x88A93678A3692F6789D9546FC621BF7234B101DDB7D4FE479455112831B8AA68 SWAP3 SWAP1 DUP2 SWAP1 SUB SWAP1 SWAP2 ADD SWAP1 LOG1 POP POP PUSH1 0x1 ADD PUSH3 0x502 JUMP JUMPDEST POP POP JUMP JUMPDEST PUSH1 0x1 SLOAD PUSH1 0x1 PUSH1 0x1 PUSH1 0xA0 SHL SUB AND CALLER EQ PUSH3 0x70F JUMPI PUSH1 0x40 MLOAD PUSH3 0x461BCD PUSH1 0xE5 SHL DUP2 MSTORE PUSH1 0x4 ADD DUP1 DUP1 PUSH1 0x20 ADD DUP3 DUP2 SUB DUP3 MSTORE PUSH1 0x35 DUP2 MSTORE PUSH1 0x20 ADD DUP1 PUSH3 0x568D PUSH1 0x35 SWAP2 CODECOPY PUSH1 0x40 ADD SWAP2 POP POP PUSH1 0x40 MLOAD DUP1 SWAP2 SUB SWAP1 REVERT JUMPDEST PUSH1 0x0 SLOAD PUSH1 0x1 SLOAD PUSH1 0x40 DUP1 MLOAD PUSH1 0x1 PUSH1 0x1 PUSH1 0xA0 SHL SUB SWAP4 DUP5 AND DUP2 MSTORE SWAP3 SWAP1 SWAP2 AND PUSH1 0x20 DUP4 ADD MSTORE DUP1 MLOAD PUSH32 0xB532073B38C83145E3E5135377A08BF9AAB55BC0FD7C1179CD4FB995D2A5159C SWAP3 DUP2 SWAP1 SUB SWAP1 SWAP2 ADD SWAP1 LOG1 PUSH1 0x1 DUP1 SLOAD PUSH1 0x0 DUP1 SLOAD PUSH1 0x1 PUSH1 0x1 PUSH1 0xA0 SHL SUB NOT SWAP1 DUP2 AND PUSH1 0x1 PUSH1 0x1 PUSH1 0xA0 SHL SUB DUP5 AND OR SWAP1 SWAP2 SSTORE AND SWAP1 SSTORE JUMP JUMPDEST PUSH1 0x40 DUP1 MLOAD PUSH1 0x1 DUP1 DUP3 MSTORE DUP2 DUP4 ADD SWAP1 SWAP3 MSTORE PUSH1 0x60 SWAP2 PUSH1 0x20 DUP1 DUP4 ADD SWAP1 DUP1 CODESIZE DUP4 CODECOPY ADD SWAP1 POP POP SWAP1 POP PUSH25 0x2134B730B93CA7B83A34B7B726B0B935B2BA26B0B730B3B2B9 PUSH1 0x39 SHL DUP2 PUSH1 0x0 DUP2 MLOAD DUP2 LT PUSH3 0x7CF JUMPI INVALID JUMPDEST PUSH1 0x20 MUL PUSH1 0x20 ADD ADD DUP2 DUP2 MSTORE POP POP SWAP1 JUMP JUMPDEST PUSH1 0x0 SLOAD PUSH1 0x1 PUSH1 0x1 PUSH1 0xA0 SHL SUB AND DUP2 JUMP JUMPDEST PUSH1 0x0 PUSH3 0x816 PUSH25 0x2134B730B93CA7B83A34B7B726B0B935B2BA26B0B730B3B2B9 PUSH1 0x39 SHL PUSH3 0x868 JUMP JUMPDEST SWAP1 POP SWAP1 JUMP JUMPDEST PUSH1 0x0 SLOAD PUSH1 0x1 PUSH1 0x1 PUSH1 0xA0 SHL SUB AND CALLER EQ PUSH3 0x866 JUMPI PUSH1 0x40 MLOAD PUSH3 0x461BCD PUSH1 0xE5 SHL DUP2 MSTORE PUSH1 0x4 ADD DUP1 DUP1 PUSH1 0x20 ADD DUP3 DUP2 SUB DUP3 MSTORE PUSH1 0x2F DUP2 MSTORE PUSH1 0x20 ADD DUP1 PUSH3 0x56C2 PUSH1 0x2F SWAP2 CODECOPY PUSH1 0x40 ADD SWAP2 POP POP PUSH1 0x40 MLOAD DUP1 SWAP2 SUB SWAP1 REVERT JUMPDEST JUMP JUMPDEST PUSH1 0x0 DUP2 DUP2 MSTORE PUSH1 0x3 PUSH1 0x20 SWAP1 DUP2 MSTORE PUSH1 0x40 DUP1 DUP4 KECCAK256 SLOAD DUP2 MLOAD PUSH17 0x26B4B9B9B4B7339030B2323932B9B99D1 PUSH1 0x7D SHL SWAP4 DUP2 ADD SWAP4 SWAP1 SWAP4 MSTORE PUSH1 0x31 DUP1 DUP5 ADD DUP7 SWAP1 MSTORE DUP3 MLOAD DUP1 DUP6 SUB SWAP1 SWAP2 ADD DUP2 MSTORE PUSH1 0x51 SWAP1 SWAP4 ADD SWAP1 SWAP2 MSTORE PUSH1 0x1 PUSH1 0x1 PUSH1 0xA0 SHL SUB AND SWAP1 DUP2 PUSH3 0x949 JUMPI PUSH1 0x40 MLOAD PUSH3 0x461BCD PUSH1 0xE5 SHL DUP2 MSTORE PUSH1 0x4 ADD DUP1 DUP1 PUSH1 0x20 ADD DUP3 DUP2 SUB DUP3 MSTORE DUP4 DUP2 DUP2 MLOAD DUP2 MSTORE PUSH1 0x20 ADD SWAP2 POP DUP1 MLOAD SWAP1 PUSH1 0x20 ADD SWAP1 DUP1 DUP4 DUP4 PUSH1 0x0 JUMPDEST DUP4 DUP2 LT ISZERO PUSH3 0x90D JUMPI DUP2 DUP2 ADD MLOAD DUP4 DUP3 ADD MSTORE PUSH1 0x20 ADD PUSH3 0x8F3 JUMP JUMPDEST POP POP POP POP SWAP1 POP SWAP1 DUP2 ADD SWAP1 PUSH1 0x1F AND DUP1 ISZERO PUSH3 0x93B JUMPI DUP1 DUP3 SUB DUP1 MLOAD PUSH1 0x1 DUP4 PUSH1 0x20 SUB PUSH2 0x100 EXP SUB NOT AND DUP2 MSTORE PUSH1 0x20 ADD SWAP2 POP JUMPDEST POP SWAP3 POP POP POP PUSH1 0x40 MLOAD DUP1 SWAP2 SUB SWAP1 REVERT JUMPDEST POP SWAP3 SWAP2 POP POP JUMP JUMPDEST PUSH2 0x4D2E DUP1 PUSH3 0x95F DUP4 CODECOPY ADD SWAP1 JUMP INVALID PUSH1 0x80 PUSH1 0x40 MSTORE CALLVALUE DUP1 ISZERO PUSH3 0x11 JUMPI PUSH1 0x0 DUP1 REVERT JUMPDEST POP PUSH1 0x40 MLOAD PUSH3 0x4D2E CODESIZE SUB DUP1 PUSH3 0x4D2E DUP4 CODECOPY DUP2 DUP2 ADD PUSH1 0x40 MSTORE PUSH2 0x200 DUP2 LT ISZERO PUSH3 0x38 JUMPI PUSH1 0x0 DUP1 REVERT JUMPDEST POP DUP1 MLOAD PUSH1 0x20 DUP3 ADD MLOAD PUSH1 0x40 DUP4 ADD MLOAD PUSH1 0xA0 DUP5 ADD MLOAD PUSH1 0xC0 DUP6 ADD MLOAD PUSH1 0xE0 DUP7 ADD MLOAD SWAP5 SWAP6 SWAP4 SWAP5 SWAP3 SWAP4 PUSH1 0x60 DUP2 ADD SWAP4 SWAP1 PUSH2 0x100 DUP2 ADD SWAP1 PUSH2 0x160 DUP2 ADD SWAP1 PUSH2 0x1A0 ADD DUP8 DUP11 PUSH1 0x1 PUSH1 0x1 PUSH1 0xA0 SHL SUB DUP2 AND PUSH3 0xCE JUMPI PUSH1 0x40 DUP1 MLOAD PUSH3 0x461BCD PUSH1 0xE5 SHL DUP2 MSTORE PUSH1 0x20 PUSH1 0x4 DUP3 ADD MSTORE PUSH1 0x19 PUSH1 0x24 DUP3 ADD MSTORE PUSH32 0x4F776E657220616464726573732063616E6E6F74206265203000000000000000 PUSH1 0x44 DUP3 ADD MSTORE SWAP1 MLOAD SWAP1 DUP2 SWAP1 SUB PUSH1 0x64 ADD SWAP1 REVERT JUMPDEST PUSH1 0x0 DUP1 SLOAD PUSH1 0x1 PUSH1 0x1 PUSH1 0xA0 SHL SUB NOT AND PUSH1 0x1 PUSH1 0x1 PUSH1 0xA0 SHL SUB DUP4 AND SWAP1 DUP2 OR DUP3 SSTORE PUSH1 0x40 DUP1 MLOAD SWAP3 DUP4 MSTORE PUSH1 0x20 DUP4 ADD SWAP2 SWAP1 SWAP2 MSTORE DUP1 MLOAD PUSH32 0xB532073B38C83145E3E5135377A08BF9AAB55BC0FD7C1179CD4FB995D2A5159C SWAP3 DUP2 SWAP1 SUB SWAP1 SWAP2 ADD SWAP1 LOG1 POP PUSH1 0x2 DUP1 SLOAD PUSH1 0x1 PUSH1 0x1 PUSH1 0xA0 SHL SUB NOT SWAP1 DUP2 AND PUSH1 0x1 PUSH1 0x1 PUSH1 0xA0 SHL SUB SWAP4 DUP5 AND OR SWAP1 SWAP2 SSTORE PUSH1 0x14 DUP1 SLOAD PUSH1 0x40 DUP1 MLOAD DUP1 DUP3 ADD DUP3 MSTORE DUP13 MLOAD DUP1 DUP3 MSTORE PUSH1 0x20 DUP1 DUP16 ADD MLOAD SWAP3 DUP2 ADD DUP4 SWAP1 MSTORE PUSH1 0x11 SWAP2 SWAP1 SWAP2 SSTORE PUSH1 0x12 SWAP2 SWAP1 SWAP2 SSTORE DUP2 MLOAD PUSH1 0x60 DUP1 DUP3 ADD DUP5 MSTORE DUP14 DUP3 MSTORE DUP2 DUP4 ADD DUP14 SWAP1 MSTORE PUSH1 0x0 SWAP2 DUP5 ADD DUP3 SWAP1 MSTORE PUSH1 0xB DUP15 SWAP1 SSTORE PUSH1 0xC DUP14 SWAP1 SSTORE PUSH1 0xD SWAP2 SWAP1 SWAP2 SSTORE DUP3 MLOAD SWAP1 DUP2 ADD DUP4 MSTORE DUP10 MLOAD DUP1 DUP3 MSTORE DUP11 DUP4 ADD MLOAD DUP3 DUP5 ADD DUP2 SWAP1 MSTORE DUP12 DUP6 ADD MLOAD SWAP3 SWAP1 SWAP5 ADD DUP3 SWAP1 MSTORE PUSH1 0x8 SSTORE PUSH1 0x9 SWAP3 SWAP1 SWAP3 SSTORE PUSH1 0xA SWAP2 SWAP1 SWAP2 SSTORE SWAP3 AND SWAP3 DUP13 AND SWAP3 SWAP1 SWAP3 OR PUSH1 0xFF PUSH1 0xA8 SHL NOT AND PUSH1 0x1 PUSH1 0xA8 SHL DUP8 ISZERO ISZERO MUL OR SWAP1 SWAP2 SSTORE DUP3 MLOAD SWAP1 DUP4 ADD MLOAD PUSH3 0x1F9 DUP3 DUP3 PUSH3 0x47B JUMP JUMPDEST DUP11 PUSH1 0x1 PUSH1 0x1 PUSH1 0xA0 SHL SUB AND PUSH1 0x0 DUP1 MLOAD PUSH1 0x20 PUSH3 0x4D0E DUP4 CODECOPY DUP2 MLOAD SWAP2 MSTORE PUSH1 0x0 DUP5 PUSH1 0x40 MLOAD DUP1 DUP4 PUSH1 0x1 DUP2 GT ISZERO PUSH3 0x227 JUMPI INVALID JUMPDEST PUSH1 0xFF AND DUP2 MSTORE PUSH1 0x20 ADD DUP3 DUP2 MSTORE PUSH1 0x20 ADD SWAP3 POP POP POP PUSH1 0x40 MLOAD DUP1 SWAP2 SUB SWAP1 LOG2 DUP11 PUSH1 0x1 PUSH1 0x1 PUSH1 0xA0 SHL SUB AND PUSH1 0x0 DUP1 MLOAD PUSH1 0x20 PUSH3 0x4D0E DUP4 CODECOPY DUP2 MLOAD SWAP2 MSTORE PUSH1 0x1 DUP4 PUSH1 0x40 MLOAD DUP1 DUP4 PUSH1 0x1 DUP2 GT ISZERO PUSH3 0x26F JUMPI INVALID JUMPDEST PUSH1 0xFF AND DUP2 MSTORE PUSH1 0x20 ADD DUP3 DUP2 MSTORE PUSH1 0x20 ADD SWAP3 POP POP POP PUSH1 0x40 MLOAD DUP1 SWAP2 SUB SWAP1 LOG2 PUSH1 0x0 PUSH3 0x2A5 DUP3 DUP5 PUSH3 0x582 PUSH1 0x20 SHL PUSH3 0x21F7 OR SWAP1 SWAP2 SWAP1 PUSH1 0x20 SHR JUMP JUMPDEST PUSH1 0x13 DUP2 SWAP1 SSTORE DUP5 MLOAD PUSH1 0x20 DUP1 DUP8 ADD MLOAD PUSH1 0x40 DUP1 MLOAD PUSH1 0x60 DUP2 ADD DUP3 MSTORE DUP5 DUP2 MSTORE DUP1 DUP5 ADD DUP4 SWAP1 MSTORE DUP2 DUP11 ADD MLOAD SWAP2 ADD DUP2 SWAP1 MSTORE PUSH1 0xE DUP5 SWAP1 SSTORE PUSH1 0xF DUP3 SWAP1 SSTORE PUSH1 0x10 SSTORE SWAP3 SWAP4 POP SWAP1 SWAP2 SWAP1 PUSH3 0x384 SWAP1 PUSH3 0x2FE SWAP1 DUP5 SWAP1 DUP5 SWAP1 PUSH3 0x582 DUP2 SHL PUSH3 0x21F7 OR SWAP1 SHR JUMP JUMPDEST PUSH20 0x0 PUSH4 0x907AF6C0 PUSH1 0x40 MLOAD DUP2 PUSH4 0xFFFFFFFF AND PUSH1 0xE0 SHL DUP2 MSTORE PUSH1 0x4 ADD PUSH1 0x20 PUSH1 0x40 MLOAD DUP1 DUP4 SUB DUP2 DUP7 DUP1 EXTCODESIZE ISZERO DUP1 ISZERO PUSH3 0x343 JUMPI PUSH1 0x0 DUP1 REVERT JUMPDEST POP GAS DELEGATECALL ISZERO DUP1 ISZERO PUSH3 0x358 JUMPI RETURNDATASIZE PUSH1 0x0 DUP1 RETURNDATACOPY RETURNDATASIZE PUSH1 0x0 REVERT JUMPDEST POP POP POP POP PUSH1 0x40 MLOAD RETURNDATASIZE PUSH1 0x20 DUP2 LT ISZERO PUSH3 0x36F JUMPI PUSH1 0x0 DUP1 REVERT JUMPDEST POP MLOAD SWAP1 PUSH3 0x5E6 PUSH1 0x20 SWAP1 DUP2 SHL PUSH3 0x2BB3 OR SWAP1 SHR JUMP JUMPDEST PUSH1 0x15 SSTORE PUSH3 0x39D DUP6 DUP6 DUP6 PUSH1 0x1 PUSH1 0x1 PUSH1 0xE0 SHL SUB PUSH3 0x644 AND JUMP JUMPDEST DUP14 DUP6 PUSH1 0x40 MLOAD PUSH3 0x3AD SWAP1 PUSH3 0x976 JUMP JUMPDEST PUSH1 0x1 PUSH1 0x1 PUSH1 0xA0 SHL SUB SWAP1 SWAP3 AND DUP3 MSTORE PUSH1 0x20 DUP3 ADD MSTORE PUSH1 0x40 DUP1 MLOAD SWAP2 DUP3 SWAP1 SUB ADD SWAP1 PUSH1 0x0 CREATE DUP1 ISZERO DUP1 ISZERO PUSH3 0x3DF JUMPI RETURNDATASIZE PUSH1 0x0 DUP1 RETURNDATACOPY RETURNDATASIZE PUSH1 0x0 REVERT JUMPDEST POP PUSH1 0x4 DUP1 SLOAD PUSH1 0x1 PUSH1 0x1 PUSH1 0xA0 SHL SUB NOT AND PUSH1 0x1 PUSH1 0x1 PUSH1 0xA0 SHL SUB SWAP3 SWAP1 SWAP3 AND SWAP2 SWAP1 SWAP2 OR SWAP1 SSTORE PUSH1 0x40 MLOAD DUP15 SWAP1 DUP6 SWAP1 PUSH3 0x412 SWAP1 PUSH3 0x976 JUMP JUMPDEST PUSH1 0x1 PUSH1 0x1 PUSH1 0xA0 SHL SUB SWAP1 SWAP3 AND DUP3 MSTORE PUSH1 0x20 DUP3 ADD MSTORE PUSH1 0x40 DUP1 MLOAD SWAP2 DUP3 SWAP1 SUB ADD SWAP1 PUSH1 0x0 CREATE DUP1 ISZERO DUP1 ISZERO PUSH3 0x444 JUMPI RETURNDATASIZE PUSH1 0x0 DUP1 RETURNDATACOPY RETURNDATASIZE PUSH1 0x0 REVERT JUMPDEST POP PUSH1 0x5 DUP1 SLOAD PUSH1 0x1 PUSH1 0x1 PUSH1 0xA0 SHL SUB NOT AND PUSH1 0x1 PUSH1 0x1 PUSH1 0xA0 SHL SUB SWAP3 SWAP1 SWAP3 AND SWAP2 SWAP1 SWAP2 OR SWAP1 SSTORE POP PUSH3 0x984 SWAP14 POP POP POP POP POP POP POP POP POP POP POP POP POP POP JUMP JUMPDEST PUSH1 0x0 PUSH3 0x497 DUP3 DUP5 PUSH3 0x582 PUSH1 0x20 SHL PUSH3 0x21F7 OR SWAP1 SWAP2 SWAP1 PUSH1 0x20 SHR JUMP JUMPDEST SWAP1 POP DUP1 PUSH1 0x11 PUSH1 0x0 ADD SLOAD GT ISZERO PUSH3 0x4F4 JUMPI PUSH1 0x40 DUP1 MLOAD PUSH3 0x461BCD PUSH1 0xE5 SHL DUP2 MSTORE PUSH1 0x20 PUSH1 0x4 DUP3 ADD MSTORE PUSH1 0x14 PUSH1 0x24 DUP3 ADD MSTORE PUSH32 0x496E73756666696369656E74206361706974616C000000000000000000000000 PUSH1 0x44 DUP3 ADD MSTORE SWAP1 MLOAD SWAP1 DUP2 SWAP1 SUB PUSH1 0x64 ADD SWAP1 REVERT JUMPDEST PUSH1 0x12 SLOAD PUSH3 0x50F DUP5 DUP4 PUSH3 0x6BE PUSH1 0x20 SWAP1 DUP2 SHL PUSH3 0x3004 OR SWAP1 SHR JUMP JUMPDEST DUP2 GT ISZERO DUP1 ISZERO PUSH3 0x538 JUMPI POP PUSH3 0x534 DUP3 DUP5 PUSH3 0x6BE PUSH1 0x20 SHL PUSH3 0x3004 OR SWAP1 SWAP2 SWAP1 PUSH1 0x20 SHR JUMP JUMPDEST DUP2 GT ISZERO JUMPDEST PUSH3 0x57C JUMPI PUSH1 0x40 DUP1 MLOAD PUSH3 0x461BCD PUSH1 0xE5 SHL DUP2 MSTORE PUSH1 0x20 PUSH1 0x4 DUP3 ADD MSTORE PUSH1 0xF PUSH1 0x24 DUP3 ADD MSTORE PUSH15 0x109A591CC81D1BDBC81CDAD95DD959 PUSH1 0x8A SHL PUSH1 0x44 DUP3 ADD MSTORE SWAP1 MLOAD SWAP1 DUP2 SWAP1 SUB PUSH1 0x64 ADD SWAP1 REVERT JUMPDEST POP POP POP POP JUMP JUMPDEST PUSH1 0x0 DUP3 DUP3 ADD DUP4 DUP2 LT ISZERO PUSH3 0x5DD JUMPI PUSH1 0x40 DUP1 MLOAD PUSH3 0x461BCD PUSH1 0xE5 SHL DUP2 MSTORE PUSH1 0x20 PUSH1 0x4 DUP3 ADD MSTORE PUSH1 0x1B PUSH1 0x24 DUP3 ADD MSTORE PUSH32 0x536166654D6174683A206164646974696F6E206F766572666C6F770000000000 PUSH1 0x44 DUP3 ADD MSTORE SWAP1 MLOAD SWAP1 DUP2 SWAP1 SUB PUSH1 0x64 ADD SWAP1 REVERT JUMPDEST SWAP1 POP JUMPDEST SWAP3 SWAP2 POP POP JUMP JUMPDEST PUSH1 0x0 DUP3 DUP3 GT ISZERO PUSH3 0x63E JUMPI PUSH1 0x40 DUP1 MLOAD PUSH3 0x461BCD PUSH1 0xE5 SHL DUP2 MSTORE PUSH1 0x20 PUSH1 0x4 DUP3 ADD MSTORE PUSH1 0x1E PUSH1 0x24 DUP3 ADD MSTORE PUSH32 0x536166654D6174683A207375627472616374696F6E206F766572666C6F770000 PUSH1 0x44 DUP3 ADD MSTORE SWAP1 MLOAD SWAP1 DUP2 SWAP1 SUB PUSH1 0x64 ADD SWAP1 REVERT JUMPDEST POP SWAP1 SUB SWAP1 JUMP JUMPDEST PUSH1 0x0 DUP1 PUSH3 0x65D DUP6 DUP6 DUP6 PUSH1 0x1 PUSH1 0x1 PUSH1 0xE0 SHL SUB PUSH3 0x6F9 AND JUMP JUMPDEST PUSH1 0x40 DUP1 MLOAD DUP1 DUP3 ADD DUP3 MSTORE DUP4 DUP2 MSTORE PUSH1 0x20 SWAP1 DUP2 ADD DUP4 SWAP1 MSTORE PUSH1 0x6 DUP5 SWAP1 SSTORE PUSH1 0x7 DUP4 SWAP1 SSTORE DUP2 MLOAD DUP5 DUP2 MSTORE SWAP1 DUP2 ADD DUP4 SWAP1 MSTORE DUP2 MLOAD SWAP4 SWAP6 POP SWAP2 SWAP4 POP PUSH32 0x6546F60F34DF611FA42503098ACC39D5AB88BC73FEBE64B3CC14E5A92E3A66A7 SWAP3 SWAP2 DUP3 SWAP1 SUB ADD SWAP1 LOG1 POP POP POP POP POP JUMP JUMPDEST PUSH1 0x0 PUSH3 0x5DD DUP3 PUSH3 0x6E5 DUP6 PUSH8 0xDE0B6B3A7640000 PUSH3 0x7B6 PUSH1 0x20 SWAP1 DUP2 SHL PUSH3 0x3054 OR SWAP1 SHR JUMP JUMPDEST PUSH3 0x814 PUSH1 0x20 SHL PUSH3 0x30AD OR SWAP1 SWAP2 SWAP1 PUSH1 0x20 SHR JUMP JUMPDEST PUSH1 0x0 DUP1 DUP5 ISZERO DUP1 ISZERO SWAP1 PUSH3 0x70B JUMPI POP DUP4 ISZERO ISZERO JUMPDEST PUSH3 0x75D JUMPI PUSH1 0x40 DUP1 MLOAD PUSH3 0x461BCD PUSH1 0xE5 SHL DUP2 MSTORE PUSH1 0x20 PUSH1 0x4 DUP3 ADD MSTORE PUSH1 0x14 PUSH1 0x24 DUP3 ADD MSTORE PUSH32 0x42696473206D757374206265206E6F6E7A65726F000000000000000000000000 PUSH1 0x44 DUP3 ADD MSTORE SWAP1 MLOAD SWAP1 DUP2 SWAP1 SUB PUSH1 0x64 ADD SWAP1 REVERT JUMPDEST PUSH1 0x0 PUSH3 0x773 DUP5 PUSH1 0x1 PUSH1 0x1 PUSH1 0xE0 SHL SUB PUSH3 0x880 AND JUMP JUMPDEST SWAP1 POP PUSH3 0x78F DUP2 DUP8 PUSH3 0x8BB PUSH1 0x20 SHL PUSH3 0x2E27 OR SWAP1 SWAP2 SWAP1 PUSH1 0x20 SHR JUMP JUMPDEST PUSH3 0x7A9 DUP3 DUP8 PUSH3 0x8BB PUSH1 0x20 SHL PUSH3 0x2E27 OR SWAP1 SWAP2 SWAP1 PUSH1 0x20 SHR JUMP JUMPDEST SWAP3 POP SWAP3 POP POP SWAP4 POP SWAP4 SWAP2 POP POP JUMP JUMPDEST PUSH1 0x0 DUP3 PUSH3 0x7C7 JUMPI POP PUSH1 0x0 PUSH3 0x5E0 JUMP JUMPDEST DUP3 DUP3 MUL DUP3 DUP5 DUP3 DUP2 PUSH3 0x7D5 JUMPI INVALID JUMPDEST DIV EQ PUSH3 0x5DD JUMPI PUSH1 0x40 MLOAD PUSH3 0x461BCD PUSH1 0xE5 SHL DUP2 MSTORE PUSH1 0x4 ADD DUP1 DUP1 PUSH1 0x20 ADD DUP3 DUP2 SUB DUP3 MSTORE PUSH1 0x21 DUP2 MSTORE PUSH1 0x20 ADD DUP1 PUSH3 0x4CED PUSH1 0x21 SWAP2 CODECOPY PUSH1 0x40 ADD SWAP2 POP POP PUSH1 0x40 MLOAD DUP1 SWAP2 SUB SWAP1 REVERT JUMPDEST PUSH1 0x0 DUP1 DUP3 GT PUSH3 0x86B JUMPI PUSH1 0x40 DUP1 MLOAD PUSH3 0x461BCD PUSH1 0xE5 SHL DUP2 MSTORE PUSH1 0x20 PUSH1 0x4 DUP3 ADD MSTORE PUSH1 0x1A PUSH1 0x24 DUP3 ADD MSTORE PUSH32 0x536166654D6174683A206469766973696F6E206279207A65726F000000000000 PUSH1 0x44 DUP3 ADD MSTORE SWAP1 MLOAD SWAP1 DUP2 SWAP1 SUB PUSH1 0x64 ADD SWAP1 REVERT JUMPDEST PUSH1 0x0 DUP3 DUP5 DUP2 PUSH3 0x877 JUMPI INVALID JUMPDEST DIV SWAP5 SWAP4 POP POP POP POP JUMP JUMPDEST PUSH1 0x14 SLOAD PUSH1 0x0 SWAP1 PUSH1 0x1 PUSH1 0xA0 SHL SWAP1 DIV PUSH1 0xFF AND PUSH3 0x8B7 JUMPI PUSH3 0x8B1 PUSH1 0x15 SLOAD DUP4 PUSH3 0x8DB PUSH1 0x20 SHL PUSH3 0x21DB OR SWAP1 SWAP2 SWAP1 PUSH1 0x20 SHR JUMP JUMPDEST PUSH3 0x5E0 JUMP JUMPDEST POP SWAP1 JUMP JUMPDEST PUSH1 0x0 PUSH3 0x5DD DUP4 DUP4 PUSH8 0xDE0B6B3A7640000 PUSH1 0x1 PUSH1 0x1 PUSH1 0xE0 SHL SUB PUSH3 0x8FB AND JUMP JUMPDEST PUSH1 0x0 PUSH3 0x5DD DUP4 DUP4 PUSH8 0xDE0B6B3A7640000 PUSH1 0x1 PUSH1 0x1 PUSH1 0xE0 SHL SUB PUSH3 0x93F AND JUMP JUMPDEST PUSH1 0x0 DUP1 PUSH3 0x920 DUP5 PUSH3 0x6E5 DUP6 PUSH1 0xA MUL DUP9 PUSH3 0x7B6 PUSH1 0x20 SHL PUSH3 0x3054 OR SWAP1 SWAP2 SWAP1 PUSH1 0x20 SHR JUMP JUMPDEST SWAP1 POP PUSH1 0x5 PUSH1 0xA DUP3 JUMPDEST MOD LT PUSH3 0x933 JUMPI PUSH1 0xA ADD JUMPDEST PUSH1 0xA SWAP1 DIV SWAP5 SWAP4 POP POP POP POP JUMP JUMPDEST PUSH1 0x0 DUP1 PUSH1 0xA DUP4 DIV PUSH3 0x960 DUP6 DUP8 PUSH3 0x7B6 PUSH1 0x20 SHL PUSH3 0x3054 OR SWAP1 SWAP2 SWAP1 PUSH1 0x20 SHR JUMP JUMPDEST DUP2 PUSH3 0x968 JUMPI INVALID JUMPDEST DIV SWAP1 POP PUSH1 0x5 PUSH1 0xA DUP3 PUSH3 0x928 JUMP JUMPDEST PUSH2 0x114A DUP1 PUSH3 0x3BA3 DUP4 CODECOPY ADD SWAP1 JUMP JUMPDEST PUSH2 0x320F DUP1 PUSH3 0x994 PUSH1 0x0 CODECOPY PUSH1 0x0 RETURN INVALID PUSH1 0x80 PUSH1 0x40 MSTORE CALLVALUE DUP1 ISZERO PUSH2 0x10 JUMPI PUSH1 0x0 DUP1 REVERT JUMPDEST POP PUSH1 0x4 CALLDATASIZE LT PUSH2 0x248 JUMPI PUSH1 0x0 CALLDATALOAD PUSH1 0xE0 SHR DUP1 PUSH4 0x85149258 GT PUSH2 0x13B JUMPI DUP1 PUSH4 0xBE5AF9FE GT PUSH2 0xB8 JUMPI DUP1 PUSH4 0xD3419BF3 GT PUSH2 0x7C JUMPI DUP1 PUSH4 0xD3419BF3 EQ PUSH2 0x55C JUMPI DUP1 PUSH4 0xDBEA3638 EQ PUSH2 0x564 JUMPI DUP1 PUSH4 0xE4CFBDBD EQ PUSH2 0x58A JUMPI DUP1 PUSH4 0xEEF49EE3 EQ PUSH2 0x5C2 JUMPI DUP1 PUSH4 0xFD087EE5 EQ PUSH2 0x5CA JUMPI PUSH2 0x248 JUMP JUMPDEST DUP1 PUSH4 0xBE5AF9FE EQ PUSH2 0x516 JUMPI DUP1 PUSH4 0xC588F526 EQ PUSH2 0x51E JUMPI DUP1 PUSH4 0xC7A5BDC8 EQ PUSH2 0x526 JUMPI DUP1 PUSH4 0xC8DB233E EQ PUSH2 0x52E JUMPI DUP1 PUSH4 0xD068CDC5 EQ PUSH2 0x554 JUMPI PUSH2 0x248 JUMP JUMPDEST DUP1 PUSH4 0x9AF1D35A GT PUSH2 0xFF JUMPI DUP1 PUSH4 0x9AF1D35A EQ PUSH2 0x4C0 JUMPI DUP1 PUSH4 0x9E3B34BF EQ PUSH2 0x4C8 JUMPI DUP1 PUSH4 0xAC3791E3 EQ PUSH2 0x4D0 JUMPI DUP1 PUSH4 0xB1C9FE6E EQ PUSH2 0x4D8 JUMPI DUP1 PUSH4 0xB634BFBC EQ PUSH2 0x4F0 JUMPI PUSH2 0x248 JUMP JUMPDEST DUP1 PUSH4 0x85149258 EQ PUSH2 0x42A JUMPI DUP1 PUSH4 0x899FFEF4 EQ PUSH2 0x432 JUMPI DUP1 PUSH4 0x8B034136 EQ PUSH2 0x48A JUMPI DUP1 PUSH4 0x8DA5CB5B EQ PUSH2 0x492 JUMPI DUP1 PUSH4 0x98508ECD EQ PUSH2 0x49A JUMPI PUSH2 0x248 JUMP JUMPDEST DUP1 PUSH4 0x3DAE89EB GT PUSH2 0x1C9 JUMPI DUP1 PUSH4 0x53A47BB7 GT PUSH2 0x18D JUMPI DUP1 PUSH4 0x53A47BB7 EQ PUSH2 0x3C0 JUMPI DUP1 PUSH4 0x6392A51F EQ PUSH2 0x3C8 JUMPI DUP1 PUSH4 0x65372147 EQ PUSH2 0x3EE JUMPI DUP1 PUSH4 0x74185360 EQ PUSH2 0x41A JUMPI DUP1 PUSH4 0x79BA5097 EQ PUSH2 0x422 JUMPI PUSH2 0x248 JUMP JUMPDEST DUP1 PUSH4 0x3DAE89EB EQ PUSH2 0x35C JUMPI DUP1 PUSH4 0x3F6FA655 EQ PUSH2 0x364 JUMPI DUP1 PUSH4 0x408E82AF EQ PUSH2 0x36C JUMPI DUP1 PUSH4 0x4C33FE94 EQ PUSH2 0x392 JUMPI DUP1 PUSH4 0x532F1179 EQ PUSH2 0x3B8 JUMPI PUSH2 0x248 JUMP JUMPDEST DUP1 PUSH4 0x27745BAE GT PUSH2 0x210 JUMPI DUP1 PUSH4 0x27745BAE EQ PUSH2 0x2E9 JUMPI DUP1 PUSH4 0x2810E1D6 EQ PUSH2 0x2F1 JUMPI DUP1 PUSH4 0x29E77B5D EQ PUSH2 0x2F9 JUMPI DUP1 PUSH4 0x2AF64BD3 EQ PUSH2 0x338 JUMPI DUP1 PUSH4 0x3D7A783B EQ PUSH2 0x354 JUMPI PUSH2 0x248 JUMP JUMPDEST DUP1 PUSH4 0x2D05D3F EQ PUSH2 0x24D JUMPI DUP1 PUSH4 0x4F3BCEC EQ PUSH2 0x271 JUMPI DUP1 PUSH4 0x1069143A EQ PUSH2 0x279 JUMPI DUP1 PUSH4 0x1627540C EQ PUSH2 0x2A7 JUMPI DUP1 PUSH4 0x2115E303 EQ PUSH2 0x2CF JUMPI JUMPDEST PUSH1 0x0 DUP1 REVERT JUMPDEST PUSH2 0x255 PUSH2 0x5F8 JUMP JUMPDEST PUSH1 0x40 DUP1 MLOAD PUSH1 0x1 PUSH1 0x1 PUSH1 0xA0 SHL SUB SWAP1 SWAP3 AND DUP3 MSTORE MLOAD SWAP1 DUP2 SWAP1 SUB PUSH1 0x20 ADD SWAP1 RETURN JUMPDEST PUSH2 0x255 PUSH2 0x607 JUMP JUMPDEST PUSH2 0x281 PUSH2 0x616 JUMP JUMPDEST PUSH1 0x40 DUP1 MLOAD PUSH1 0x1 PUSH1 0x1 PUSH1 0xA0 SHL SUB SWAP4 DUP5 AND DUP2 MSTORE SWAP2 SWAP1 SWAP3 AND PUSH1 0x20 DUP3 ADD MSTORE DUP2 MLOAD SWAP1 DUP2 SWAP1 SUB SWAP1 SWAP2 ADD SWAP1 RETURN JUMPDEST PUSH2 0x2CD PUSH1 0x4 DUP1 CALLDATASIZE SUB PUSH1 0x20 DUP2 LT ISZERO PUSH2 0x2BD JUMPI PUSH1 0x0 DUP1 REVERT JUMPDEST POP CALLDATALOAD PUSH1 0x1 PUSH1 0x1 PUSH1 0xA0 SHL SUB AND PUSH2 0x62C JUMP JUMPDEST STOP JUMPDEST PUSH2 0x2D7 PUSH2 0x688 JUMP JUMPDEST PUSH1 0x40 DUP1 MLOAD SWAP2 DUP3 MSTORE MLOAD SWAP1 DUP2 SWAP1 SUB PUSH1 0x20 ADD SWAP1 RETURN JUMPDEST PUSH2 0x2CD PUSH2 0x69B JUMP JUMPDEST PUSH2 0x2CD PUSH2 0x6FD JUMP JUMPDEST PUSH2 0x31F PUSH1 0x4 DUP1 CALLDATASIZE SUB PUSH1 0x20 DUP2 LT ISZERO PUSH2 0x30F JUMPI PUSH1 0x0 DUP1 REVERT JUMPDEST POP CALLDATALOAD PUSH1 0x1 PUSH1 0x1 PUSH1 0xA0 SHL SUB AND PUSH2 0xAD1 JUMP JUMPDEST PUSH1 0x40 DUP1 MLOAD SWAP3 DUP4 MSTORE PUSH1 0x20 DUP4 ADD SWAP2 SWAP1 SWAP2 MSTORE DUP1 MLOAD SWAP2 DUP3 SWAP1 SUB ADD SWAP1 RETURN JUMPDEST PUSH2 0x340 PUSH2 0xAE6 JUMP JUMPDEST PUSH1 0x40 DUP1 MLOAD SWAP2 ISZERO ISZERO DUP3 MSTORE MLOAD SWAP1 DUP2 SWAP1 SUB PUSH1 0x20 ADD SWAP1 RETURN JUMPDEST PUSH2 0x31F PUSH2 0xBF0 JUMP JUMPDEST PUSH2 0x31F PUSH2 0xCDB JUMP JUMPDEST PUSH2 0x340 PUSH2 0xCEE JUMP JUMPDEST PUSH2 0x31F PUSH1 0x4 DUP1 CALLDATASIZE SUB PUSH1 0x20 DUP2 LT ISZERO PUSH2 0x382 JUMPI PUSH1 0x0 DUP1 REVERT JUMPDEST POP CALLDATALOAD PUSH1 0x1 PUSH1 0x1 PUSH1 0xA0 SHL SUB AND PUSH2 0xCFE JUMP JUMPDEST PUSH2 0x2CD PUSH1 0x4 DUP1 CALLDATASIZE SUB PUSH1 0x20 DUP2 LT ISZERO PUSH2 0x3A8 JUMPI PUSH1 0x0 DUP1 REVERT JUMPDEST POP CALLDATALOAD PUSH1 0x1 PUSH1 0x1 PUSH1 0xA0 SHL SUB AND PUSH2 0xD0A JUMP JUMPDEST PUSH2 0x340 PUSH2 0xDF4 JUMP JUMPDEST PUSH2 0x255 PUSH2 0xE04 JUMP JUMPDEST PUSH2 0x31F PUSH1 0x4 DUP1 CALLDATASIZE SUB PUSH1 0x20 DUP2 LT ISZERO PUSH2 0x3DE JUMPI PUSH1 0x0 DUP1 REVERT JUMPDEST POP CALLDATALOAD PUSH1 0x1 PUSH1 0x1 PUSH1 0xA0 SHL SUB AND PUSH2 0xE13 JUMP JUMPDEST PUSH2 0x3F6 PUSH2 0xE1F JUMP JUMPDEST PUSH1 0x40 MLOAD DUP1 DUP3 PUSH1 0x1 DUP2 GT ISZERO PUSH2 0x406 JUMPI INVALID JUMPDEST PUSH1 0xFF AND DUP2 MSTORE PUSH1 0x20 ADD SWAP2 POP POP PUSH1 0x40 MLOAD DUP1 SWAP2 SUB SWAP1 RETURN JUMPDEST PUSH2 0x2CD PUSH2 0xE29 JUMP JUMPDEST PUSH2 0x2CD PUSH2 0xFF1 JUMP JUMPDEST PUSH2 0x2D7 PUSH2 0x10AD JUMP JUMPDEST PUSH2 0x43A PUSH2 0x139E JUMP JUMPDEST PUSH1 0x40 DUP1 MLOAD PUSH1 0x20 DUP1 DUP3 MSTORE DUP4 MLOAD DUP2 DUP4 ADD MSTORE DUP4 MLOAD SWAP2 SWAP3 DUP4 SWAP3 SWAP1 DUP4 ADD SWAP2 DUP6 DUP2 ADD SWAP2 MUL DUP1 DUP4 DUP4 PUSH1 0x0 JUMPDEST DUP4 DUP2 LT ISZERO PUSH2 0x476 JUMPI DUP2 DUP2 ADD MLOAD DUP4 DUP3 ADD MSTORE PUSH1 0x20 ADD PUSH2 0x45E JUMP JUMPDEST POP POP POP POP SWAP1 POP ADD SWAP3 POP POP POP PUSH1 0x40 MLOAD DUP1 SWAP2 SUB SWAP1 RETURN JUMPDEST PUSH2 0x31F PUSH2 0x1461 JUMP JUMPDEST PUSH2 0x255 PUSH2 0x146C JUMP JUMPDEST PUSH2 0x4A2 PUSH2 0x147B JUMP JUMPDEST PUSH1 0x40 DUP1 MLOAD SWAP4 DUP5 MSTORE PUSH1 0x20 DUP5 ADD SWAP3 SWAP1 SWAP3 MSTORE DUP3 DUP3 ADD MSTORE MLOAD SWAP1 DUP2 SWAP1 SUB PUSH1 0x60 ADD SWAP1 RETURN JUMPDEST PUSH2 0x4A2 PUSH2 0x1487 JUMP JUMPDEST PUSH2 0x4A2 PUSH2 0x1493 JUMP JUMPDEST PUSH2 0x340 PUSH2 0x149F JUMP JUMPDEST PUSH2 0x4E0 PUSH2 0x14E2 JUMP JUMPDEST PUSH1 0x40 MLOAD DUP1 DUP3 PUSH1 0x3 DUP2 GT ISZERO PUSH2 0x406 JUMPI INVALID JUMPDEST PUSH2 0x2D7 PUSH1 0x4 DUP1 CALLDATASIZE SUB PUSH1 0x40 DUP2 LT ISZERO PUSH2 0x506 JUMPI PUSH1 0x0 DUP1 REVERT JUMPDEST POP PUSH1 0xFF DUP2 CALLDATALOAD AND SWAP1 PUSH1 0x20 ADD CALLDATALOAD PUSH2 0x1526 JUMP JUMPDEST PUSH2 0x31F PUSH2 0x186D JUMP JUMPDEST PUSH2 0x31F PUSH2 0x1876 JUMP JUMPDEST PUSH2 0x31F PUSH2 0x1945 JUMP JUMPDEST PUSH2 0x2CD PUSH1 0x4 DUP1 CALLDATASIZE SUB PUSH1 0x20 DUP2 LT ISZERO PUSH2 0x544 JUMPI PUSH1 0x0 DUP1 REVERT JUMPDEST POP CALLDATALOAD PUSH1 0x1 PUSH1 0x1 PUSH1 0xA0 SHL SUB AND PUSH2 0x1950 JUMP JUMPDEST PUSH2 0x31F PUSH2 0x19BD JUMP JUMPDEST PUSH2 0x31F PUSH2 0x1A72 JUMP JUMPDEST PUSH2 0x2CD PUSH1 0x4 DUP1 CALLDATASIZE SUB PUSH1 0x40 DUP2 LT ISZERO PUSH2 0x57A JUMPI PUSH1 0x0 DUP1 REVERT JUMPDEST POP PUSH1 0xFF DUP2 CALLDATALOAD AND SWAP1 PUSH1 0x20 ADD CALLDATALOAD PUSH2 0x1A7B JUMP JUMPDEST PUSH2 0x2D7 PUSH1 0x4 DUP1 CALLDATASIZE SUB PUSH1 0x80 DUP2 LT ISZERO PUSH2 0x5A0 JUMPI PUSH1 0x0 DUP1 REVERT JUMPDEST POP PUSH1 0xFF DUP2 CALLDATALOAD DUP2 AND SWAP2 PUSH1 0x20 DUP2 ADD CALLDATALOAD SWAP1 SWAP2 AND SWAP1 PUSH1 0x40 DUP2 ADD CALLDATALOAD SWAP1 PUSH1 0x60 ADD CALLDATALOAD ISZERO ISZERO PUSH2 0x1C64 JUMP JUMPDEST PUSH2 0x2D7 PUSH2 0x1E65 JUMP JUMPDEST PUSH2 0x31F PUSH1 0x4 DUP1 CALLDATASIZE SUB PUSH1 0x60 DUP2 LT ISZERO PUSH2 0x5E0 JUMPI PUSH1 0x0 DUP1 REVERT JUMPDEST POP PUSH1 0xFF DUP2 CALLDATALOAD AND SWAP1 PUSH1 0x20 DUP2 ADD CALLDATALOAD SWAP1 PUSH1 0x40 ADD CALLDATALOAD ISZERO ISZERO PUSH2 0x1E6B JUMP JUMPDEST PUSH1 0x14 SLOAD PUSH1 0x1 PUSH1 0x1 PUSH1 0xA0 SHL SUB AND DUP2 JUMP JUMPDEST PUSH1 0x2 SLOAD PUSH1 0x1 PUSH1 0x1 PUSH1 0xA0 SHL SUB AND DUP2 JUMP JUMPDEST PUSH1 0x4 SLOAD PUSH1 0x5 SLOAD PUSH1 0x1 PUSH1 0x1 PUSH1 0xA0 SHL SUB SWAP2 DUP3 AND SWAP2 AND DUP3 JUMP JUMPDEST PUSH2 0x634 PUSH2 0x1F5C JUMP JUMPDEST PUSH1 0x1 DUP1 SLOAD PUSH1 0x1 PUSH1 0x1 PUSH1 0xA0 SHL SUB DUP4 AND PUSH1 0x1 PUSH1 0x1 PUSH1 0xA0 SHL SUB NOT SWAP1 SWAP2 AND DUP2 OR SWAP1 SWAP2 SSTORE PUSH1 0x40 DUP1 MLOAD SWAP2 DUP3 MSTORE MLOAD PUSH32 0x906A1C6BD7E3091EA86693DD029A831C19049CE77F1DCE2CE0BAB1CACBABCE22 SWAP2 DUP2 SWAP1 SUB PUSH1 0x20 ADD SWAP1 LOG1 POP JUMP JUMPDEST PUSH1 0x0 PUSH2 0x695 PUSH1 0x13 SLOAD PUSH2 0x1FA5 JUMP JUMPDEST SWAP1 POP JUMPDEST SWAP1 JUMP JUMPDEST PUSH2 0x6A3 PUSH2 0x1FDC JUMP JUMPDEST PUSH1 0x1 PUSH1 0x1 PUSH1 0xA0 SHL SUB AND PUSH4 0x86DABD1 PUSH1 0x40 MLOAD DUP2 PUSH4 0xFFFFFFFF AND PUSH1 0xE0 SHL DUP2 MSTORE PUSH1 0x4 ADD PUSH1 0x0 PUSH1 0x40 MLOAD DUP1 DUP4 SUB DUP2 DUP7 DUP1 EXTCODESIZE ISZERO DUP1 ISZERO PUSH2 0x6DB JUMPI PUSH1 0x0 DUP1 REVERT JUMPDEST POP GAS STATICCALL ISZERO DUP1 ISZERO PUSH2 0x6EF JUMPI RETURNDATASIZE PUSH1 0x0 DUP1 RETURNDATACOPY RETURNDATASIZE PUSH1 0x0 REVERT JUMPDEST POP POP POP POP PUSH2 0x6FB PUSH2 0x1FF6 JUMP JUMPDEST JUMP JUMPDEST PUSH2 0x705 PUSH2 0x1F5C JUMP JUMPDEST PUSH2 0x70D PUSH2 0x209E JUMP JUMPDEST PUSH2 0x74F JUMPI PUSH1 0x40 DUP1 MLOAD PUSH3 0x461BCD PUSH1 0xE5 SHL DUP2 MSTORE PUSH1 0x20 PUSH1 0x4 DUP3 ADD MSTORE PUSH1 0xE PUSH1 0x24 DUP3 ADD MSTORE PUSH14 0x4E6F7420796574206D6174757265 PUSH1 0x90 SHL PUSH1 0x44 DUP3 ADD MSTORE SWAP1 MLOAD SWAP1 DUP2 SWAP1 SUB PUSH1 0x64 ADD SWAP1 REVERT JUMPDEST PUSH2 0x757 PUSH2 0x1FDC JUMP JUMPDEST PUSH1 0x1 PUSH1 0x1 PUSH1 0xA0 SHL SUB AND PUSH4 0x86DABD1 PUSH1 0x40 MLOAD DUP2 PUSH4 0xFFFFFFFF AND PUSH1 0xE0 SHL DUP2 MSTORE PUSH1 0x4 ADD PUSH1 0x0 PUSH1 0x40 MLOAD DUP1 DUP4 SUB DUP2 DUP7 DUP1 EXTCODESIZE ISZERO DUP1 ISZERO PUSH2 0x78F JUMPI PUSH1 0x0 DUP1 REVERT JUMPDEST POP GAS STATICCALL ISZERO DUP1 ISZERO PUSH2 0x7A3 JUMPI RETURNDATASIZE PUSH1 0x0 DUP1 RETURNDATACOPY RETURNDATASIZE PUSH1 0x0 REVERT JUMPDEST POP POP POP POP PUSH2 0x7AF PUSH2 0x1FF6 JUMP JUMPDEST PUSH1 0x14 SLOAD PUSH1 0x1 PUSH1 0xA0 SHL SWAP1 DIV PUSH1 0xFF AND ISZERO PUSH2 0x80E JUMPI PUSH1 0x40 DUP1 MLOAD PUSH3 0x461BCD PUSH1 0xE5 SHL DUP2 MSTORE PUSH1 0x20 PUSH1 0x4 DUP3 ADD MSTORE PUSH1 0x17 PUSH1 0x24 DUP3 ADD MSTORE PUSH32 0x4D61726B657420616C7265616479207265736F6C766564000000000000000000 PUSH1 0x44 DUP3 ADD MSTORE SWAP1 MLOAD SWAP1 DUP2 SWAP1 SUB PUSH1 0x64 ADD SWAP1 REVERT JUMPDEST PUSH1 0x0 DUP1 PUSH2 0x819 PUSH2 0x20A6 JUMP JUMPDEST SWAP2 POP SWAP2 POP PUSH2 0x826 DUP2 PUSH2 0x2134 JUMP JUMPDEST PUSH2 0x868 JUMPI PUSH1 0x40 DUP1 MLOAD PUSH3 0x461BCD PUSH1 0xE5 SHL DUP2 MSTORE PUSH1 0x20 PUSH1 0x4 DUP3 ADD MSTORE PUSH1 0xE PUSH1 0x24 DUP3 ADD MSTORE PUSH14 0x5072696365206973207374616C65 PUSH1 0x90 SHL PUSH1 0x44 DUP3 ADD MSTORE SWAP1 MLOAD SWAP1 DUP2 SWAP1 SUB PUSH1 0x64 ADD SWAP1 REVERT JUMPDEST PUSH1 0xD DUP3 SWAP1 SSTORE PUSH1 0x14 DUP1 SLOAD PUSH1 0xFF PUSH1 0xA0 SHL NOT AND PUSH1 0x1 PUSH1 0xA0 SHL OR SWAP1 SSTORE PUSH1 0x0 PUSH2 0x88A PUSH2 0x21C4 JUMP JUMPDEST PUSH1 0x13 SLOAD PUSH1 0xE SLOAD SWAP2 SWAP3 POP SWAP1 PUSH1 0x0 SWAP1 PUSH2 0x8A8 SWAP1 DUP4 SWAP1 PUSH4 0xFFFFFFFF PUSH2 0x21DB AND JUMP JUMPDEST PUSH1 0xF SLOAD SWAP1 SWAP2 POP PUSH1 0x0 SWAP1 PUSH2 0x8C2 SWAP1 DUP5 SWAP1 PUSH4 0xFFFFFFFF PUSH2 0x21DB AND JUMP JUMPDEST SWAP1 POP PUSH2 0x8DC PUSH2 0x8D7 DUP3 DUP5 PUSH4 0xFFFFFFFF PUSH2 0x21F7 AND JUMP JUMPDEST PUSH2 0x2251 JUMP JUMPDEST POP DUP4 PUSH1 0x1 PUSH1 0x1 PUSH1 0xA0 SHL SUB AND PUSH4 0xA9059CBB PUSH2 0x8F4 PUSH2 0x22D8 JUMP JUMPDEST PUSH1 0x1 PUSH1 0x1 PUSH1 0xA0 SHL SUB AND PUSH4 0xEB1EDD61 PUSH1 0x40 MLOAD DUP2 PUSH4 0xFFFFFFFF AND PUSH1 0xE0 SHL DUP2 MSTORE PUSH1 0x4 ADD PUSH1 0x20 PUSH1 0x40 MLOAD DUP1 DUP4 SUB DUP2 DUP7 DUP1 EXTCODESIZE ISZERO DUP1 ISZERO PUSH2 0x92C JUMPI PUSH1 0x0 DUP1 REVERT JUMPDEST POP GAS STATICCALL ISZERO DUP1 ISZERO PUSH2 0x940 JUMPI RETURNDATASIZE PUSH1 0x0 DUP1 RETURNDATACOPY RETURNDATASIZE PUSH1 0x0 REVERT JUMPDEST POP POP POP POP PUSH1 0x40 MLOAD RETURNDATASIZE PUSH1 0x20 DUP2 LT ISZERO PUSH2 0x956 JUMPI PUSH1 0x0 DUP1 REVERT JUMPDEST POP MLOAD PUSH1 0x40 DUP1 MLOAD PUSH1 0x1 PUSH1 0x1 PUSH1 0xE0 SHL SUB NOT PUSH1 0xE0 DUP6 SWAP1 SHL AND DUP2 MSTORE PUSH1 0x1 PUSH1 0x1 PUSH1 0xA0 SHL SUB SWAP1 SWAP3 AND PUSH1 0x4 DUP4 ADD MSTORE PUSH1 0x24 DUP3 ADD DUP7 SWAP1 MSTORE MLOAD PUSH1 0x44 DUP1 DUP4 ADD SWAP3 PUSH1 0x20 SWAP3 SWAP2 SWAP1 DUP3 SWAP1 SUB ADD DUP2 PUSH1 0x0 DUP8 DUP1 EXTCODESIZE ISZERO DUP1 ISZERO PUSH2 0x9A6 JUMPI PUSH1 0x0 DUP1 REVERT JUMPDEST POP GAS CALL ISZERO DUP1 ISZERO PUSH2 0x9BA JUMPI RETURNDATASIZE PUSH1 0x0 DUP1 RETURNDATACOPY RETURNDATASIZE PUSH1 0x0 REVERT JUMPDEST POP POP POP POP PUSH1 0x40 MLOAD RETURNDATASIZE PUSH1 0x20 DUP2 LT ISZERO PUSH2 0x9D0 JUMPI PUSH1 0x0 DUP1 REVERT JUMPDEST POP POP PUSH1 0x14 SLOAD PUSH1 0x40 DUP1 MLOAD PUSH4 0xA9059CBB PUSH1 0xE0 SHL DUP2 MSTORE PUSH1 0x1 PUSH1 0x1 PUSH1 0xA0 SHL SUB SWAP3 DUP4 AND PUSH1 0x4 DUP3 ADD MSTORE PUSH1 0x24 DUP2 ADD DUP5 SWAP1 MSTORE SWAP1 MLOAD SWAP2 DUP7 AND SWAP2 PUSH4 0xA9059CBB SWAP2 PUSH1 0x44 DUP1 DUP3 ADD SWAP3 PUSH1 0x20 SWAP3 SWAP1 SWAP2 SWAP1 DUP3 SWAP1 SUB ADD DUP2 PUSH1 0x0 DUP8 DUP1 EXTCODESIZE ISZERO DUP1 ISZERO PUSH2 0xA28 JUMPI PUSH1 0x0 DUP1 REVERT JUMPDEST POP GAS CALL ISZERO DUP1 ISZERO PUSH2 0xA3C JUMPI RETURNDATASIZE PUSH1 0x0 DUP1 RETURNDATACOPY RETURNDATASIZE PUSH1 0x0 REVERT JUMPDEST POP POP POP POP PUSH1 0x40 MLOAD RETURNDATASIZE PUSH1 0x20 DUP2 LT ISZERO PUSH2 0xA52 JUMPI PUSH1 0x0 DUP1 REVERT JUMPDEST POP PUSH32 0x5528B7E06F48A519CF814C4E5293EE2737C3F5C28D93E30CCA112AC649FDD235 SWAP1 POP PUSH2 0xA7E PUSH2 0x22ED JUMP JUMPDEST DUP8 DUP8 PUSH1 0x13 SLOAD DUP7 DUP7 PUSH1 0x40 MLOAD DUP1 DUP8 PUSH1 0x1 DUP2 GT ISZERO PUSH2 0xA95 JUMPI INVALID JUMPDEST PUSH1 0xFF AND DUP2 MSTORE PUSH1 0x20 DUP2 ADD SWAP7 SWAP1 SWAP7 MSTORE POP PUSH1 0x40 DUP1 DUP7 ADD SWAP5 SWAP1 SWAP5 MSTORE PUSH1 0x60 DUP6 ADD SWAP3 SWAP1 SWAP3 MSTORE PUSH1 0x80 DUP5 ADD MSTORE PUSH1 0xA0 DUP4 ADD MSTORE MLOAD SWAP1 DUP2 SWAP1 SUB PUSH1 0xC0 ADD SWAP2 POP LOG1 POP POP POP POP POP POP JUMP JUMPDEST PUSH1 0x0 DUP1 PUSH2 0xADD DUP4 PUSH2 0x2332 JUMP JUMPDEST SWAP2 POP SWAP2 POP SWAP2 POP SWAP2 JUMP JUMPDEST PUSH1 0x0 PUSH1 0x60 PUSH2 0xAF2 PUSH2 0x139E JUMP JUMPDEST SWAP1 POP PUSH1 0x0 JUMPDEST DUP2 MLOAD DUP2 LT ISZERO PUSH2 0xBE7 JUMPI PUSH1 0x0 DUP3 DUP3 DUP2 MLOAD DUP2 LT PUSH2 0xB0E JUMPI INVALID JUMPDEST PUSH1 0x20 SWAP1 DUP2 MUL SWAP2 SWAP1 SWAP2 ADD DUP2 ADD MLOAD PUSH1 0x0 DUP2 DUP2 MSTORE PUSH1 0x3 DUP4 MSTORE PUSH1 0x40 SWAP1 DUP2 SWAP1 KECCAK256 SLOAD PUSH1 0x2 SLOAD DUP3 MLOAD PUSH4 0x21F8A721 PUSH1 0xE0 SHL DUP2 MSTORE PUSH1 0x4 DUP2 ADD DUP6 SWAP1 MSTORE SWAP3 MLOAD SWAP4 SWAP6 POP PUSH1 0x1 PUSH1 0x1 PUSH1 0xA0 SHL SUB SWAP2 DUP3 AND SWAP5 SWAP2 AND SWAP3 PUSH4 0x21F8A721 SWAP3 PUSH1 0x24 DUP1 DUP3 ADD SWAP4 SWAP3 SWAP2 DUP3 SWAP1 SUB ADD DUP2 DUP7 DUP1 EXTCODESIZE ISZERO DUP1 ISZERO PUSH2 0xB76 JUMPI PUSH1 0x0 DUP1 REVERT JUMPDEST POP GAS STATICCALL ISZERO DUP1 ISZERO PUSH2 0xB8A JUMPI RETURNDATASIZE PUSH1 0x0 DUP1 RETURNDATACOPY RETURNDATASIZE PUSH1 0x0 REVERT JUMPDEST POP POP POP POP PUSH1 0x40 MLOAD RETURNDATASIZE PUSH1 0x20 DUP2 LT ISZERO PUSH2 0xBA0 JUMPI PUSH1 0x0 DUP1 REVERT JUMPDEST POP MLOAD PUSH1 0x1 PUSH1 0x1 PUSH1 0xA0 SHL SUB AND EQ ISZERO DUP1 PUSH2 0xBCD JUMPI POP PUSH1 0x0 DUP2 DUP2 MSTORE PUSH1 0x3 PUSH1 0x20 MSTORE PUSH1 0x40 SWAP1 KECCAK256 SLOAD PUSH1 0x1 PUSH1 0x1 PUSH1 0xA0 SHL SUB AND ISZERO JUMPDEST ISZERO PUSH2 0xBDE JUMPI PUSH1 0x0 SWAP4 POP POP POP POP PUSH2 0x698 JUMP JUMPDEST POP PUSH1 0x1 ADD PUSH2 0xAF7 JUMP JUMPDEST POP PUSH1 0x1 SWAP2 POP POP SWAP1 JUMP JUMPDEST PUSH1 0x4 DUP1 SLOAD PUSH1 0x40 DUP1 MLOAD PUSH4 0x6B7F8171 PUSH1 0xE1 SHL DUP2 MSTORE SWAP1 MLOAD PUSH1 0x0 SWAP4 DUP5 SWAP4 PUSH1 0x1 PUSH1 0x1 PUSH1 0xA0 SHL SUB AND SWAP3 PUSH4 0xD6FF02E2 SWAP3 DUP2 DUP4 ADD SWAP3 PUSH1 0x20 SWAP3 DUP3 SWAP1 SUB ADD DUP2 DUP7 DUP1 EXTCODESIZE ISZERO DUP1 ISZERO PUSH2 0xC34 JUMPI PUSH1 0x0 DUP1 REVERT JUMPDEST POP GAS STATICCALL ISZERO DUP1 ISZERO PUSH2 0xC48 JUMPI RETURNDATASIZE PUSH1 0x0 DUP1 RETURNDATACOPY RETURNDATASIZE PUSH1 0x0 REVERT JUMPDEST POP POP POP POP PUSH1 0x40 MLOAD RETURNDATASIZE PUSH1 0x20 DUP2 LT ISZERO PUSH2 0xC5E JUMPI PUSH1 0x0 DUP1 REVERT JUMPDEST POP MLOAD PUSH1 0x5 SLOAD PUSH1 0x40 DUP1 MLOAD PUSH4 0x6B7F8171 PUSH1 0xE1 SHL DUP2 MSTORE SWAP1 MLOAD PUSH1 0x1 PUSH1 0x1 PUSH1 0xA0 SHL SUB SWAP1 SWAP3 AND SWAP2 PUSH4 0xD6FF02E2 SWAP2 PUSH1 0x4 DUP2 DUP2 ADD SWAP3 PUSH1 0x20 SWAP3 SWAP1 SWAP2 SWAP1 DUP3 SWAP1 SUB ADD DUP2 DUP7 DUP1 EXTCODESIZE ISZERO DUP1 ISZERO PUSH2 0xCA5 JUMPI PUSH1 0x0 DUP1 REVERT JUMPDEST POP GAS STATICCALL ISZERO DUP1 ISZERO PUSH2 0xCB9 JUMPI RETURNDATASIZE PUSH1 0x0 DUP1 RETURNDATACOPY RETURNDATASIZE PUSH1 0x0 REVERT JUMPDEST POP POP POP POP PUSH1 0x40 MLOAD RETURNDATASIZE PUSH1 0x20 DUP2 LT ISZERO PUSH2 0xCCF JUMPI PUSH1 0x0 DUP1 REVERT JUMPDEST POP MLOAD SWAP1 SWAP3 POP SWAP1 POP JUMPDEST SWAP1 SWAP2 JUMP JUMPDEST PUSH1 0x0 DUP1 PUSH2 0xCE6 PUSH2 0x2433 JUMP JUMPDEST SWAP2 POP SWAP2 POP SWAP1 SWAP2 JUMP JUMPDEST PUSH1 0x14 SLOAD PUSH1 0x1 PUSH1 0xA0 SHL SWAP1 DIV PUSH1 0xFF AND DUP2 JUMP JUMPDEST PUSH1 0x0 DUP1 PUSH2 0xADD DUP4 PUSH2 0x26FD JUMP JUMPDEST PUSH2 0xD12 PUSH2 0x1F5C JUMP JUMPDEST PUSH2 0xD1A PUSH2 0x27C8 JUMP JUMPDEST ISZERO PUSH2 0xD5F JUMPI PUSH1 0x40 DUP1 MLOAD PUSH3 0x461BCD PUSH1 0xE5 SHL DUP2 MSTORE PUSH1 0x20 PUSH1 0x4 DUP3 ADD MSTORE PUSH1 0x10 PUSH1 0x24 DUP3 ADD MSTORE PUSH16 0x42696464696E6720696E616374697665 PUSH1 0x80 SHL PUSH1 0x44 DUP3 ADD MSTORE SWAP1 MLOAD SWAP1 DUP2 SWAP1 SUB PUSH1 0x64 ADD SWAP1 REVERT JUMPDEST PUSH1 0x0 DUP1 PUSH2 0xD6A PUSH2 0x27D0 JUMP JUMPDEST PUSH1 0x14 SLOAD SWAP2 SWAP4 POP SWAP2 POP PUSH1 0x0 SWAP1 DUP2 SWAP1 PUSH2 0xD89 SWAP1 PUSH1 0x1 PUSH1 0x1 PUSH1 0xA0 SHL SUB AND PUSH2 0x2332 JUMP JUMPDEST SWAP2 POP SWAP2 POP PUSH1 0x0 DUP3 DUP6 EQ DUP1 ISZERO PUSH2 0xD9D JUMPI POP DUP2 DUP5 EQ JUMPDEST SWAP1 POP DUP1 PUSH2 0xDE3 JUMPI PUSH1 0x40 DUP1 MLOAD PUSH3 0x461BCD PUSH1 0xE5 SHL DUP2 MSTORE PUSH1 0x20 PUSH1 0x4 DUP3 ADD MSTORE PUSH1 0xF PUSH1 0x24 DUP3 ADD MSTORE PUSH15 0x4E6F742063616E63656C6C61626C65 PUSH1 0x88 SHL PUSH1 0x44 DUP3 ADD MSTORE SWAP1 MLOAD SWAP1 DUP2 SWAP1 SUB PUSH1 0x64 ADD SWAP1 REVERT JUMPDEST PUSH2 0xDEC DUP7 PUSH2 0x2885 JUMP JUMPDEST POP POP POP POP POP POP JUMP JUMPDEST PUSH1 0x14 SLOAD PUSH1 0x1 PUSH1 0xA8 SHL SWAP1 DIV PUSH1 0xFF AND DUP2 JUMP JUMPDEST PUSH1 0x1 SLOAD PUSH1 0x1 PUSH1 0x1 PUSH1 0xA0 SHL SUB AND DUP2 JUMP JUMPDEST PUSH1 0x0 DUP1 PUSH2 0xADD DUP4 PUSH2 0x2A8C JUMP JUMPDEST PUSH1 0x0 PUSH2 0x695 PUSH2 0x22ED JUMP JUMPDEST PUSH1 0x60 PUSH2 0xE33 PUSH2 0x139E JUMP JUMPDEST SWAP1 POP PUSH1 0x0 JUMPDEST DUP2 MLOAD DUP2 LT ISZERO PUSH2 0xFED JUMPI PUSH1 0x0 DUP3 DUP3 DUP2 MLOAD DUP2 LT PUSH2 0xE4F JUMPI INVALID JUMPDEST PUSH1 0x20 SWAP1 DUP2 MUL SWAP2 SWAP1 SWAP2 ADD DUP2 ADD MLOAD PUSH1 0x2 SLOAD PUSH1 0x40 DUP1 MLOAD PUSH32 0x5265736F6C766572206D697373696E67207461726765743A2000000000000000 DUP2 DUP7 ADD MSTORE PUSH1 0x39 DUP1 DUP3 ADD DUP6 SWAP1 MSTORE DUP3 MLOAD DUP1 DUP4 SUB SWAP1 SWAP2 ADD DUP2 MSTORE PUSH1 0x59 DUP3 ADD DUP1 DUP5 MSTORE PUSH4 0xDACB2D01 PUSH1 0xE0 SHL SWAP1 MSTORE PUSH1 0x5D DUP3 ADD DUP6 DUP2 MSTORE PUSH1 0x7D DUP4 ADD SWAP4 DUP5 MSTORE DUP2 MLOAD PUSH1 0x9D DUP5 ADD MSTORE DUP2 MLOAD SWAP6 SWAP8 POP PUSH1 0x0 SWAP7 PUSH1 0x1 PUSH1 0x1 PUSH1 0xA0 SHL SUB SWAP1 SWAP6 AND SWAP6 PUSH4 0xDACB2D01 SWAP6 DUP10 SWAP6 SWAP4 SWAP5 SWAP3 SWAP4 SWAP3 PUSH1 0xBD ADD SWAP2 SWAP1 DUP6 ADD SWAP1 DUP1 DUP4 DUP4 DUP13 JUMPDEST DUP4 DUP2 LT ISZERO PUSH2 0xF05 JUMPI DUP2 DUP2 ADD MLOAD DUP4 DUP3 ADD MSTORE PUSH1 0x20 ADD PUSH2 0xEED JUMP JUMPDEST POP POP POP POP SWAP1 POP SWAP1 DUP2 ADD SWAP1 PUSH1 0x1F AND DUP1 ISZERO PUSH2 0xF32 JUMPI DUP1 DUP3 SUB DUP1 MLOAD PUSH1 0x1 DUP4 PUSH1 0x20 SUB PUSH2 0x100 EXP SUB NOT AND DUP2 MSTORE PUSH1 0x20 ADD SWAP2 POP JUMPDEST POP SWAP4 POP POP POP POP PUSH1 0x20 PUSH1 0x40 MLOAD DUP1 DUP4 SUB DUP2 DUP7 DUP1 EXTCODESIZE ISZERO DUP1 ISZERO PUSH2 0xF50 JUMPI PUSH1 0x0 DUP1 REVERT JUMPDEST POP GAS STATICCALL ISZERO DUP1 ISZERO PUSH2 0xF64 JUMPI RETURNDATASIZE PUSH1 0x0 DUP1 RETURNDATACOPY RETURNDATASIZE PUSH1 0x0 REVERT JUMPDEST POP POP POP POP PUSH1 0x40 MLOAD RETURNDATASIZE PUSH1 0x20 DUP2 LT ISZERO PUSH2 0xF7A JUMPI PUSH1 0x0 DUP1 REVERT JUMPDEST POP MLOAD PUSH1 0x0 DUP4 DUP2 MSTORE PUSH1 0x3 PUSH1 0x20 SWAP1 DUP2 MSTORE PUSH1 0x40 SWAP2 DUP3 SWAP1 KECCAK256 DUP1 SLOAD PUSH1 0x1 PUSH1 0x1 PUSH1 0xA0 SHL SUB NOT AND PUSH1 0x1 PUSH1 0x1 PUSH1 0xA0 SHL SUB DUP6 AND SWAP1 DUP2 OR SWAP1 SWAP2 SSTORE DUP3 MLOAD DUP7 DUP2 MSTORE SWAP2 DUP3 ADD MSTORE DUP2 MLOAD SWAP3 SWAP4 POP PUSH32 0x88A93678A3692F6789D9546FC621BF7234B101DDB7D4FE479455112831B8AA68 SWAP3 SWAP1 DUP2 SWAP1 SUB SWAP1 SWAP2 ADD SWAP1 LOG1 POP POP PUSH1 0x1 ADD PUSH2 0xE38 JUMP JUMPDEST POP POP JUMP JUMPDEST PUSH1 0x1 SLOAD PUSH1 0x1 PUSH1 0x1 PUSH1 0xA0 SHL SUB AND CALLER EQ PUSH2 0x103A JUMPI PUSH1 0x40 MLOAD PUSH3 0x461BCD PUSH1 0xE5 SHL DUP2 MSTORE PUSH1 0x4 ADD DUP1 DUP1 PUSH1 0x20 ADD DUP3 DUP2 SUB DUP3 MSTORE PUSH1 0x35 DUP2 MSTORE PUSH1 0x20 ADD DUP1 PUSH2 0x311A PUSH1 0x35 SWAP2 CODECOPY PUSH1 0x40 ADD SWAP2 POP POP PUSH1 0x40 MLOAD DUP1 SWAP2 SUB SWAP1 REVERT JUMPDEST PUSH1 0x0 SLOAD PUSH1 0x1 SLOAD PUSH1 0x40 DUP1 MLOAD PUSH1 0x1 PUSH1 0x1 PUSH1 0xA0 SHL SUB SWAP4 DUP5 AND DUP2 MSTORE SWAP3 SWAP1 SWAP2 AND PUSH1 0x20 DUP4 ADD MSTORE DUP1 MLOAD PUSH32 0xB532073B38C83145E3E5135377A08BF9AAB55BC0FD7C1179CD4FB995D2A5159C SWAP3 DUP2 SWAP1 SUB SWAP1 SWAP2 ADD SWAP1 LOG1 PUSH1 0x1 DUP1 SLOAD PUSH1 0x0 DUP1 SLOAD PUSH1 0x1 PUSH1 0x1 PUSH1 0xA0 SHL SUB NOT SWAP1 DUP2 AND PUSH1 0x1 PUSH1 0x1 PUSH1 0xA0 SHL SUB DUP5 AND OR SWAP1 SWAP2 SSTORE AND SWAP1 SSTORE JUMP JUMPDEST PUSH1 0x14 SLOAD PUSH1 0x0 SWAP1 PUSH1 0x1 PUSH1 0xA0 SHL SWAP1 DIV PUSH1 0xFF AND PUSH2 0x1139 JUMPI PUSH2 0x10C9 PUSH2 0x2B57 JUMP JUMPDEST PUSH1 0x1 PUSH1 0x1 PUSH1 0xA0 SHL SUB AND PUSH4 0x7859F410 ADDRESS PUSH1 0x40 MLOAD DUP3 PUSH4 0xFFFFFFFF AND PUSH1 0xE0 SHL DUP2 MSTORE PUSH1 0x4 ADD DUP1 DUP3 PUSH1 0x1 PUSH1 0x1 PUSH1 0xA0 SHL SUB AND PUSH1 0x1 PUSH1 0x1 PUSH1 0xA0 SHL SUB AND DUP2 MSTORE PUSH1 0x20 ADD SWAP2 POP POP PUSH1 0x0 PUSH1 0x40 MLOAD DUP1 DUP4 SUB DUP2 PUSH1 0x0 DUP8 DUP1 EXTCODESIZE ISZERO DUP1 ISZERO PUSH2 0x1120 JUMPI PUSH1 0x0 DUP1 REVERT JUMPDEST POP GAS CALL ISZERO DUP1 ISZERO PUSH2 0x1134 JUMPI RETURNDATASIZE PUSH1 0x0 DUP1 RETURNDATACOPY RETURNDATASIZE PUSH1 0x0 REVERT JUMPDEST POP POP POP POP JUMPDEST PUSH1 0x0 DUP1 PUSH2 0x1145 CALLER PUSH2 0x26FD JUMP JUMPDEST SWAP2 POP SWAP2 POP DUP2 PUSH1 0x0 EQ ISZERO DUP1 PUSH2 0x1158 JUMPI POP DUP1 ISZERO ISZERO JUMPDEST ISZERO PUSH2 0x1168 JUMPI PUSH2 0x1165 PUSH2 0x2433 JUMP JUMPDEST POP POP JUMPDEST PUSH1 0x0 DUP1 PUSH2 0x1174 CALLER PUSH2 0x2A8C JUMP JUMPDEST SWAP2 POP SWAP2 POP DUP2 PUSH1 0x0 EQ ISZERO DUP1 PUSH2 0x1187 JUMPI POP DUP1 ISZERO ISZERO JUMPDEST PUSH2 0x11CE JUMPI PUSH1 0x40 DUP1 MLOAD PUSH3 0x461BCD PUSH1 0xE5 SHL DUP2 MSTORE PUSH1 0x20 PUSH1 0x4 DUP3 ADD MSTORE PUSH1 0x13 PUSH1 0x24 DUP3 ADD MSTORE PUSH19 0x4E6F7468696E6720746F206578657263697365 PUSH1 0x68 SHL PUSH1 0x44 DUP3 ADD MSTORE SWAP1 MLOAD SWAP1 DUP2 SWAP1 SUB PUSH1 0x64 ADD SWAP1 REVERT JUMPDEST DUP2 ISZERO PUSH2 0x123A JUMPI PUSH1 0x4 DUP1 SLOAD PUSH1 0x40 DUP1 MLOAD PUSH4 0xD8ACC15 PUSH1 0xE1 SHL DUP2 MSTORE CALLER SWAP4 DUP2 ADD SWAP4 SWAP1 SWAP4 MSTORE MLOAD PUSH1 0x1 PUSH1 0x1 PUSH1 0xA0 SHL SUB SWAP1 SWAP2 AND SWAP2 PUSH4 0x1B15982A SWAP2 PUSH1 0x24 DUP1 DUP4 ADD SWAP3 PUSH1 0x0 SWAP3 SWAP2 SWAP1 DUP3 SWAP1 SUB ADD DUP2 DUP4 DUP8 DUP1 EXTCODESIZE ISZERO DUP1 ISZERO PUSH2 0x1221 JUMPI PUSH1 0x0 DUP1 REVERT JUMPDEST POP GAS CALL ISZERO DUP1 ISZERO PUSH2 0x1235 JUMPI RETURNDATASIZE PUSH1 0x0 DUP1 RETURNDATACOPY RETURNDATASIZE PUSH1 0x0 REVERT JUMPDEST POP POP POP POP JUMPDEST DUP1 ISZERO PUSH2 0x12A5 JUMPI PUSH1 0x5 SLOAD PUSH1 0x40 DUP1 MLOAD PUSH4 0xD8ACC15 PUSH1 0xE1 SHL DUP2 MSTORE CALLER PUSH1 0x4 DUP3 ADD MSTORE SWAP1 MLOAD PUSH1 0x1 PUSH1 0x1 PUSH1 0xA0 SHL SUB SWAP1 SWAP3 AND SWAP2 PUSH4 0x1B15982A SWAP2 PUSH1 0x24 DUP1 DUP3 ADD SWAP3 PUSH1 0x0 SWAP3 SWAP1 SWAP2 SWAP1 DUP3 SWAP1 SUB ADD DUP2 DUP4 DUP8 DUP1 EXTCODESIZE ISZERO DUP1 ISZERO PUSH2 0x128C JUMPI PUSH1 0x0 DUP1 REVERT JUMPDEST POP GAS CALL ISZERO DUP1 ISZERO PUSH2 0x12A0 JUMPI RETURNDATASIZE PUSH1 0x0 DUP1 RETURNDATACOPY RETURNDATASIZE PUSH1 0x0 REVERT JUMPDEST POP POP POP POP JUMPDEST PUSH1 0x0 PUSH2 0x12B9 PUSH2 0x12B2 PUSH2 0x22ED JUMP JUMPDEST DUP5 DUP5 PUSH2 0x2B66 JUMP JUMPDEST PUSH1 0x40 DUP1 MLOAD DUP3 DUP2 MSTORE SWAP1 MLOAD SWAP2 SWAP3 POP CALLER SWAP2 PUSH32 0xD82B6F69D7477FB41CD83D936DE94990CEE2FA1A309FEEEE90101FC0513B6A43 SWAP2 DUP2 SWAP1 SUB PUSH1 0x20 ADD SWAP1 LOG2 DUP1 ISZERO PUSH2 0x1395 JUMPI PUSH2 0x1300 DUP2 PUSH2 0x2251 JUMP JUMPDEST POP PUSH2 0x1309 PUSH2 0x21C4 JUMP JUMPDEST PUSH1 0x1 PUSH1 0x1 PUSH1 0xA0 SHL SUB AND PUSH4 0xA9059CBB CALLER DUP4 PUSH1 0x40 MLOAD DUP4 PUSH4 0xFFFFFFFF AND PUSH1 0xE0 SHL DUP2 MSTORE PUSH1 0x4 ADD DUP1 DUP4 PUSH1 0x1 PUSH1 0x1 PUSH1 0xA0 SHL SUB AND PUSH1 0x1 PUSH1 0x1 PUSH1 0xA0 SHL SUB AND DUP2 MSTORE PUSH1 0x20 ADD DUP3 DUP2 MSTORE PUSH1 0x20 ADD SWAP3 POP POP POP PUSH1 0x20 PUSH1 0x40 MLOAD DUP1 DUP4 SUB DUP2 PUSH1 0x0 DUP8 DUP1 EXTCODESIZE ISZERO DUP1 ISZERO PUSH2 0x1368 JUMPI PUSH1 0x0 DUP1 REVERT JUMPDEST POP GAS CALL ISZERO DUP1 ISZERO PUSH2 0x137C JUMPI RETURNDATASIZE PUSH1 0x0 DUP1 RETURNDATACOPY RETURNDATASIZE PUSH1 0x0 REVERT JUMPDEST POP POP POP POP PUSH1 0x40 MLOAD RETURNDATASIZE PUSH1 0x20 DUP2 LT ISZERO PUSH2 0x1392 JUMPI PUSH1 0x0 DUP1 REVERT JUMPDEST POP POP JUMPDEST SWAP5 POP POP POP POP POP SWAP1 JUMP JUMPDEST PUSH1 0x40 DUP1 MLOAD PUSH1 0x4 DUP1 DUP3 MSTORE PUSH1 0xA0 DUP3 ADD SWAP1 SWAP3 MSTORE PUSH1 0x60 SWAP2 PUSH1 0x20 DUP3 ADD PUSH1 0x80 DUP1 CODESIZE DUP4 CODECOPY ADD SWAP1 POP POP SWAP1 POP PUSH12 0x53797374656D537461747573 PUSH1 0xA0 SHL DUP2 PUSH1 0x0 DUP2 MLOAD DUP2 LT PUSH2 0x13DE JUMPI INVALID JUMPDEST PUSH1 0x20 MUL PUSH1 0x20 ADD ADD DUP2 DUP2 MSTORE POP POP PUSH13 0x45786368616E67655261746573 PUSH1 0x98 SHL DUP2 PUSH1 0x1 DUP2 MLOAD DUP2 LT PUSH2 0x1408 JUMPI INVALID JUMPDEST PUSH1 0x20 MUL PUSH1 0x20 ADD ADD DUP2 DUP2 MSTORE POP POP PUSH9 0x14DE5B9D1A1CD554D1 PUSH1 0xBA SHL DUP2 PUSH1 0x2 DUP2 MLOAD DUP2 LT PUSH2 0x142E JUMPI INVALID JUMPDEST PUSH1 0x20 MUL PUSH1 0x20 ADD ADD DUP2 DUP2 MSTORE POP POP PUSH7 0x119959541BDBDB PUSH1 0xCA SHL DUP2 PUSH1 0x3 DUP2 MLOAD DUP2 LT PUSH2 0x1452 JUMPI INVALID JUMPDEST PUSH1 0x20 MUL PUSH1 0x20 ADD ADD DUP2 DUP2 MSTORE POP POP SWAP1 JUMP JUMPDEST PUSH1 0x0 DUP1 PUSH2 0xCE6 PUSH2 0x27D0 JUMP JUMPDEST PUSH1 0x0 SLOAD PUSH1 0x1 PUSH1 0x1 PUSH1 0xA0 SHL SUB AND DUP2 JUMP JUMPDEST PUSH1 0xB SLOAD PUSH1 0xC SLOAD PUSH1 0xD SLOAD DUP4 JUMP JUMPDEST PUSH1 0xE SLOAD PUSH1 0xF SLOAD PUSH1 0x10 SLOAD DUP4 JUMP JUMPDEST PUSH1 0x8 SLOAD PUSH1 0x9 SLOAD PUSH1 0xA SLOAD DUP4 JUMP JUMPDEST PUSH1 0x0 DUP1 PUSH2 0x14AA PUSH2 0x20A6 JUMP JUMPDEST PUSH1 0x14 SLOAD SWAP1 SWAP3 POP PUSH1 0x1 PUSH1 0xA0 SHL SWAP1 DIV PUSH1 0xFF AND ISZERO SWAP1 POP DUP1 ISZERO PUSH2 0x14CC JUMPI POP PUSH2 0x14CC PUSH2 0x209E JUMP JUMPDEST DUP1 ISZERO PUSH2 0x14DC JUMPI POP PUSH2 0x14DC DUP2 PUSH2 0x2134 JUMP JUMPDEST SWAP2 POP POP SWAP1 JUMP JUMPDEST PUSH1 0x0 PUSH2 0x14EC PUSH2 0x27C8 JUMP JUMPDEST PUSH2 0x14F8 JUMPI POP PUSH1 0x0 PUSH2 0x698 JUMP JUMPDEST PUSH2 0x1500 PUSH2 0x209E JUMP JUMPDEST PUSH2 0x150C JUMPI POP PUSH1 0x1 PUSH2 0x698 JUMP JUMPDEST PUSH2 0x1514 PUSH2 0x2B89 JUMP JUMPDEST PUSH2 0x1520 JUMPI POP PUSH1 0x2 PUSH2 0x698 JUMP JUMPDEST POP PUSH1 0x3 SWAP1 JUMP JUMPDEST PUSH1 0x0 PUSH2 0x1530 PUSH2 0x27C8 JUMP JUMPDEST ISZERO PUSH2 0x1575 JUMPI PUSH1 0x40 DUP1 MLOAD PUSH3 0x461BCD PUSH1 0xE5 SHL DUP2 MSTORE PUSH1 0x20 PUSH1 0x4 DUP3 ADD MSTORE PUSH1 0x10 PUSH1 0x24 DUP3 ADD MSTORE PUSH16 0x42696464696E6720696E616374697665 PUSH1 0x80 SHL PUSH1 0x44 DUP3 ADD MSTORE SWAP1 MLOAD SWAP1 DUP2 SWAP1 SUB PUSH1 0x64 ADD SWAP1 REVERT JUMPDEST PUSH1 0x14 SLOAD PUSH1 0x1 PUSH1 0xA8 SHL SWAP1 DIV PUSH1 0xFF AND PUSH2 0x15C6 JUMPI PUSH1 0x40 DUP1 MLOAD PUSH3 0x461BCD PUSH1 0xE5 SHL DUP2 MSTORE PUSH1 0x20 PUSH1 0x4 DUP3 ADD MSTORE PUSH1 0x10 PUSH1 0x24 DUP3 ADD MSTORE PUSH16 0x1499599D5B991CC8191A5CD8589B1959 PUSH1 0x82 SHL PUSH1 0x44 DUP3 ADD MSTORE SWAP1 MLOAD SWAP1 DUP2 SWAP1 SUB PUSH1 0x64 ADD SWAP1 REVERT JUMPDEST DUP2 PUSH2 0x15D3 JUMPI POP PUSH1 0x0 PUSH2 0x1867 JUMP JUMPDEST PUSH1 0x14 SLOAD PUSH1 0x1 PUSH1 0x1 PUSH1 0xA0 SHL SUB AND CALLER EQ ISZERO PUSH2 0x1629 JUMPI PUSH1 0x0 DUP1 PUSH2 0x15F2 CALLER PUSH2 0x2332 JUMP JUMPDEST SWAP1 SWAP3 POP SWAP1 POP PUSH1 0x1 DUP6 PUSH1 0x1 DUP2 GT ISZERO PUSH2 0x1605 JUMPI INVALID JUMPDEST EQ ISZERO PUSH2 0x160D JUMPI SWAP1 JUMPDEST PUSH2 0x1626 PUSH2 0x1620 DUP4 DUP7 PUSH4 0xFFFFFFFF PUSH2 0x2BB3 AND JUMP JUMPDEST DUP3 PUSH2 0x2C10 JUMP JUMPDEST POP POP JUMPDEST PUSH2 0x16BE PUSH2 0x16B1 PUSH1 0xE PUSH1 0x2 ADD SLOAD PUSH20 0x0 PUSH4 0x907AF6C0 PUSH1 0x40 MLOAD DUP2 PUSH4 0xFFFFFFFF AND PUSH1 0xE0 SHL DUP2 MSTORE PUSH1 0x4 ADD PUSH1 0x20 PUSH1 0x40 MLOAD DUP1 DUP4 SUB DUP2 DUP7 DUP1 EXTCODESIZE ISZERO DUP1 ISZERO PUSH2 0x1679 JUMPI PUSH1 0x0 DUP1 REVERT JUMPDEST POP GAS DELEGATECALL ISZERO DUP1 ISZERO PUSH2 0x168D JUMPI RETURNDATASIZE PUSH1 0x0 DUP1 RETURNDATACOPY RETURNDATASIZE PUSH1 0x0 REVERT JUMPDEST POP POP POP POP PUSH1 0x40 MLOAD RETURNDATASIZE PUSH1 0x20 DUP2 LT ISZERO PUSH2 0x16A3 JUMPI PUSH1 0x0 DUP1 REVERT JUMPDEST POP MLOAD SWAP1 PUSH4 0xFFFFFFFF PUSH2 0x2BB3 AND JUMP JUMPDEST DUP4 SWAP1 PUSH4 0xFFFFFFFF PUSH2 0x21DB AND JUMP JUMPDEST SWAP1 POP PUSH2 0x16C9 DUP4 PUSH2 0x2CEF JUMP JUMPDEST PUSH1 0x1 PUSH1 0x1 PUSH1 0xA0 SHL SUB AND PUSH4 0x410085DF CALLER DUP5 PUSH1 0x40 MLOAD DUP4 PUSH4 0xFFFFFFFF AND PUSH1 0xE0 SHL DUP2 MSTORE PUSH1 0x4 ADD DUP1 DUP4 PUSH1 0x1 PUSH1 0x1 PUSH1 0xA0 SHL SUB AND PUSH1 0x1 PUSH1 0x1 PUSH1 0xA0 SHL SUB AND DUP2 MSTORE PUSH1 0x20 ADD DUP3 DUP2 MSTORE PUSH1 0x20 ADD SWAP3 POP POP POP PUSH1 0x0 PUSH1 0x40 MLOAD DUP1 DUP4 SUB DUP2 PUSH1 0x0 DUP8 DUP1 EXTCODESIZE ISZERO DUP1 ISZERO PUSH2 0x1728 JUMPI PUSH1 0x0 DUP1 REVERT JUMPDEST POP GAS CALL ISZERO DUP1 ISZERO PUSH2 0x173C JUMPI RETURNDATASIZE PUSH1 0x0 DUP1 RETURNDATACOPY RETURNDATASIZE PUSH1 0x0 REVERT JUMPDEST POP CALLER SWAP3 POP PUSH32 0x9BD0A8CA6625E01A9CEE5E86EEC7813A8234B41F1CA0C9F15A008D1E1D00EE5F SWAP2 POP DUP6 SWAP1 POP DUP4 PUSH2 0x1777 DUP7 DUP3 PUSH4 0xFFFFFFFF PUSH2 0x2BB3 AND JUMP JUMPDEST PUSH1 0x40 MLOAD DUP1 DUP5 PUSH1 0x1 DUP2 GT ISZERO PUSH2 0x1787 JUMPI INVALID JUMPDEST PUSH1 0xFF AND DUP2 MSTORE PUSH1 0x20 ADD DUP4 DUP2 MSTORE PUSH1 0x20 ADD DUP3 DUP2 MSTORE PUSH1 0x20 ADD SWAP4 POP POP POP POP PUSH1 0x40 MLOAD DUP1 SWAP2 SUB SWAP1 LOG2 PUSH1 0x0 PUSH2 0x17B3 DUP3 PUSH2 0x2251 JUMP JUMPDEST SWAP1 POP PUSH2 0x17BD PUSH2 0x21C4 JUMP JUMPDEST PUSH1 0x1 PUSH1 0x1 PUSH1 0xA0 SHL SUB AND PUSH4 0xA9059CBB CALLER DUP5 PUSH1 0x40 MLOAD DUP4 PUSH4 0xFFFFFFFF AND PUSH1 0xE0 SHL DUP2 MSTORE PUSH1 0x4 ADD DUP1 DUP4 PUSH1 0x1 PUSH1 0x1 PUSH1 0xA0 SHL SUB AND PUSH1 0x1 PUSH1 0x1 PUSH1 0xA0 SHL SUB AND DUP2 MSTORE PUSH1 0x20 ADD DUP3 DUP2 MSTORE PUSH1 0x20 ADD SWAP3 POP POP POP PUSH1 0x20 PUSH1 0x40 MLOAD DUP1 DUP4 SUB DUP2 PUSH1 0x0 DUP8 DUP1 EXTCODESIZE ISZERO DUP1 ISZERO PUSH2 0x181C JUMPI PUSH1 0x0 DUP1 REVERT JUMPDEST POP GAS CALL ISZERO DUP1 ISZERO PUSH2 0x1830 JUMPI RETURNDATASIZE PUSH1 0x0 DUP1 RETURNDATACOPY RETURNDATASIZE PUSH1 0x0 REVERT JUMPDEST POP POP POP POP PUSH1 0x40 MLOAD RETURNDATASIZE PUSH1 0x20 DUP2 LT ISZERO PUSH2 0x1846 JUMPI PUSH1 0x0 DUP1 REVERT JUMPDEST POP PUSH1 0x0 SWAP1 POP DUP1 PUSH2 0x1854 PUSH2 0x27D0 JUMP JUMPDEST SWAP2 POP SWAP2 POP PUSH2 0x1863 DUP3 DUP3 DUP6 PUSH2 0x2D27 JUMP JUMPDEST POP POP POP JUMPDEST SWAP3 SWAP2 POP POP JUMP JUMPDEST PUSH1 0x11 SLOAD PUSH1 0x12 SLOAD DUP3 JUMP JUMPDEST PUSH1 0x14 SLOAD PUSH1 0x0 SWAP1 DUP2 SWAP1 PUSH1 0x1 PUSH1 0xA0 SHL SWAP1 DIV PUSH1 0xFF AND ISZERO DUP1 PUSH2 0x18AB JUMPI POP CALLER PUSH2 0x18A0 PUSH2 0x189B PUSH2 0x22ED JUMP JUMPDEST PUSH2 0x2CEF JUMP JUMPDEST PUSH1 0x1 PUSH1 0x1 PUSH1 0xA0 SHL SUB AND EQ JUMPDEST ISZERO PUSH2 0x18BE JUMPI PUSH2 0x18BB PUSH1 0x13 SLOAD PUSH2 0x1FA5 JUMP JUMPDEST SWAP1 POP JUMPDEST PUSH1 0x4 SLOAD PUSH1 0x1 PUSH1 0x1 PUSH1 0xA0 SHL SUB AND CALLER EQ ISZERO PUSH2 0x18DB JUMPI PUSH1 0x6 SLOAD SWAP2 POP PUSH2 0xCD7 JUMP JUMPDEST PUSH1 0x5 SLOAD PUSH1 0x1 PUSH1 0x1 PUSH1 0xA0 SHL SUB AND CALLER EQ ISZERO PUSH2 0x18F8 JUMPI PUSH1 0x7 SLOAD SWAP2 POP PUSH2 0xCD7 JUMP JUMPDEST PUSH1 0x40 DUP1 MLOAD PUSH3 0x461BCD PUSH1 0xE5 SHL DUP2 MSTORE PUSH1 0x20 PUSH1 0x4 DUP3 ADD MSTORE PUSH1 0x17 PUSH1 0x24 DUP3 ADD MSTORE PUSH32 0x53656E646572206973206E6F7420616E206F7074696F6E000000000000000000 PUSH1 0x44 DUP3 ADD MSTORE SWAP1 MLOAD SWAP1 DUP2 SWAP1 SUB PUSH1 0x64 ADD SWAP1 REVERT JUMPDEST PUSH1 0x0 DUP1 PUSH2 0xCE6 PUSH2 0x20A6 JUMP JUMPDEST PUSH2 0x1958 PUSH2 0x1F5C JUMP JUMPDEST PUSH2 0x1960 PUSH2 0x2B89 JUMP JUMPDEST PUSH2 0x19B1 JUMPI PUSH1 0x40 DUP1 MLOAD PUSH3 0x461BCD PUSH1 0xE5 SHL DUP2 MSTORE PUSH1 0x20 PUSH1 0x4 DUP3 ADD MSTORE PUSH1 0x1B PUSH1 0x24 DUP3 ADD MSTORE PUSH32 0x556E65787069726564206F7074696F6E732072656D61696E696E670000000000 PUSH1 0x44 DUP3 ADD MSTORE SWAP1 MLOAD SWAP1 DUP2 SWAP1 SUB PUSH1 0x64 ADD SWAP1 REVERT JUMPDEST PUSH2 0x19BA DUP2 PUSH2 0x2885 JUMP JUMPDEST POP JUMP JUMPDEST PUSH1 0x4 DUP1 SLOAD PUSH1 0x40 DUP1 MLOAD PUSH4 0x18160DDD PUSH1 0xE0 SHL DUP2 MSTORE SWAP1 MLOAD PUSH1 0x0 SWAP4 DUP5 SWAP4 PUSH1 0x1 PUSH1 0x1 PUSH1 0xA0 SHL SUB AND SWAP3 PUSH4 0x18160DDD SWAP3 DUP2 DUP4 ADD SWAP3 PUSH1 0x20 SWAP3 DUP3 SWAP1 SUB ADD DUP2 DUP7 DUP1 EXTCODESIZE ISZERO DUP1 ISZERO PUSH2 0x1A01 JUMPI PUSH1 0x0 DUP1 REVERT JUMPDEST POP GAS STATICCALL ISZERO DUP1 ISZERO PUSH2 0x1A15 JUMPI RETURNDATASIZE PUSH1 0x0 DUP1 RETURNDATACOPY RETURNDATASIZE PUSH1 0x0 REVERT JUMPDEST POP POP POP POP PUSH1 0x40 MLOAD RETURNDATASIZE PUSH1 0x20 DUP2 LT ISZERO PUSH2 0x1A2B JUMPI PUSH1 0x0 DUP1 REVERT JUMPDEST POP MLOAD PUSH1 0x5 SLOAD PUSH1 0x40 DUP1 MLOAD PUSH4 0x18160DDD PUSH1 0xE0 SHL DUP2 MSTORE SWAP1 MLOAD PUSH1 0x1 PUSH1 0x1 PUSH1 0xA0 SHL SUB SWAP1 SWAP3 AND SWAP2 PUSH4 0x18160DDD SWAP2 PUSH1 0x4 DUP2 DUP2 ADD SWAP3 PUSH1 0x20 SWAP3 SWAP1 SWAP2 SWAP1 DUP3 SWAP1 SUB ADD DUP2 DUP7 DUP1 EXTCODESIZE ISZERO DUP1 ISZERO PUSH2 0xCA5 JUMPI PUSH1 0x0 DUP1 REVERT JUMPDEST PUSH1 0x6 SLOAD PUSH1 0x7 SLOAD DUP3 JUMP JUMPDEST PUSH2 0x1A83 PUSH2 0x27C8 JUMP JUMPDEST ISZERO PUSH2 0x1AC8 JUMPI PUSH1 0x40 DUP1 MLOAD PUSH3 0x461BCD PUSH1 0xE5 SHL DUP2 MSTORE PUSH1 0x20 PUSH1 0x4 DUP3 ADD MSTORE PUSH1 0x10 PUSH1 0x24 DUP3 ADD MSTORE PUSH16 0x42696464696E6720696E616374697665 PUSH1 0x80 SHL PUSH1 0x44 DUP3 ADD MSTORE SWAP1 MLOAD SWAP1 DUP2 SWAP1 SUB PUSH1 0x64 ADD SWAP1 REVERT JUMPDEST DUP1 PUSH2 0x1AD2 JUMPI PUSH2 0xFED JUMP JUMPDEST PUSH2 0x1ADB DUP3 PUSH2 0x2CEF JUMP JUMPDEST PUSH1 0x1 PUSH1 0x1 PUSH1 0xA0 SHL SUB AND PUSH4 0x59D667A5 CALLER DUP4 PUSH1 0x40 MLOAD DUP4 PUSH4 0xFFFFFFFF AND PUSH1 0xE0 SHL DUP2 MSTORE PUSH1 0x4 ADD DUP1 DUP4 PUSH1 0x1 PUSH1 0x1 PUSH1 0xA0 SHL SUB AND PUSH1 0x1 PUSH1 0x1 PUSH1 0xA0 SHL SUB AND DUP2 MSTORE PUSH1 0x20 ADD DUP3 DUP2 MSTORE PUSH1 0x20 ADD SWAP3 POP POP POP PUSH1 0x0 PUSH1 0x40 MLOAD DUP1 DUP4 SUB DUP2 PUSH1 0x0 DUP8 DUP1 EXTCODESIZE ISZERO DUP1 ISZERO PUSH2 0x1B3A JUMPI PUSH1 0x0 DUP1 REVERT JUMPDEST POP GAS CALL ISZERO DUP1 ISZERO PUSH2 0x1B4E JUMPI RETURNDATASIZE PUSH1 0x0 DUP1 RETURNDATACOPY RETURNDATASIZE PUSH1 0x0 REVERT JUMPDEST POP POP POP POP CALLER PUSH1 0x1 PUSH1 0x1 PUSH1 0xA0 SHL SUB AND PUSH32 0x70BD4A33BF447720D717D08F3AFFB5AECFE4D2EBB8E3DD94539F5313E2447643 DUP4 DUP4 PUSH1 0x40 MLOAD DUP1 DUP4 PUSH1 0x1 DUP2 GT ISZERO PUSH2 0x1B8F JUMPI INVALID JUMPDEST PUSH1 0xFF AND DUP2 MSTORE PUSH1 0x20 ADD DUP3 DUP2 MSTORE PUSH1 0x20 ADD SWAP3 POP POP POP PUSH1 0x40 MLOAD DUP1 SWAP2 SUB SWAP1 LOG2 PUSH1 0x0 PUSH2 0x1BB4 DUP3 PUSH2 0x2D96 JUMP JUMPDEST SWAP1 POP PUSH2 0x1BBE PUSH2 0x21C4 JUMP JUMPDEST PUSH1 0x40 DUP1 MLOAD PUSH4 0x23B872DD PUSH1 0xE0 SHL DUP2 MSTORE CALLER PUSH1 0x4 DUP3 ADD MSTORE ADDRESS PUSH1 0x24 DUP3 ADD MSTORE PUSH1 0x44 DUP2 ADD DUP6 SWAP1 MSTORE SWAP1 MLOAD PUSH1 0x1 PUSH1 0x1 PUSH1 0xA0 SHL SUB SWAP3 SWAP1 SWAP3 AND SWAP2 PUSH4 0x23B872DD SWAP2 PUSH1 0x64 DUP1 DUP3 ADD SWAP3 PUSH1 0x20 SWAP3 SWAP1 SWAP2 SWAP1 DUP3 SWAP1 SUB ADD DUP2 PUSH1 0x0 DUP8 DUP1 EXTCODESIZE ISZERO DUP1 ISZERO PUSH2 0x1C16 JUMPI PUSH1 0x0 DUP1 REVERT JUMPDEST POP GAS CALL ISZERO DUP1 ISZERO PUSH2 0x1C2A JUMPI RETURNDATASIZE PUSH1 0x0 DUP1 RETURNDATACOPY RETURNDATASIZE PUSH1 0x0 REVERT JUMPDEST POP POP POP POP PUSH1 0x40 MLOAD RETURNDATASIZE PUSH1 0x20 DUP2 LT ISZERO PUSH2 0x1C40 JUMPI PUSH1 0x0 DUP1 REVERT JUMPDEST POP PUSH1 0x0 SWAP1 POP DUP1 PUSH2 0x1C4E PUSH2 0x27D0 JUMP JUMPDEST SWAP2 POP SWAP2 POP PUSH2 0x1C5D DUP3 DUP3 DUP6 PUSH2 0x2D27 JUMP JUMPDEST POP POP POP POP POP JUMP JUMPDEST PUSH1 0x0 DUP1 PUSH2 0x1C7C PUSH1 0x15 SLOAD DUP6 PUSH2 0x21DB SWAP1 SWAP2 SWAP1 PUSH4 0xFFFFFFFF AND JUMP JUMPDEST SWAP1 POP PUSH1 0x0 PUSH2 0x1C89 DUP7 PUSH2 0x2CEF JUMP JUMPDEST PUSH1 0x1 PUSH1 0x1 PUSH1 0xA0 SHL SUB AND PUSH4 0x8B034136 PUSH1 0x40 MLOAD DUP2 PUSH4 0xFFFFFFFF AND PUSH1 0xE0 SHL DUP2 MSTORE PUSH1 0x4 ADD PUSH1 0x20 PUSH1 0x40 MLOAD DUP1 DUP4 SUB DUP2 DUP7 DUP1 EXTCODESIZE ISZERO DUP1 ISZERO PUSH2 0x1CC1 JUMPI PUSH1 0x0 DUP1 REVERT JUMPDEST POP GAS STATICCALL ISZERO DUP1 ISZERO PUSH2 0x1CD5 JUMPI RETURNDATASIZE PUSH1 0x0 DUP1 RETURNDATACOPY RETURNDATASIZE PUSH1 0x0 REVERT JUMPDEST POP POP POP POP PUSH1 0x40 MLOAD RETURNDATASIZE PUSH1 0x20 DUP2 LT ISZERO PUSH2 0x1CEB JUMPI PUSH1 0x0 DUP1 REVERT JUMPDEST POP MLOAD PUSH1 0x13 SLOAD PUSH1 0x40 DUP1 MLOAD PUSH4 0x241EBDB PUSH1 0xE6 SHL DUP2 MSTORE SWAP1 MLOAD SWAP3 SWAP4 POP SWAP1 SWAP2 PUSH1 0x0 SWAP2 PUSH20 0x0 SWAP2 PUSH4 0x907AF6C0 SWAP2 PUSH1 0x4 DUP1 DUP3 ADD SWAP3 PUSH1 0x20 SWAP3 SWAP1 SWAP2 SWAP1 DUP3 SWAP1 SUB ADD DUP2 DUP7 DUP1 EXTCODESIZE ISZERO DUP1 ISZERO PUSH2 0x1D44 JUMPI PUSH1 0x0 DUP1 REVERT JUMPDEST POP GAS DELEGATECALL ISZERO DUP1 ISZERO PUSH2 0x1D58 JUMPI RETURNDATASIZE PUSH1 0x0 DUP1 RETURNDATACOPY RETURNDATASIZE PUSH1 0x0 REVERT JUMPDEST POP POP POP POP PUSH1 0x40 MLOAD RETURNDATASIZE PUSH1 0x20 DUP2 LT ISZERO PUSH2 0x1D6E JUMPI PUSH1 0x0 DUP1 REVERT JUMPDEST POP MLOAD PUSH1 0x10 SLOAD SWAP1 SWAP2 POP PUSH1 0x0 SWAP1 PUSH2 0x1D8A SWAP1 DUP4 SWAP1 PUSH4 0xFFFFFFFF PUSH2 0x2BB3 AND JUMP JUMPDEST SWAP1 POP DUP9 PUSH1 0x1 DUP2 GT ISZERO PUSH2 0x1D98 JUMPI INVALID JUMPDEST DUP11 PUSH1 0x1 DUP2 GT ISZERO PUSH2 0x1DA4 JUMPI INVALID JUMPDEST EQ ISZERO PUSH2 0x1E0E JUMPI PUSH1 0x0 PUSH2 0x1DBC DUP5 DUP8 PUSH4 0xFFFFFFFF PUSH2 0x21DB AND JUMP JUMPDEST SWAP1 POP DUP8 ISZERO PUSH2 0x1DD8 JUMPI SWAP4 PUSH2 0x1DD5 DUP7 DUP4 PUSH4 0xFFFFFFFF PUSH2 0x21DB AND JUMP JUMPDEST SWAP6 POP JUMPDEST PUSH2 0x1E01 PUSH2 0x1DEB DUP5 DUP9 PUSH4 0xFFFFFFFF PUSH2 0x2BB3 AND JUMP JUMPDEST PUSH2 0x1DF5 DUP4 DUP9 PUSH2 0x2E00 JUMP JUMPDEST SWAP1 PUSH4 0xFFFFFFFF PUSH2 0x2E27 AND JUMP JUMPDEST SWAP7 POP POP POP POP POP POP POP PUSH2 0x1E5D JUMP JUMPDEST PUSH1 0x0 PUSH2 0x1E20 DUP6 DUP8 PUSH4 0xFFFFFFFF PUSH2 0x2E27 AND JUMP JUMPDEST SWAP1 POP DUP8 ISZERO PUSH2 0x1E2A JUMPI SWAP3 JUMPDEST PUSH1 0x0 PUSH2 0x1E36 DUP3 DUP7 PUSH2 0x2E00 JUMP JUMPDEST SWAP1 POP DUP9 PUSH2 0x1E43 JUMPI DUP1 PUSH2 0x1E53 JUMP JUMPDEST PUSH2 0x1E53 DUP2 DUP5 PUSH4 0xFFFFFFFF PUSH2 0x2E27 AND JUMP JUMPDEST SWAP8 POP POP POP POP POP POP POP POP JUMPDEST SWAP5 SWAP4 POP POP POP POP JUMP JUMPDEST PUSH1 0x13 SLOAD DUP2 JUMP JUMPDEST PUSH1 0x0 DUP1 PUSH1 0x0 DUP1 PUSH2 0x1E79 PUSH2 0x27D0 JUMP JUMPDEST SWAP2 POP SWAP2 POP PUSH2 0x3117 DUP6 PUSH2 0x1E8D JUMPI PUSH2 0x21F7 PUSH2 0x1E91 JUMP JUMPDEST PUSH2 0x2BB3 JUMPDEST SWAP1 POP PUSH1 0x0 DUP9 PUSH1 0x1 DUP2 GT ISZERO PUSH2 0x1EA1 JUMPI INVALID JUMPDEST EQ ISZERO PUSH2 0x1EBC JUMPI PUSH2 0x1EB5 DUP4 DUP9 DUP4 PUSH4 0xFFFFFFFF AND JUMP JUMPDEST SWAP3 POP PUSH2 0x1ECD JUMP JUMPDEST PUSH2 0x1ECA DUP3 DUP9 DUP4 PUSH4 0xFFFFFFFF AND JUMP JUMPDEST SWAP2 POP JUMPDEST DUP6 ISZERO PUSH2 0x1F33 JUMPI PUSH2 0x1F30 PUSH2 0x1F23 PUSH1 0xE PUSH1 0x2 ADD SLOAD PUSH20 0x0 PUSH4 0x907AF6C0 PUSH1 0x40 MLOAD DUP2 PUSH4 0xFFFFFFFF AND PUSH1 0xE0 SHL DUP2 MSTORE PUSH1 0x4 ADD PUSH1 0x20 PUSH1 0x40 MLOAD DUP1 DUP4 SUB DUP2 DUP7 DUP1 EXTCODESIZE ISZERO DUP1 ISZERO PUSH2 0x1679 JUMPI PUSH1 0x0 DUP1 REVERT JUMPDEST DUP9 SWAP1 PUSH4 0xFFFFFFFF PUSH2 0x21DB AND JUMP JUMPDEST SWAP7 POP JUMPDEST PUSH2 0x1F4D DUP4 DUP4 PUSH2 0x1F48 PUSH1 0x13 SLOAD DUP12 DUP7 PUSH4 0xFFFFFFFF AND JUMP JUMPDEST PUSH2 0x2E3C JUMP JUMPDEST SWAP5 POP SWAP5 POP POP POP POP SWAP4 POP SWAP4 SWAP2 POP POP JUMP JUMPDEST PUSH1 0x0 SLOAD PUSH1 0x1 PUSH1 0x1 PUSH1 0xA0 SHL SUB AND CALLER EQ PUSH2 0x6FB JUMPI PUSH1 0x40 MLOAD PUSH3 0x461BCD PUSH1 0xE5 SHL DUP2 MSTORE PUSH1 0x4 ADD DUP1 DUP1 PUSH1 0x20 ADD DUP3 DUP2 SUB DUP3 MSTORE PUSH1 0x2F DUP2 MSTORE PUSH1 0x20 ADD DUP1 PUSH2 0x314F PUSH1 0x2F SWAP2 CODECOPY PUSH1 0x40 ADD SWAP2 POP POP PUSH1 0x40 MLOAD DUP1 SWAP2 SUB SWAP1 REVERT JUMPDEST PUSH1 0x14 SLOAD PUSH1 0x0 SWAP1 PUSH1 0x1 PUSH1 0xA0 SHL SWAP1 DIV PUSH1 0xFF AND PUSH2 0x1FD2 JUMPI PUSH1 0x15 SLOAD PUSH2 0x1FCD SWAP1 DUP4 SWAP1 PUSH4 0xFFFFFFFF PUSH2 0x21DB AND JUMP JUMPDEST PUSH2 0x1FD4 JUMP JUMPDEST DUP2 JUMPDEST SWAP1 POP JUMPDEST SWAP2 SWAP1 POP JUMP JUMPDEST PUSH1 0x0 PUSH2 0x695 PUSH12 0x53797374656D537461747573 PUSH1 0xA0 SHL PUSH2 0x2ECF JUMP JUMPDEST PUSH2 0x1FFE PUSH2 0x2B57 JUMP JUMPDEST PUSH1 0x1 PUSH1 0x1 PUSH1 0xA0 SHL SUB AND PUSH4 0x5C975ABB PUSH1 0x40 MLOAD DUP2 PUSH4 0xFFFFFFFF AND PUSH1 0xE0 SHL DUP2 MSTORE PUSH1 0x4 ADD PUSH1 0x20 PUSH1 0x40 MLOAD DUP1 DUP4 SUB DUP2 DUP7 DUP1 EXTCODESIZE ISZERO DUP1 ISZERO PUSH2 0x2036 JUMPI PUSH1 0x0 DUP1 REVERT JUMPDEST POP GAS STATICCALL ISZERO DUP1 ISZERO PUSH2 0x204A JUMPI RETURNDATASIZE PUSH1 0x0 DUP1 RETURNDATACOPY RETURNDATASIZE PUSH1 0x0 REVERT JUMPDEST POP POP POP POP PUSH1 0x40 MLOAD RETURNDATASIZE PUSH1 0x20 DUP2 LT ISZERO PUSH2 0x2060 JUMPI PUSH1 0x0 DUP1 REVERT JUMPDEST POP MLOAD ISZERO PUSH2 0x6FB JUMPI PUSH1 0x40 MLOAD PUSH3 0x461BCD PUSH1 0xE5 SHL DUP2 MSTORE PUSH1 0x4 ADD DUP1 DUP1 PUSH1 0x20 ADD DUP3 DUP2 SUB DUP3 MSTORE PUSH1 0x3C DUP2 MSTORE PUSH1 0x20 ADD DUP1 PUSH2 0x319F PUSH1 0x3C SWAP2 CODECOPY PUSH1 0x40 ADD SWAP2 POP POP PUSH1 0x40 MLOAD DUP1 SWAP2 SUB SWAP1 REVERT JUMPDEST PUSH1 0x9 SLOAD TIMESTAMP GT SWAP1 JUMP JUMPDEST PUSH1 0x0 DUP1 PUSH2 0x20B1 PUSH2 0x2FAC JUMP JUMPDEST PUSH1 0x1 PUSH1 0x1 PUSH1 0xA0 SHL SUB AND PUSH4 0x4308A94F PUSH1 0xB PUSH1 0x0 ADD SLOAD PUSH1 0x40 MLOAD DUP3 PUSH4 0xFFFFFFFF AND PUSH1 0xE0 SHL DUP2 MSTORE PUSH1 0x4 ADD DUP1 DUP3 DUP2 MSTORE PUSH1 0x20 ADD SWAP2 POP POP PUSH1 0x40 DUP1 MLOAD DUP1 DUP4 SUB DUP2 DUP7 DUP1 EXTCODESIZE ISZERO DUP1 ISZERO PUSH2 0x20F8 JUMPI PUSH1 0x0 DUP1 REVERT JUMPDEST POP GAS STATICCALL ISZERO DUP1 ISZERO PUSH2 0x210C JUMPI RETURNDATASIZE PUSH1 0x0 DUP1 RETURNDATACOPY RETURNDATASIZE PUSH1 0x0 REVERT JUMPDEST POP POP POP POP PUSH1 0x40 MLOAD RETURNDATASIZE PUSH1 0x40 DUP2 LT ISZERO PUSH2 0x2122 JUMPI PUSH1 0x0 DUP1 REVERT JUMPDEST POP DUP1 MLOAD PUSH1 0x20 SWAP1 SWAP2 ADD MLOAD SWAP1 SWAP3 POP SWAP1 POP SWAP1 SWAP2 JUMP JUMPDEST PUSH1 0x0 DUP1 PUSH2 0x213F PUSH2 0x2B57 JUMP JUMPDEST PUSH1 0x1 PUSH1 0x1 PUSH1 0xA0 SHL SUB AND PUSH4 0x4A41D89D PUSH1 0x40 MLOAD DUP2 PUSH4 0xFFFFFFFF AND PUSH1 0xE0 SHL DUP2 MSTORE PUSH1 0x4 ADD PUSH1 0x60 PUSH1 0x40 MLOAD DUP1 DUP4 SUB DUP2 DUP7 DUP1 EXTCODESIZE ISZERO DUP1 ISZERO PUSH2 0x2177 JUMPI PUSH1 0x0 DUP1 REVERT JUMPDEST POP GAS STATICCALL ISZERO DUP1 ISZERO PUSH2 0x218B JUMPI RETURNDATASIZE PUSH1 0x0 DUP1 RETURNDATACOPY RETURNDATASIZE PUSH1 0x0 REVERT JUMPDEST POP POP POP POP PUSH1 0x40 MLOAD RETURNDATASIZE PUSH1 0x60 DUP2 LT ISZERO PUSH2 0x21A1 JUMPI PUSH1 0x0 DUP1 REVERT JUMPDEST POP MLOAD PUSH1 0x9 SLOAD SWAP1 SWAP2 POP DUP4 SWAP1 PUSH2 0x21BB SWAP1 DUP4 PUSH4 0xFFFFFFFF PUSH2 0x2BB3 AND JUMP JUMPDEST GT ISZERO SWAP4 SWAP3 POP POP POP JUMP JUMPDEST PUSH1 0x0 PUSH2 0x695 PUSH9 0x14DE5B9D1A1CD554D1 PUSH1 0xBA SHL PUSH2 0x2ECF JUMP JUMPDEST PUSH1 0x0 PUSH2 0x21F0 DUP4 DUP4 PUSH8 0xDE0B6B3A7640000 PUSH2 0x2FC7 JUMP JUMPDEST SWAP4 SWAP3 POP POP POP JUMP JUMPDEST PUSH1 0x0 DUP3 DUP3 ADD DUP4 DUP2 LT ISZERO PUSH2 0x21F0 JUMPI PUSH1 0x40 DUP1 MLOAD PUSH3 0x461BCD PUSH1 0xE5 SHL DUP2 MSTORE PUSH1 0x20 PUSH1 0x4 DUP3 ADD MSTORE PUSH1 0x1B PUSH1 0x24 DUP3 ADD MSTORE PUSH32 0x536166654D6174683A206164646974696F6E206F766572666C6F770000000000 PUSH1 0x44 DUP3 ADD MSTORE SWAP1 MLOAD SWAP1 DUP2 SWAP1 SUB PUSH1 0x64 ADD SWAP1 REVERT JUMPDEST PUSH1 0x13 SLOAD PUSH1 0x0 SWAP1 PUSH2 0x2267 SWAP1 DUP4 PUSH4 0xFFFFFFFF PUSH2 0x2BB3 AND JUMP JUMPDEST PUSH1 0x13 DUP2 SWAP1 SSTORE SWAP1 POP PUSH2 0x2276 PUSH2 0x2B57 JUMP JUMPDEST PUSH1 0x1 PUSH1 0x1 PUSH1 0xA0 SHL SUB AND PUSH4 0x6B3A0984 DUP4 PUSH1 0x40 MLOAD DUP3 PUSH4 0xFFFFFFFF AND PUSH1 0xE0 SHL DUP2 MSTORE PUSH1 0x4 ADD DUP1 DUP3 DUP2 MSTORE PUSH1 0x20 ADD SWAP2 POP POP PUSH1 0x0 PUSH1 0x40 MLOAD DUP1 DUP4 SUB DUP2 PUSH1 0x0 DUP8 DUP1 EXTCODESIZE ISZERO DUP1 ISZERO PUSH2 0x22BB JUMPI PUSH1 0x0 DUP1 REVERT JUMPDEST POP GAS CALL ISZERO DUP1 ISZERO PUSH2 0x22CF JUMPI RETURNDATASIZE PUSH1 0x0 DUP1 RETURNDATACOPY RETURNDATASIZE PUSH1 0x0 REVERT JUMPDEST POP POP POP POP SWAP2 SWAP1 POP JUMP JUMPDEST PUSH1 0x0 PUSH2 0x695 PUSH7 0x119959541BDBDB PUSH1 0xCA SHL PUSH2 0x2ECF JUMP JUMPDEST PUSH1 0x14 SLOAD PUSH1 0x0 SWAP1 DUP2 SWAP1 PUSH1 0x1 PUSH1 0xA0 SHL SWAP1 DIV PUSH1 0xFF AND ISZERO PUSH2 0x230D JUMPI POP PUSH1 0xD SLOAD PUSH2 0x2319 JUMP JUMPDEST PUSH2 0x2315 PUSH2 0x20A6 JUMP JUMPDEST POP SWAP1 POP JUMPDEST PUSH1 0xC SLOAD DUP2 LT ISZERO PUSH2 0x232A JUMPI PUSH1 0x1 PUSH2 0x14DC JUMP JUMPDEST PUSH1 0x0 SWAP2 POP POP SWAP1 JUMP JUMPDEST PUSH1 0x4 DUP1 SLOAD PUSH1 0x40 DUP1 MLOAD PUSH4 0x8DC30B7 PUSH1 0xE4 SHL DUP2 MSTORE PUSH1 0x1 PUSH1 0x1 PUSH1 0xA0 SHL SUB DUP6 DUP2 AND SWAP5 DUP3 ADD SWAP5 SWAP1 SWAP5 MSTORE SWAP1 MLOAD PUSH1 0x0 SWAP4 DUP5 SWAP4 AND SWAP2 PUSH4 0x8DC30B70 SWAP2 PUSH1 0x24 DUP1 DUP4 ADD SWAP3 PUSH1 0x20 SWAP3 SWAP2 SWAP1 DUP3 SWAP1 SUB ADD DUP2 DUP7 DUP1 EXTCODESIZE ISZERO DUP1 ISZERO PUSH2 0x2384 JUMPI PUSH1 0x0 DUP1 REVERT JUMPDEST POP GAS STATICCALL ISZERO DUP1 ISZERO PUSH2 0x2398 JUMPI RETURNDATASIZE PUSH1 0x0 DUP1 RETURNDATACOPY RETURNDATASIZE PUSH1 0x0 REVERT JUMPDEST POP POP POP POP PUSH1 0x40 MLOAD RETURNDATASIZE PUSH1 0x20 DUP2 LT ISZERO PUSH2 0x23AE JUMPI PUSH1 0x0 DUP1 REVERT JUMPDEST POP MLOAD PUSH1 0x5 SLOAD PUSH1 0x40 DUP1 MLOAD PUSH4 0x8DC30B7 PUSH1 0xE4 SHL DUP2 MSTORE PUSH1 0x1 PUSH1 0x1 PUSH1 0xA0 SHL SUB DUP8 DUP2 AND PUSH1 0x4 DUP4 ADD MSTORE SWAP2 MLOAD SWAP2 SWAP1 SWAP3 AND SWAP2 PUSH4 0x8DC30B70 SWAP2 PUSH1 0x24 DUP1 DUP4 ADD SWAP3 PUSH1 0x20 SWAP3 SWAP2 SWAP1 DUP3 SWAP1 SUB ADD DUP2 DUP7 DUP1 EXTCODESIZE ISZERO DUP1 ISZERO PUSH2 0x23FD JUMPI PUSH1 0x0 DUP1 REVERT JUMPDEST POP GAS STATICCALL ISZERO DUP1 ISZERO PUSH2 0x2411 JUMPI RETURNDATASIZE PUSH1 0x0 DUP1 RETURNDATACOPY RETURNDATASIZE PUSH1 0x0 REVERT JUMPDEST POP POP POP POP PUSH1 0x40 MLOAD RETURNDATASIZE PUSH1 0x20 DUP2 LT ISZERO PUSH2 0x2427 JUMPI PUSH1 0x0 DUP1 REVERT JUMPDEST POP MLOAD SWAP1 SWAP3 POP SWAP1 POP SWAP2 POP SWAP2 JUMP JUMPDEST PUSH1 0x0 DUP1 PUSH2 0x243E PUSH2 0x1FDC JUMP JUMPDEST PUSH1 0x1 PUSH1 0x1 PUSH1 0xA0 SHL SUB AND PUSH4 0x86DABD1 PUSH1 0x40 MLOAD DUP2 PUSH4 0xFFFFFFFF AND PUSH1 0xE0 SHL DUP2 MSTORE PUSH1 0x4 ADD PUSH1 0x0 PUSH1 0x40 MLOAD DUP1 DUP4 SUB DUP2 DUP7 DUP1 EXTCODESIZE ISZERO DUP1 ISZERO PUSH2 0x2476 JUMPI PUSH1 0x0 DUP1 REVERT JUMPDEST POP GAS STATICCALL ISZERO DUP1 ISZERO PUSH2 0x248A JUMPI RETURNDATASIZE PUSH1 0x0 DUP1 RETURNDATACOPY RETURNDATASIZE PUSH1 0x0 REVERT JUMPDEST POP POP POP POP PUSH2 0x2496 PUSH2 0x1FF6 JUMP JUMPDEST PUSH2 0x249E PUSH2 0x27C8 JUMP JUMPDEST PUSH2 0x24E4 JUMPI PUSH1 0x40 DUP1 MLOAD PUSH3 0x461BCD PUSH1 0xE5 SHL DUP2 MSTORE PUSH1 0x20 PUSH1 0x4 DUP3 ADD MSTORE PUSH1 0x12 PUSH1 0x24 DUP3 ADD MSTORE PUSH18 0x42696464696E6720696E636F6D706C657465 PUSH1 0x70 SHL PUSH1 0x44 DUP3 ADD MSTORE SWAP1 MLOAD SWAP1 DUP2 SWAP1 SUB PUSH1 0x64 ADD SWAP1 REVERT JUMPDEST PUSH1 0x0 PUSH2 0x24F1 PUSH1 0x13 SLOAD PUSH2 0x1FA5 JUMP JUMPDEST SWAP1 POP PUSH1 0x0 PUSH2 0x24FD PUSH2 0x22ED JUMP JUMPDEST PUSH1 0x14 SLOAD SWAP1 SWAP2 POP PUSH1 0x1 PUSH1 0xA0 SHL SWAP1 DIV PUSH1 0xFF AND PUSH1 0x0 DUP1 DUP3 ISZERO DUP1 PUSH2 0x2528 JUMPI POP PUSH1 0x0 DUP5 PUSH1 0x1 DUP2 GT ISZERO PUSH2 0x2526 JUMPI INVALID JUMPDEST EQ JUMPDEST ISZERO PUSH2 0x25BC JUMPI PUSH1 0x4 DUP1 SLOAD PUSH1 0x6 SLOAD PUSH1 0x40 DUP1 MLOAD PUSH4 0x2BC43FD9 PUSH1 0xE0 SHL DUP2 MSTORE CALLER SWAP5 DUP2 ADD SWAP5 SWAP1 SWAP5 MSTORE PUSH1 0x24 DUP5 ADD SWAP2 SWAP1 SWAP2 MSTORE PUSH1 0x44 DUP4 ADD DUP9 SWAP1 MSTORE MLOAD PUSH1 0x1 PUSH1 0x1 PUSH1 0xA0 SHL SUB SWAP1 SWAP2 AND SWAP2 PUSH4 0x2BC43FD9 SWAP2 PUSH1 0x64 DUP1 DUP4 ADD SWAP3 PUSH1 0x20 SWAP3 SWAP2 SWAP1 DUP3 SWAP1 SUB ADD DUP2 PUSH1 0x0 DUP8 DUP1 EXTCODESIZE ISZERO DUP1 ISZERO PUSH2 0x258D JUMPI PUSH1 0x0 DUP1 REVERT JUMPDEST POP GAS CALL ISZERO DUP1 ISZERO PUSH2 0x25A1 JUMPI RETURNDATASIZE PUSH1 0x0 DUP1 RETURNDATACOPY RETURNDATASIZE PUSH1 0x0 REVERT JUMPDEST POP POP POP POP PUSH1 0x40 MLOAD RETURNDATASIZE PUSH1 0x20 DUP2 LT ISZERO PUSH2 0x25B7 JUMPI PUSH1 0x0 DUP1 REVERT JUMPDEST POP MLOAD SWAP2 POP JUMPDEST DUP3 ISZERO DUP1 PUSH2 0x25D4 JUMPI POP PUSH1 0x1 DUP5 PUSH1 0x1 DUP2 GT ISZERO PUSH2 0x25D2 JUMPI INVALID JUMPDEST EQ JUMPDEST ISZERO PUSH2 0x2666 JUMPI PUSH1 0x5 SLOAD PUSH1 0x7 SLOAD PUSH1 0x40 DUP1 MLOAD PUSH4 0x2BC43FD9 PUSH1 0xE0 SHL DUP2 MSTORE CALLER PUSH1 0x4 DUP3 ADD MSTORE PUSH1 0x24 DUP2 ADD SWAP3 SWAP1 SWAP3 MSTORE PUSH1 0x44 DUP3 ADD DUP9 SWAP1 MSTORE MLOAD PUSH1 0x1 PUSH1 0x1 PUSH1 0xA0 SHL SUB SWAP1 SWAP3 AND SWAP2 PUSH4 0x2BC43FD9 SWAP2 PUSH1 0x64 DUP1 DUP3 ADD SWAP3 PUSH1 0x20 SWAP3 SWAP1 SWAP2 SWAP1 DUP3 SWAP1 SUB ADD DUP2 PUSH1 0x0 DUP8 DUP1 EXTCODESIZE ISZERO DUP1 ISZERO PUSH2 0x2637 JUMPI PUSH1 0x0 DUP1 REVERT JUMPDEST POP GAS CALL ISZERO DUP1 ISZERO PUSH2 0x264B JUMPI RETURNDATASIZE PUSH1 0x0 DUP1 RETURNDATACOPY RETURNDATASIZE PUSH1 0x0 REVERT JUMPDEST POP POP POP POP PUSH1 0x40 MLOAD RETURNDATASIZE PUSH1 0x20 DUP2 LT ISZERO PUSH2 0x2661 JUMPI PUSH1 0x0 DUP1 REVERT JUMPDEST POP MLOAD SWAP1 POP JUMPDEST DUP2 ISZERO ISZERO DUP1 PUSH2 0x2673 JUMPI POP DUP1 ISZERO ISZERO JUMPDEST PUSH2 0x26B7 JUMPI PUSH1 0x40 DUP1 MLOAD PUSH3 0x461BCD PUSH1 0xE5 SHL DUP2 MSTORE PUSH1 0x20 PUSH1 0x4 DUP3 ADD MSTORE PUSH1 0x10 PUSH1 0x24 DUP3 ADD MSTORE PUSH16 0x4E6F7468696E6720746F20636C61696D PUSH1 0x80 SHL PUSH1 0x44 DUP3 ADD MSTORE SWAP1 MLOAD SWAP1 DUP2 SWAP1 SUB PUSH1 0x64 ADD SWAP1 REVERT JUMPDEST PUSH1 0x40 DUP1 MLOAD DUP4 DUP2 MSTORE PUSH1 0x20 DUP2 ADD DUP4 SWAP1 MSTORE DUP2 MLOAD CALLER SWAP3 PUSH32 0xBBE753CAA9BB201DBD1740EE3D61C6D2ADF5FA89F30233D732281AE5DB6A03D4 SWAP3 DUP3 SWAP1 SUB ADD SWAP1 LOG2 SWAP1 SWAP6 POP SWAP4 POP POP POP POP SWAP1 SWAP2 JUMP JUMPDEST PUSH1 0x4 DUP1 SLOAD PUSH1 0x40 DUP1 MLOAD PUSH4 0x270FB891 PUSH1 0xE2 SHL DUP2 MSTORE PUSH1 0x1 PUSH1 0x1 PUSH1 0xA0 SHL SUB DUP6 DUP2 AND SWAP5 DUP3 ADD SWAP5 SWAP1 SWAP5 MSTORE SWAP1 MLOAD PUSH1 0x0 SWAP4 DUP5 SWAP4 AND SWAP2 PUSH4 0x9C3EE244 SWAP2 PUSH1 0x24 DUP1 DUP4 ADD SWAP3 PUSH1 0x20 SWAP3 SWAP2 SWAP1 DUP3 SWAP1 SUB ADD DUP2 DUP7 DUP1 EXTCODESIZE ISZERO DUP1 ISZERO PUSH2 0x274F JUMPI PUSH1 0x0 DUP1 REVERT JUMPDEST POP GAS STATICCALL ISZERO DUP1 ISZERO PUSH2 0x2763 JUMPI RETURNDATASIZE PUSH1 0x0 DUP1 RETURNDATACOPY RETURNDATASIZE PUSH1 0x0 REVERT JUMPDEST POP POP POP POP PUSH1 0x40 MLOAD RETURNDATASIZE PUSH1 0x20 DUP2 LT ISZERO PUSH2 0x2779 JUMPI PUSH1 0x0 DUP1 REVERT JUMPDEST POP MLOAD PUSH1 0x5 SLOAD PUSH1 0x40 DUP1 MLOAD PUSH4 0x270FB891 PUSH1 0xE2 SHL DUP2 MSTORE PUSH1 0x1 PUSH1 0x1 PUSH1 0xA0 SHL SUB DUP8 DUP2 AND PUSH1 0x4 DUP4 ADD MSTORE SWAP2 MLOAD SWAP2 SWAP1 SWAP3 AND SWAP2 PUSH4 0x9C3EE244 SWAP2 PUSH1 0x24 DUP1 DUP4 ADD SWAP3 PUSH1 0x20 SWAP3 SWAP2 SWAP1 DUP3 SWAP1 SUB ADD DUP2 DUP7 DUP1 EXTCODESIZE ISZERO DUP1 ISZERO PUSH2 0x23FD JUMPI PUSH1 0x0 DUP1 REVERT JUMPDEST PUSH1 0x8 SLOAD TIMESTAMP GT SWAP1 JUMP JUMPDEST PUSH1 0x4 DUP1 SLOAD PUSH1 0x40 DUP1 MLOAD PUSH4 0x4581A09B PUSH1 0xE1 SHL DUP2 MSTORE SWAP1 MLOAD PUSH1 0x0 SWAP4 DUP5 SWAP4 PUSH1 0x1 PUSH1 0x1 PUSH1 0xA0 SHL SUB AND SWAP3 PUSH4 0x8B034136 SWAP3 DUP2 DUP4 ADD SWAP3 PUSH1 0x20 SWAP3 DUP3 SWAP1 SUB ADD DUP2 DUP7 DUP1 EXTCODESIZE ISZERO DUP1 ISZERO PUSH2 0x2814 JUMPI PUSH1 0x0 DUP1 REVERT JUMPDEST POP GAS STATICCALL ISZERO DUP1 ISZERO PUSH2 0x2828 JUMPI RETURNDATASIZE PUSH1 0x0 DUP1 RETURNDATACOPY RETURNDATASIZE PUSH1 0x0 REVERT JUMPDEST POP POP POP POP PUSH1 0x40 MLOAD RETURNDATASIZE PUSH1 0x20 DUP2 LT ISZERO PUSH2 0x283E JUMPI PUSH1 0x0 DUP1 REVERT JUMPDEST POP MLOAD PUSH1 0x5 SLOAD PUSH1 0x40 DUP1 MLOAD PUSH4 0x4581A09B PUSH1 0xE1 SHL DUP2 MSTORE SWAP1 MLOAD PUSH1 0x1 PUSH1 0x1 PUSH1 0xA0 SHL SUB SWAP1 SWAP3 AND SWAP2 PUSH4 0x8B034136 SWAP2 PUSH1 0x4 DUP2 DUP2 ADD SWAP3 PUSH1 0x20 SWAP3 SWAP1 SWAP2 SWAP1 DUP3 SWAP1 SUB ADD DUP2 DUP7 DUP1 EXTCODESIZE ISZERO DUP1 ISZERO PUSH2 0xCA5 JUMPI PUSH1 0x0 DUP1 REVERT JUMPDEST PUSH1 0x13 SLOAD DUP1 ISZERO PUSH2 0x2899 JUMPI PUSH2 0x2897 DUP2 PUSH2 0x2251 JUMP JUMPDEST POP JUMPDEST PUSH1 0x0 PUSH2 0x28A3 PUSH2 0x21C4 JUMP JUMPDEST PUSH1 0x40 DUP1 MLOAD PUSH4 0x70A08231 PUSH1 0xE0 SHL DUP2 MSTORE ADDRESS PUSH1 0x4 DUP3 ADD MSTORE SWAP1 MLOAD SWAP2 SWAP3 POP PUSH1 0x0 SWAP2 PUSH1 0x1 PUSH1 0x1 PUSH1 0xA0 SHL SUB DUP5 AND SWAP2 PUSH4 0x70A08231 SWAP2 PUSH1 0x24 DUP1 DUP4 ADD SWAP3 PUSH1 0x20 SWAP3 SWAP2 SWAP1 DUP3 SWAP1 SUB ADD DUP2 DUP7 DUP1 EXTCODESIZE ISZERO DUP1 ISZERO PUSH2 0x28EF JUMPI PUSH1 0x0 DUP1 REVERT JUMPDEST POP GAS STATICCALL ISZERO DUP1 ISZERO PUSH2 0x2903 JUMPI RETURNDATASIZE PUSH1 0x0 DUP1 RETURNDATACOPY RETURNDATASIZE PUSH1 0x0 REVERT JUMPDEST POP POP POP POP PUSH1 0x40 MLOAD RETURNDATASIZE PUSH1 0x20 DUP2 LT ISZERO PUSH2 0x2919 JUMPI PUSH1 0x0 DUP1 REVERT JUMPDEST POP MLOAD SWAP1 POP DUP1 ISZERO PUSH2 0x29B0 JUMPI DUP2 PUSH1 0x1 PUSH1 0x1 PUSH1 0xA0 SHL SUB AND PUSH4 0xA9059CBB DUP6 DUP4 PUSH1 0x40 MLOAD DUP4 PUSH4 0xFFFFFFFF AND PUSH1 0xE0 SHL DUP2 MSTORE PUSH1 0x4 ADD DUP1 DUP4 PUSH1 0x1 PUSH1 0x1 PUSH1 0xA0 SHL SUB AND PUSH1 0x1 PUSH1 0x1 PUSH1 0xA0 SHL SUB AND DUP2 MSTORE PUSH1 0x20 ADD DUP3 DUP2 MSTORE PUSH1 0x20 ADD SWAP3 POP POP POP PUSH1 0x20 PUSH1 0x40 MLOAD DUP1 DUP4 SUB DUP2 PUSH1 0x0 DUP8 DUP1 EXTCODESIZE ISZERO DUP1 ISZERO PUSH2 0x2983 JUMPI PUSH1 0x0 DUP1 REVERT JUMPDEST POP GAS CALL ISZERO DUP1 ISZERO PUSH2 0x2997 JUMPI RETURNDATASIZE PUSH1 0x0 DUP1 RETURNDATACOPY RETURNDATASIZE PUSH1 0x0 REVERT JUMPDEST POP POP POP POP PUSH1 0x40 MLOAD RETURNDATASIZE PUSH1 0x20 DUP2 LT ISZERO PUSH2 0x29AD JUMPI PUSH1 0x0 DUP1 REVERT JUMPDEST POP POP JUMPDEST PUSH1 0x4 DUP1 SLOAD PUSH1 0x40 DUP1 MLOAD PUSH4 0x646D919F PUSH1 0xE1 SHL DUP2 MSTORE PUSH1 0x1 PUSH1 0x1 PUSH1 0xA0 SHL SUB DUP9 DUP2 AND SWAP5 DUP3 ADD SWAP5 SWAP1 SWAP5 MSTORE SWAP1 MLOAD SWAP3 SWAP1 SWAP2 AND SWAP2 PUSH4 0xC8DB233E SWAP2 PUSH1 0x24 DUP1 DUP3 ADD SWAP3 PUSH1 0x0 SWAP3 SWAP1 SWAP2 SWAP1 DUP3 SWAP1 SUB ADD DUP2 DUP4 DUP8 DUP1 EXTCODESIZE ISZERO DUP1 ISZERO PUSH2 0x2A02 JUMPI PUSH1 0x0 DUP1 REVERT JUMPDEST POP GAS CALL ISZERO DUP1 ISZERO PUSH2 0x2A16 JUMPI RETURNDATASIZE PUSH1 0x0 DUP1 RETURNDATACOPY RETURNDATASIZE PUSH1 0x0 REVERT JUMPDEST POP POP PUSH1 0x5 SLOAD PUSH1 0x40 DUP1 MLOAD PUSH4 0x646D919F PUSH1 0xE1 SHL DUP2 MSTORE PUSH1 0x1 PUSH1 0x1 PUSH1 0xA0 SHL SUB DUP10 DUP2 AND PUSH1 0x4 DUP4 ADD MSTORE SWAP2 MLOAD SWAP2 SWAP1 SWAP3 AND SWAP4 POP PUSH4 0xC8DB233E SWAP3 POP PUSH1 0x24 DUP1 DUP4 ADD SWAP3 PUSH1 0x0 SWAP3 SWAP2 SWAP1 DUP3 SWAP1 SUB ADD DUP2 DUP4 DUP8 DUP1 EXTCODESIZE ISZERO DUP1 ISZERO PUSH2 0x2A68 JUMPI PUSH1 0x0 DUP1 REVERT JUMPDEST POP GAS CALL ISZERO DUP1 ISZERO PUSH2 0x2A7C JUMPI RETURNDATASIZE PUSH1 0x0 DUP1 RETURNDATACOPY RETURNDATASIZE PUSH1 0x0 REVERT JUMPDEST POP POP POP POP DUP4 PUSH1 0x1 PUSH1 0x1 PUSH1 0xA0 SHL SUB AND SELFDESTRUCT JUMPDEST PUSH1 0x4 DUP1 SLOAD PUSH1 0x40 DUP1 MLOAD PUSH4 0x70A08231 PUSH1 0xE0 SHL DUP2 MSTORE PUSH1 0x1 PUSH1 0x1 PUSH1 0xA0 SHL SUB DUP6 DUP2 AND SWAP5 DUP3 ADD SWAP5 SWAP1 SWAP5 MSTORE SWAP1 MLOAD PUSH1 0x0 SWAP4 DUP5 SWAP4 AND SWAP2 PUSH4 0x70A08231 SWAP2 PUSH1 0x24 DUP1 DUP4 ADD SWAP3 PUSH1 0x20 SWAP3 SWAP2 SWAP1 DUP3 SWAP1 SUB ADD DUP2 DUP7 DUP1 EXTCODESIZE ISZERO DUP1 ISZERO PUSH2 0x2ADE JUMPI PUSH1 0x0 DUP1 REVERT JUMPDEST POP GAS STATICCALL ISZERO DUP1 ISZERO PUSH2 0x2AF2 JUMPI RETURNDATASIZE PUSH1 0x0 DUP1 RETURNDATACOPY RETURNDATASIZE PUSH1 0x0 REVERT JUMPDEST POP POP POP POP PUSH1 0x40 MLOAD RETURNDATASIZE PUSH1 0x20 DUP2 LT ISZERO PUSH2 0x2B08 JUMPI PUSH1 0x0 DUP1 REVERT JUMPDEST POP MLOAD PUSH1 0x5 SLOAD PUSH1 0x40 DUP1 MLOAD PUSH4 0x70A08231 PUSH1 0xE0 SHL DUP2 MSTORE PUSH1 0x1 PUSH1 0x1 PUSH1 0xA0 SHL SUB DUP8 DUP2 AND PUSH1 0x4 DUP4 ADD MSTORE SWAP2 MLOAD SWAP2 SWAP1 SWAP3 AND SWAP2 PUSH4 0x70A08231 SWAP2 PUSH1 0x24 DUP1 DUP4 ADD SWAP3 PUSH1 0x20 SWAP3 SWAP2 SWAP1 DUP3 SWAP1 SUB ADD DUP2 DUP7 DUP1 EXTCODESIZE ISZERO DUP1 ISZERO PUSH2 0x23FD JUMPI PUSH1 0x0 DUP1 REVERT JUMPDEST PUSH1 0x0 SLOAD PUSH1 0x1 PUSH1 0x1 PUSH1 0xA0 SHL SUB AND SWAP1 JUMP JUMPDEST PUSH1 0x0 DUP1 DUP5 PUSH1 0x1 DUP2 GT ISZERO PUSH2 0x2B75 JUMPI INVALID JUMPDEST EQ ISZERO PUSH2 0x2B82 JUMPI POP DUP2 PUSH2 0x21F0 JUMP JUMPDEST POP SWAP3 SWAP2 POP POP JUMP JUMPDEST PUSH1 0x14 SLOAD PUSH1 0x0 SWAP1 PUSH1 0x1 PUSH1 0xA0 SHL SWAP1 DIV PUSH1 0xFF AND DUP1 ISZERO PUSH2 0x695 JUMPI POP PUSH1 0xA SLOAD TIMESTAMP GT DUP1 PUSH2 0x695 JUMPI POP POP PUSH1 0x13 SLOAD ISZERO SWAP1 JUMP JUMPDEST PUSH1 0x0 DUP3 DUP3 GT ISZERO PUSH2 0x2C0A JUMPI PUSH1 0x40 DUP1 MLOAD PUSH3 0x461BCD PUSH1 0xE5 SHL DUP2 MSTORE PUSH1 0x20 PUSH1 0x4 DUP3 ADD MSTORE PUSH1 0x1E PUSH1 0x24 DUP3 ADD MSTORE PUSH32 0x536166654D6174683A207375627472616374696F6E206F766572666C6F770000 PUSH1 0x44 DUP3 ADD MSTORE SWAP1 MLOAD SWAP1 DUP2 SWAP1 SUB PUSH1 0x64 ADD SWAP1 REVERT JUMPDEST POP SWAP1 SUB SWAP1 JUMP JUMPDEST PUSH1 0x0 PUSH2 0x2C22 DUP4 DUP4 PUSH4 0xFFFFFFFF PUSH2 0x21F7 AND JUMP JUMPDEST SWAP1 POP DUP1 PUSH1 0x11 PUSH1 0x0 ADD SLOAD GT ISZERO PUSH2 0x2C75 JUMPI PUSH1 0x40 DUP1 MLOAD PUSH3 0x461BCD PUSH1 0xE5 SHL DUP2 MSTORE PUSH1 0x20 PUSH1 0x4 DUP3 ADD MSTORE PUSH1 0x14 PUSH1 0x24 DUP3 ADD MSTORE PUSH20 0x125B9CDD59999A58DA595B9D0818D85C1A5D185B PUSH1 0x62 SHL PUSH1 0x44 DUP3 ADD MSTORE SWAP1 MLOAD SWAP1 DUP2 SWAP1 SUB PUSH1 0x64 ADD SWAP1 REVERT JUMPDEST PUSH1 0x12 SLOAD PUSH2 0x2C88 DUP5 DUP4 PUSH4 0xFFFFFFFF PUSH2 0x3004 AND JUMP JUMPDEST DUP2 GT ISZERO DUP1 ISZERO PUSH2 0x2CA6 JUMPI POP PUSH2 0x2CA2 DUP4 DUP4 PUSH4 0xFFFFFFFF PUSH2 0x3004 AND JUMP JUMPDEST DUP2 GT ISZERO JUMPDEST PUSH2 0x2CE9 JUMPI PUSH1 0x40 DUP1 MLOAD PUSH3 0x461BCD PUSH1 0xE5 SHL DUP2 MSTORE PUSH1 0x20 PUSH1 0x4 DUP3 ADD MSTORE PUSH1 0xF PUSH1 0x24 DUP3 ADD MSTORE PUSH15 0x109A591CC81D1BDBC81CDAD95DD959 PUSH1 0x8A SHL PUSH1 0x44 DUP3 ADD MSTORE SWAP1 MLOAD SWAP1 DUP2 SWAP1 SUB PUSH1 0x64 ADD SWAP1 REVERT JUMPDEST POP POP POP POP JUMP JUMPDEST PUSH1 0x0 DUP1 DUP3 PUSH1 0x1 DUP2 GT ISZERO PUSH2 0x2CFE JUMPI INVALID JUMPDEST EQ ISZERO PUSH2 0x2D16 JUMPI POP PUSH1 0x4 SLOAD PUSH1 0x1 PUSH1 0x1 PUSH1 0xA0 SHL SUB AND PUSH2 0x1FD7 JUMP JUMPDEST POP POP PUSH1 0x5 SLOAD PUSH1 0x1 PUSH1 0x1 PUSH1 0xA0 SHL SUB AND SWAP1 JUMP JUMPDEST PUSH1 0x0 DUP1 PUSH2 0x2D35 DUP6 DUP6 DUP6 PUSH2 0x2E3C JUMP JUMPDEST PUSH1 0x40 DUP1 MLOAD DUP1 DUP3 ADD DUP3 MSTORE DUP4 DUP2 MSTORE PUSH1 0x20 SWAP1 DUP2 ADD DUP4 SWAP1 MSTORE PUSH1 0x6 DUP5 SWAP1 SSTORE PUSH1 0x7 DUP4 SWAP1 SSTORE DUP2 MLOAD DUP5 DUP2 MSTORE SWAP1 DUP2 ADD DUP4 SWAP1 MSTORE DUP2 MLOAD SWAP4 SWAP6 POP SWAP2 SWAP4 POP PUSH32 0x6546F60F34DF611FA42503098ACC39D5AB88BC73FEBE64B3CC14E5A92E3A66A7 SWAP3 SWAP2 DUP3 SWAP1 SUB ADD SWAP1 LOG1 POP POP POP POP POP JUMP JUMPDEST PUSH1 0x13 SLOAD PUSH1 0x0 SWAP1 PUSH2 0x2DAC SWAP1 DUP4 PUSH4 0xFFFFFFFF PUSH2 0x21F7 AND JUMP JUMPDEST PUSH1 0x13 DUP2 SWAP1 SSTORE SWAP1 POP PUSH2 0x2DBB PUSH2 0x2B57 JUMP JUMPDEST PUSH1 0x1 PUSH1 0x1 PUSH1 0xA0 SHL SUB AND PUSH4 0xAEAB5849 DUP4 PUSH1 0x40 MLOAD DUP3 PUSH4 0xFFFFFFFF AND PUSH1 0xE0 SHL DUP2 MSTORE PUSH1 0x4 ADD DUP1 DUP3 DUP2 MSTORE PUSH1 0x20 ADD SWAP2 POP POP PUSH1 0x0 PUSH1 0x40 MLOAD DUP1 DUP4 SUB DUP2 PUSH1 0x0 DUP8 DUP1 EXTCODESIZE ISZERO DUP1 ISZERO PUSH2 0x22BB JUMPI PUSH1 0x0 DUP1 REVERT JUMPDEST PUSH1 0x0 DUP2 DUP4 LT PUSH2 0x2E1E JUMPI PUSH2 0x2E19 DUP4 DUP4 PUSH4 0xFFFFFFFF PUSH2 0x2BB3 AND JUMP JUMPDEST PUSH2 0x21F0 JUMP JUMPDEST POP PUSH1 0x0 SWAP3 SWAP2 POP POP JUMP JUMPDEST PUSH1 0x0 PUSH2 0x21F0 DUP4 DUP4 PUSH8 0xDE0B6B3A7640000 PUSH2 0x302E JUMP JUMPDEST PUSH1 0x0 DUP1 DUP5 ISZERO DUP1 ISZERO SWAP1 PUSH2 0x2E4D JUMPI POP DUP4 ISZERO ISZERO JUMPDEST PUSH2 0x2E95 JUMPI PUSH1 0x40 DUP1 MLOAD PUSH3 0x461BCD PUSH1 0xE5 SHL DUP2 MSTORE PUSH1 0x20 PUSH1 0x4 DUP3 ADD MSTORE PUSH1 0x14 PUSH1 0x24 DUP3 ADD MSTORE PUSH20 0x42696473206D757374206265206E6F6E7A65726F PUSH1 0x60 SHL PUSH1 0x44 DUP3 ADD MSTORE SWAP1 MLOAD SWAP1 DUP2 SWAP1 SUB PUSH1 0x64 ADD SWAP1 REVERT JUMPDEST PUSH1 0x0 PUSH2 0x2EA0 DUP5 PUSH2 0x1FA5 JUMP JUMPDEST SWAP1 POP PUSH2 0x2EB2 DUP7 DUP3 PUSH4 0xFFFFFFFF PUSH2 0x2E27 AND JUMP JUMPDEST PUSH2 0x2EC2 DUP7 DUP4 PUSH4 0xFFFFFFFF PUSH2 0x2E27 AND JUMP JUMPDEST SWAP3 POP SWAP3 POP POP SWAP4 POP SWAP4 SWAP2 POP POP JUMP JUMPDEST PUSH1 0x0 DUP2 DUP2 MSTORE PUSH1 0x3 PUSH1 0x20 SWAP1 DUP2 MSTORE PUSH1 0x40 DUP1 DUP4 KECCAK256 SLOAD DUP2 MLOAD PUSH17 0x26B4B9B9B4B7339030B2323932B9B99D1 PUSH1 0x7D SHL SWAP4 DUP2 ADD SWAP4 SWAP1 SWAP4 MSTORE PUSH1 0x31 DUP1 DUP5 ADD DUP7 SWAP1 MSTORE DUP3 MLOAD DUP1 DUP6 SUB SWAP1 SWAP2 ADD DUP2 MSTORE PUSH1 0x51 SWAP1 SWAP4 ADD SWAP1 SWAP2 MSTORE PUSH1 0x1 PUSH1 0x1 PUSH1 0xA0 SHL SUB AND SWAP1 DUP2 PUSH2 0x2B82 JUMPI PUSH1 0x40 MLOAD PUSH3 0x461BCD PUSH1 0xE5 SHL DUP2 MSTORE PUSH1 0x4 ADD DUP1 DUP1 PUSH1 0x20 ADD DUP3 DUP2 SUB DUP3 MSTORE DUP4 DUP2 DUP2 MLOAD DUP2 MSTORE PUSH1 0x20 ADD SWAP2 POP DUP1 MLOAD SWAP1 PUSH1 0x20 ADD SWAP1 DUP1 DUP4 DUP4 PUSH1 0x0 JUMPDEST DUP4 DUP2 LT ISZERO PUSH2 0x2F71 JUMPI DUP2 DUP2 ADD MLOAD DUP4 DUP3 ADD MSTORE PUSH1 0x20 ADD PUSH2 0x2F59 JUMP JUMPDEST POP POP POP POP SWAP1 POP SWAP1 DUP2 ADD SWAP1 PUSH1 0x1F AND DUP1 ISZERO PUSH2 0x2F9E JUMPI DUP1 DUP3 SUB DUP1 MLOAD PUSH1 0x1 DUP4 PUSH1 0x20 SUB PUSH2 0x100 EXP SUB NOT AND DUP2 MSTORE PUSH1 0x20 ADD SWAP2 POP JUMPDEST POP SWAP3 POP POP POP PUSH1 0x40 MLOAD DUP1 SWAP2 SUB SWAP1 REVERT JUMPDEST PUSH1 0x0 PUSH2 0x695 PUSH13 0x45786368616E67655261746573 PUSH1 0x98 SHL PUSH2 0x2ECF JUMP JUMPDEST PUSH1 0x0 DUP1 PUSH1 0xA DUP4 DIV PUSH2 0x2FDE DUP7 DUP7 PUSH4 0xFFFFFFFF PUSH2 0x3054 AND JUMP JUMPDEST DUP2 PUSH2 0x2FE5 JUMPI INVALID JUMPDEST DIV SWAP1 POP PUSH1 0x5 PUSH1 0xA DUP3 JUMPDEST MOD LT PUSH2 0x2FF8 JUMPI PUSH1 0xA ADD JUMPDEST PUSH1 0xA SWAP1 DIV SWAP5 SWAP4 POP POP POP POP JUMP JUMPDEST PUSH1 0x0 PUSH2 0x21F0 DUP3 PUSH2 0x3022 DUP6 PUSH8 0xDE0B6B3A7640000 PUSH4 0xFFFFFFFF PUSH2 0x3054 AND JUMP JUMPDEST SWAP1 PUSH4 0xFFFFFFFF PUSH2 0x30AD AND JUMP JUMPDEST PUSH1 0x0 DUP1 PUSH2 0x3048 DUP5 PUSH2 0x3022 DUP8 PUSH1 0xA DUP8 MUL PUSH4 0xFFFFFFFF PUSH2 0x3054 AND JUMP JUMPDEST SWAP1 POP PUSH1 0x5 PUSH1 0xA DUP3 PUSH2 0x2FEE JUMP JUMPDEST PUSH1 0x0 DUP3 PUSH2 0x3063 JUMPI POP PUSH1 0x0 PUSH2 0x1867 JUMP JUMPDEST DUP3 DUP3 MUL DUP3 DUP5 DUP3 DUP2 PUSH2 0x3070 JUMPI INVALID JUMPDEST DIV EQ PUSH2 0x21F0 JUMPI PUSH1 0x40 MLOAD PUSH3 0x461BCD PUSH1 0xE5 SHL DUP2 MSTORE PUSH1 0x4 ADD DUP1 DUP1 PUSH1 0x20 ADD DUP3 DUP2 SUB DUP3 MSTORE PUSH1 0x21 DUP2 MSTORE PUSH1 0x20 ADD DUP1 PUSH2 0x317E PUSH1 0x21 SWAP2 CODECOPY PUSH1 0x40 ADD SWAP2 POP POP PUSH1 0x40 MLOAD DUP1 SWAP2 SUB SWAP1 REVERT JUMPDEST PUSH1 0x0 DUP1 DUP3 GT PUSH2 0x3103 JUMPI PUSH1 0x40 DUP1 MLOAD PUSH3 0x461BCD PUSH1 0xE5 SHL DUP2 MSTORE PUSH1 0x20 PUSH1 0x4 DUP3 ADD MSTORE PUSH1 0x1A PUSH1 0x24 DUP3 ADD MSTORE PUSH32 0x536166654D6174683A206469766973696F6E206279207A65726F000000000000 PUSH1 0x44 DUP3 ADD MSTORE SWAP1 MLOAD SWAP1 DUP2 SWAP1 SUB PUSH1 0x64 ADD SWAP1 REVERT JUMPDEST PUSH1 0x0 DUP3 DUP5 DUP2 PUSH2 0x310E JUMPI INVALID JUMPDEST DIV SWAP5 SWAP4 POP POP POP POP JUMP JUMPDEST INVALID INVALID MSIZE PUSH16 0x75206D757374206265206E6F6D696E61 PUSH21 0x6564206265666F726520796F752063616E20616363 PUSH6 0x7074206F776E PUSH6 0x72736869704F PUSH15 0x6C792074686520636F6E7472616374 KECCAK256 PUSH16 0x776E6572206D617920706572666F726D KECCAK256 PUSH21 0x68697320616374696F6E536166654D6174683A206D PUSH22 0x6C7469706C69636174696F6E206F766572666C6F7754 PUSH9 0x697320616374696F6E KECCAK256 PUSH4 0x616E6E6F PUSH21 0x20626520706572666F726D6564207768696C652074 PUSH9 0x6520636F6E74726163 PUSH21 0x20697320706175736564A265627A7A7231582074AF GASPRICE CODECOPY SWAP3 0x25 MSTORE COINBASE CALLDATASIZE ADDRESS 0xC5 0x24 0xB8 POP CREATE2 SWAP6 0xE 0xF9 PUSH13 0x60155E0F9D04844A945ACEEE09 PUSH5 0x736F6C6343 STOP SDIV GT STOP ORIGIN PUSH1 0x80 PUSH1 0x40 MSTORE CALLVALUE DUP1 ISZERO PUSH2 0x10 JUMPI PUSH1 0x0 DUP1 REVERT JUMPDEST POP PUSH1 0x40 MLOAD PUSH2 0x114A CODESIZE SUB DUP1 PUSH2 0x114A DUP4 CODECOPY DUP2 DUP2 ADD PUSH1 0x40 MSTORE PUSH1 0x40 DUP2 LT ISZERO PUSH2 0x33 JUMPI PUSH1 0x0 DUP1 REVERT JUMPDEST POP DUP1 MLOAD PUSH1 0x20 SWAP2 DUP3 ADD MLOAD PUSH1 0x0 DUP1 SLOAD PUSH1 0x1 PUSH1 0x1 PUSH1 0xA0 SHL SUB NOT AND CALLER OR DUP2 SSTORE PUSH1 0x1 PUSH1 0x1 PUSH1 0xA0 SHL SUB SWAP1 SWAP3 AND DUP3 MSTORE PUSH1 0x1 SWAP1 SWAP3 MSTORE PUSH1 0x40 SWAP1 KECCAK256 DUP2 SWAP1 SSTORE PUSH1 0x2 SSTORE PUSH2 0x10D1 DUP1 PUSH2 0x79 PUSH1 0x0 CODECOPY PUSH1 0x0 RETURN INVALID PUSH1 0x80 PUSH1 0x40 MSTORE CALLVALUE DUP1 ISZERO PUSH2 0x10 JUMPI PUSH1 0x0 DUP1 REVERT JUMPDEST POP PUSH1 0x4 CALLDATASIZE LT PUSH2 0x121 JUMPI PUSH1 0x0 CALLDATALOAD PUSH1 0xE0 SHR DUP1 PUSH4 0x70A08231 GT PUSH2 0xAD JUMPI DUP1 PUSH4 0x9C3EE244 GT PUSH2 0x71 JUMPI DUP1 PUSH4 0x9C3EE244 EQ PUSH2 0x383 JUMPI DUP1 PUSH4 0xA9059CBB EQ PUSH2 0x3A9 JUMPI DUP1 PUSH4 0xC8DB233E EQ PUSH2 0x3D5 JUMPI DUP1 PUSH4 0xD6FF02E2 EQ PUSH2 0x3FB JUMPI DUP1 PUSH4 0xDD62ED3E EQ PUSH2 0x403 JUMPI PUSH2 0x121 JUMP JUMPDEST DUP1 PUSH4 0x70A08231 EQ PUSH2 0x303 JUMPI DUP1 PUSH4 0x80F55605 EQ PUSH2 0x329 JUMPI DUP1 PUSH4 0x8B034136 EQ PUSH2 0x34D JUMPI DUP1 PUSH4 0x8DC30B70 EQ PUSH2 0x355 JUMPI DUP1 PUSH4 0x95D89B41 EQ PUSH2 0x37B JUMPI PUSH2 0x121 JUMP JUMPDEST DUP1 PUSH4 0x23B872DD GT PUSH2 0xF4 JUMPI DUP1 PUSH4 0x23B872DD EQ PUSH2 0x225 JUMPI DUP1 PUSH4 0x2BC43FD9 EQ PUSH2 0x25B JUMPI DUP1 PUSH4 0x313CE567 EQ PUSH2 0x28D JUMPI DUP1 PUSH4 0x410085DF EQ PUSH2 0x2AB JUMPI DUP1 PUSH4 0x59D667A5 EQ PUSH2 0x2D7 JUMPI PUSH2 0x121 JUMP JUMPDEST DUP1 PUSH4 0x6FDDE03 EQ PUSH2 0x126 JUMPI DUP1 PUSH4 0x95EA7B3 EQ PUSH2 0x1A3 JUMPI DUP1 PUSH4 0x18160DDD EQ PUSH2 0x1E3 JUMPI DUP1 PUSH4 0x1B15982A EQ PUSH2 0x1FD JUMPI JUMPDEST PUSH1 0x0 DUP1 REVERT JUMPDEST PUSH2 0x12E PUSH2 0x431 JUMP JUMPDEST PUSH1 0x40 DUP1 MLOAD PUSH1 0x20 DUP1 DUP3 MSTORE DUP4 MLOAD DUP2 DUP4 ADD MSTORE DUP4 MLOAD SWAP2 SWAP3 DUP4 SWAP3 SWAP1 DUP4 ADD SWAP2 DUP6 ADD SWAP1 DUP1 DUP4 DUP4 PUSH1 0x0 JUMPDEST DUP4 DUP2 LT ISZERO PUSH2 0x168 JUMPI DUP2 DUP2 ADD MLOAD DUP4 DUP3 ADD MSTORE PUSH1 0x20 ADD PUSH2 0x150 JUMP JUMPDEST POP POP POP POP SWAP1 POP SWAP1 DUP2 ADD SWAP1 PUSH1 0x1F AND DUP1 ISZERO PUSH2 0x195 JUMPI DUP1 DUP3 SUB DUP1 MLOAD PUSH1 0x1 DUP4 PUSH1 0x20 SUB PUSH2 0x100 EXP SUB NOT AND DUP2 MSTORE PUSH1 0x20 ADD SWAP2 POP JUMPDEST POP SWAP3 POP POP POP PUSH1 0x40 MLOAD DUP1 SWAP2 SUB SWAP1 RETURN JUMPDEST PUSH2 0x1CF PUSH1 0x4 DUP1 CALLDATASIZE SUB PUSH1 0x40 DUP2 LT ISZERO PUSH2 0x1B9 JUMPI PUSH1 0x0 DUP1 REVERT JUMPDEST POP PUSH1 0x1 PUSH1 0x1 PUSH1 0xA0 SHL SUB DUP2 CALLDATALOAD AND SWAP1 PUSH1 0x20 ADD CALLDATALOAD PUSH2 0x45E JUMP JUMPDEST PUSH1 0x40 DUP1 MLOAD SWAP2 ISZERO ISZERO DUP3 MSTORE MLOAD SWAP1 DUP2 SWAP1 SUB PUSH1 0x20 ADD SWAP1 RETURN JUMPDEST PUSH2 0x1EB PUSH2 0x4DB JUMP JUMPDEST PUSH1 0x40 DUP1 MLOAD SWAP2 DUP3 MSTORE MLOAD SWAP1 DUP2 SWAP1 SUB PUSH1 0x20 ADD SWAP1 RETURN JUMPDEST PUSH2 0x223 PUSH1 0x4 DUP1 CALLDATASIZE SUB PUSH1 0x20 DUP2 LT ISZERO PUSH2 0x213 JUMPI PUSH1 0x0 DUP1 REVERT JUMPDEST POP CALLDATALOAD PUSH1 0x1 PUSH1 0x1 PUSH1 0xA0 SHL SUB AND PUSH2 0x4E1 JUMP JUMPDEST STOP JUMPDEST PUSH2 0x1CF PUSH1 0x4 DUP1 CALLDATASIZE SUB PUSH1 0x60 DUP2 LT ISZERO PUSH2 0x23B JUMPI PUSH1 0x0 DUP1 REVERT JUMPDEST POP PUSH1 0x1 PUSH1 0x1 PUSH1 0xA0 SHL SUB DUP2 CALLDATALOAD DUP2 AND SWAP2 PUSH1 0x20 DUP2 ADD CALLDATALOAD SWAP1 SWAP2 AND SWAP1 PUSH1 0x40 ADD CALLDATALOAD PUSH2 0x60E JUMP JUMPDEST PUSH2 0x1EB PUSH1 0x4 DUP1 CALLDATASIZE SUB PUSH1 0x60 DUP2 LT ISZERO PUSH2 0x271 JUMPI PUSH1 0x0 DUP1 REVERT JUMPDEST POP PUSH1 0x1 PUSH1 0x1 PUSH1 0xA0 SHL SUB DUP2 CALLDATALOAD AND SWAP1 PUSH1 0x20 DUP2 ADD CALLDATALOAD SWAP1 PUSH1 0x40 ADD CALLDATALOAD PUSH2 0x6CA JUMP JUMPDEST PUSH2 0x295 PUSH2 0x861 JUMP JUMPDEST PUSH1 0x40 DUP1 MLOAD PUSH1 0xFF SWAP1 SWAP3 AND DUP3 MSTORE MLOAD SWAP1 DUP2 SWAP1 SUB PUSH1 0x20 ADD SWAP1 RETURN JUMPDEST PUSH2 0x223 PUSH1 0x4 DUP1 CALLDATASIZE SUB PUSH1 0x40 DUP2 LT ISZERO PUSH2 0x2C1 JUMPI PUSH1 0x0 DUP1 REVERT JUMPDEST POP PUSH1 0x1 PUSH1 0x1 PUSH1 0xA0 SHL SUB DUP2 CALLDATALOAD AND SWAP1 PUSH1 0x20 ADD CALLDATALOAD PUSH2 0x866 JUMP JUMPDEST PUSH2 0x223 PUSH1 0x4 DUP1 CALLDATASIZE SUB PUSH1 0x40 DUP2 LT ISZERO PUSH2 0x2ED JUMPI PUSH1 0x0 DUP1 REVERT JUMPDEST POP PUSH1 0x1 PUSH1 0x1 PUSH1 0xA0 SHL SUB DUP2 CALLDATALOAD AND SWAP1 PUSH1 0x20 ADD CALLDATALOAD PUSH2 0x920 JUMP JUMPDEST PUSH2 0x1EB PUSH1 0x4 DUP1 CALLDATASIZE SUB PUSH1 0x20 DUP2 LT ISZERO PUSH2 0x319 JUMPI PUSH1 0x0 DUP1 REVERT JUMPDEST POP CALLDATALOAD PUSH1 0x1 PUSH1 0x1 PUSH1 0xA0 SHL SUB AND PUSH2 0x9CE JUMP JUMPDEST PUSH2 0x331 PUSH2 0x9E0 JUMP JUMPDEST PUSH1 0x40 DUP1 MLOAD PUSH1 0x1 PUSH1 0x1 PUSH1 0xA0 SHL SUB SWAP1 SWAP3 AND DUP3 MSTORE MLOAD SWAP1 DUP2 SWAP1 SUB PUSH1 0x20 ADD SWAP1 RETURN JUMPDEST PUSH2 0x1EB PUSH2 0x9EF JUMP JUMPDEST PUSH2 0x1EB PUSH1 0x4 DUP1 CALLDATASIZE SUB PUSH1 0x20 DUP2 LT ISZERO PUSH2 0x36B JUMPI PUSH1 0x0 DUP1 REVERT JUMPDEST POP CALLDATALOAD PUSH1 0x1 PUSH1 0x1 PUSH1 0xA0 SHL SUB AND PUSH2 0x9F5 JUMP JUMPDEST PUSH2 0x12E PUSH2 0xA07 JUMP JUMPDEST PUSH2 0x1EB PUSH1 0x4 DUP1 CALLDATASIZE SUB PUSH1 0x20 DUP2 LT ISZERO PUSH2 0x399 JUMPI PUSH1 0x0 DUP1 REVERT JUMPDEST POP CALLDATALOAD PUSH1 0x1 PUSH1 0x1 PUSH1 0xA0 SHL SUB AND PUSH2 0xA27 JUMP JUMPDEST PUSH2 0x1CF PUSH1 0x4 DUP1 CALLDATASIZE SUB PUSH1 0x40 DUP2 LT ISZERO PUSH2 0x3BF JUMPI PUSH1 0x0 DUP1 REVERT JUMPDEST POP PUSH1 0x1 PUSH1 0x1 PUSH1 0xA0 SHL SUB DUP2 CALLDATALOAD AND SWAP1 PUSH1 0x20 ADD CALLDATALOAD PUSH2 0xAD4 JUMP JUMPDEST PUSH2 0x223 PUSH1 0x4 DUP1 CALLDATASIZE SUB PUSH1 0x20 DUP2 LT ISZERO PUSH2 0x3EB JUMPI PUSH1 0x0 DUP1 REVERT JUMPDEST POP CALLDATALOAD PUSH1 0x1 PUSH1 0x1 PUSH1 0xA0 SHL SUB AND PUSH2 0xAE1 JUMP JUMPDEST PUSH2 0x1EB PUSH2 0xB42 JUMP JUMPDEST PUSH2 0x1EB PUSH1 0x4 DUP1 CALLDATASIZE SUB PUSH1 0x40 DUP2 LT ISZERO PUSH2 0x419 JUMPI PUSH1 0x0 DUP1 REVERT JUMPDEST POP PUSH1 0x1 PUSH1 0x1 PUSH1 0xA0 SHL SUB DUP2 CALLDATALOAD DUP2 AND SWAP2 PUSH1 0x20 ADD CALLDATALOAD AND PUSH2 0xBC3 JUMP JUMPDEST PUSH1 0x40 MLOAD DUP1 PUSH1 0x40 ADD PUSH1 0x40 MSTORE DUP1 PUSH1 0x11 DUP2 MSTORE PUSH1 0x20 ADD PUSH17 0x29A72C102134B730B93C9027B83A34B7B7 PUSH1 0x79 SHL DUP2 MSTORE POP DUP2 JUMP JUMPDEST PUSH1 0x0 PUSH1 0x1 PUSH1 0x1 PUSH1 0xA0 SHL SUB DUP4 AND PUSH2 0x473 JUMPI PUSH1 0x0 DUP1 REVERT JUMPDEST CALLER PUSH1 0x0 DUP2 DUP2 MSTORE PUSH1 0x5 PUSH1 0x20 SWAP1 DUP2 MSTORE PUSH1 0x40 DUP1 DUP4 KECCAK256 PUSH1 0x1 PUSH1 0x1 PUSH1 0xA0 SHL SUB DUP9 AND DUP1 DUP6 MSTORE SWAP1 DUP4 MSTORE SWAP3 DUP2 SWAP1 KECCAK256 DUP7 SWAP1 SSTORE DUP1 MLOAD DUP7 DUP2 MSTORE SWAP1 MLOAD SWAP3 SWAP4 SWAP3 PUSH32 0x8C5BE1E5EBEC7D5BD14F71427D1E84F3DD0314C0F7B2291E5B200AC8C7C3B925 SWAP3 SWAP2 DUP2 SWAP1 SUB SWAP1 SWAP2 ADD SWAP1 LOG3 POP PUSH1 0x1 JUMPDEST SWAP3 SWAP2 POP POP JUMP JUMPDEST PUSH1 0x4 SLOAD DUP2 JUMP JUMPDEST PUSH1 0x0 SLOAD PUSH1 0x1 PUSH1 0x1 PUSH1 0xA0 SHL SUB AND CALLER EQ PUSH2 0x536 JUMPI PUSH1 0x40 DUP1 MLOAD PUSH3 0x461BCD PUSH1 0xE5 SHL DUP2 MSTORE PUSH1 0x20 PUSH1 0x4 DUP3 ADD MSTORE PUSH1 0x13 PUSH1 0x24 DUP3 ADD MSTORE PUSH19 0x13DB9B1E481B585C9AD95D08185B1B1BDDD959 PUSH1 0x6A SHL PUSH1 0x44 DUP3 ADD MSTORE SWAP1 MLOAD SWAP1 DUP2 SWAP1 SUB PUSH1 0x64 ADD SWAP1 REVERT JUMPDEST PUSH1 0x1 PUSH1 0x1 PUSH1 0xA0 SHL SUB DUP2 AND PUSH1 0x0 SWAP1 DUP2 MSTORE PUSH1 0x3 PUSH1 0x20 MSTORE PUSH1 0x40 SWAP1 KECCAK256 SLOAD DUP1 PUSH2 0x55A JUMPI POP PUSH2 0x60B JUMP JUMPDEST PUSH1 0x1 PUSH1 0x1 PUSH1 0xA0 SHL SUB DUP3 AND PUSH1 0x0 SWAP1 DUP2 MSTORE PUSH1 0x3 PUSH1 0x20 MSTORE PUSH1 0x40 DUP2 KECCAK256 SSTORE PUSH1 0x4 SLOAD PUSH2 0x586 SWAP1 DUP3 PUSH4 0xFFFFFFFF PUSH2 0xBE0 AND JUMP JUMPDEST PUSH1 0x4 SSTORE PUSH1 0x40 DUP1 MLOAD DUP3 DUP2 MSTORE SWAP1 MLOAD PUSH1 0x0 SWAP2 PUSH1 0x1 PUSH1 0x1 PUSH1 0xA0 SHL SUB DUP6 AND SWAP2 PUSH32 0xDDF252AD1BE2C89B69C2B068FC378DAA952BA7F163C4A11628F55A4DF523B3EF SWAP2 DUP2 SWAP1 SUB PUSH1 0x20 ADD SWAP1 LOG3 PUSH1 0x40 DUP1 MLOAD DUP3 DUP2 MSTORE SWAP1 MLOAD PUSH1 0x1 PUSH1 0x1 PUSH1 0xA0 SHL SUB DUP5 AND SWAP2 PUSH32 0x696DE425F79F4A40BC6D2122CA50507F0EFBEABBFF86A84871B7196AB8EA8DF7 SWAP2 SWAP1 DUP2 SWAP1 SUB PUSH1 0x20 ADD SWAP1 LOG2 POP JUMPDEST POP JUMP JUMPDEST PUSH1 0x1 PUSH1 0x1 PUSH1 0xA0 SHL SUB DUP4 AND PUSH1 0x0 SWAP1 DUP2 MSTORE PUSH1 0x5 PUSH1 0x20 SWAP1 DUP2 MSTORE PUSH1 0x40 DUP1 DUP4 KECCAK256 CALLER DUP5 MSTORE SWAP1 SWAP2 MSTORE DUP2 KECCAK256 SLOAD DUP1 DUP4 GT ISZERO PUSH2 0x680 JUMPI PUSH1 0x40 DUP1 MLOAD PUSH3 0x461BCD PUSH1 0xE5 SHL DUP2 MSTORE PUSH1 0x20 PUSH1 0x4 DUP3 ADD MSTORE PUSH1 0x16 PUSH1 0x24 DUP3 ADD MSTORE PUSH22 0x496E73756666696369656E7420616C6C6F77616E6365 PUSH1 0x50 SHL PUSH1 0x44 DUP3 ADD MSTORE SWAP1 MLOAD SWAP1 DUP2 SWAP1 SUB PUSH1 0x64 ADD SWAP1 REVERT JUMPDEST PUSH2 0x690 DUP2 DUP5 PUSH4 0xFFFFFFFF PUSH2 0xBE0 AND JUMP JUMPDEST PUSH1 0x1 PUSH1 0x1 PUSH1 0xA0 SHL SUB DUP7 AND PUSH1 0x0 SWAP1 DUP2 MSTORE PUSH1 0x5 PUSH1 0x20 SWAP1 DUP2 MSTORE PUSH1 0x40 DUP1 DUP4 KECCAK256 CALLER DUP5 MSTORE SWAP1 SWAP2 MSTORE SWAP1 KECCAK256 SSTORE PUSH2 0x6BF DUP6 DUP6 DUP6 PUSH2 0xC3D JUMP JUMPDEST SWAP2 POP POP JUMPDEST SWAP4 SWAP3 POP POP POP JUMP JUMPDEST PUSH1 0x0 DUP1 SLOAD PUSH1 0x1 PUSH1 0x1 PUSH1 0xA0 SHL SUB AND CALLER EQ PUSH2 0x720 JUMPI PUSH1 0x40 DUP1 MLOAD PUSH3 0x461BCD PUSH1 0xE5 SHL DUP2 MSTORE PUSH1 0x20 PUSH1 0x4 DUP3 ADD MSTORE PUSH1 0x13 PUSH1 0x24 DUP3 ADD MSTORE PUSH19 0x13DB9B1E481B585C9AD95D08185B1B1BDDD959 PUSH1 0x6A SHL PUSH1 0x44 DUP3 ADD MSTORE SWAP1 MLOAD SWAP1 DUP2 SWAP1 SUB PUSH1 0x64 ADD SWAP1 REVERT JUMPDEST PUSH1 0x1 PUSH1 0x1 PUSH1 0xA0 SHL SUB DUP5 AND PUSH1 0x0 SWAP1 DUP2 MSTORE PUSH1 0x1 PUSH1 0x20 MSTORE PUSH1 0x40 DUP2 KECCAK256 SLOAD SWAP1 PUSH2 0x745 DUP3 DUP7 DUP7 PUSH2 0xE14 JUMP JUMPDEST SWAP1 POP DUP1 PUSH2 0x757 JUMPI PUSH1 0x0 SWAP3 POP POP POP PUSH2 0x6C3 JUMP JUMPDEST PUSH1 0x2 SLOAD PUSH2 0x76A SWAP1 DUP4 PUSH4 0xFFFFFFFF PUSH2 0xBE0 AND JUMP JUMPDEST PUSH1 0x2 SSTORE PUSH1 0x1 PUSH1 0x1 PUSH1 0xA0 SHL SUB DUP7 AND PUSH1 0x0 SWAP1 DUP2 MSTORE PUSH1 0x1 PUSH1 0x20 MSTORE PUSH1 0x40 DUP2 KECCAK256 SSTORE PUSH1 0x4 SLOAD PUSH2 0x799 SWAP1 DUP3 PUSH4 0xFFFFFFFF PUSH2 0xEB0 AND JUMP JUMPDEST PUSH1 0x4 SSTORE PUSH1 0x1 PUSH1 0x1 PUSH1 0xA0 SHL SUB DUP7 AND PUSH1 0x0 SWAP1 DUP2 MSTORE PUSH1 0x3 PUSH1 0x20 MSTORE PUSH1 0x40 SWAP1 KECCAK256 SLOAD PUSH2 0x7C5 SWAP1 DUP3 PUSH4 0xFFFFFFFF PUSH2 0xEB0 AND JUMP JUMPDEST PUSH1 0x1 PUSH1 0x1 PUSH1 0xA0 SHL SUB DUP8 AND PUSH1 0x0 DUP2 DUP2 MSTORE PUSH1 0x3 PUSH1 0x20 SWAP1 DUP2 MSTORE PUSH1 0x40 DUP1 DUP4 KECCAK256 SWAP5 SWAP1 SWAP5 SSTORE DUP4 MLOAD DUP6 DUP2 MSTORE SWAP4 MLOAD SWAP3 SWAP4 SWAP2 SWAP3 PUSH32 0xDDF252AD1BE2C89B69C2B068FC378DAA952BA7F163C4A11628F55A4DF523B3EF SWAP3 DUP2 SWAP1 SUB SWAP1 SWAP2 ADD SWAP1 LOG3 PUSH1 0x40 DUP1 MLOAD DUP3 DUP2 MSTORE SWAP1 MLOAD PUSH1 0x1 PUSH1 0x1 PUSH1 0xA0 SHL SUB DUP9 AND SWAP2 PUSH32 0xA59F12E354E8CD10BB74C559844C2DD69A5458E31FE56C7594C62CA57480509A SWAP2 SWAP1 DUP2 SWAP1 SUB PUSH1 0x20 ADD SWAP1 LOG2 SWAP6 SWAP5 POP POP POP POP POP JUMP JUMPDEST PUSH1 0x12 DUP2 JUMP JUMPDEST PUSH1 0x0 SLOAD PUSH1 0x1 PUSH1 0x1 PUSH1 0xA0 SHL SUB AND CALLER EQ PUSH2 0x8BB JUMPI PUSH1 0x40 DUP1 MLOAD PUSH3 0x461BCD PUSH1 0xE5 SHL DUP2 MSTORE PUSH1 0x20 PUSH1 0x4 DUP3 ADD MSTORE PUSH1 0x13 PUSH1 0x24 DUP3 ADD MSTORE PUSH19 0x13DB9B1E481B585C9AD95D08185B1B1BDDD959 PUSH1 0x6A SHL PUSH1 0x44 DUP3 ADD MSTORE SWAP1 MLOAD SWAP1 DUP2 SWAP1 SUB PUSH1 0x64 ADD SWAP1 REVERT JUMPDEST PUSH1 0x1 PUSH1 0x1 PUSH1 0xA0 SHL SUB DUP3 AND PUSH1 0x0 SWAP1 DUP2 MSTORE PUSH1 0x1 PUSH1 0x20 MSTORE PUSH1 0x40 SWAP1 KECCAK256 SLOAD PUSH2 0x8ED SWAP1 PUSH2 0x8E8 SWAP1 DUP4 PUSH4 0xFFFFFFFF PUSH2 0xBE0 AND JUMP JUMPDEST PUSH2 0xF0A JUMP JUMPDEST PUSH1 0x1 PUSH1 0x1 PUSH1 0xA0 SHL SUB DUP4 AND PUSH1 0x0 SWAP1 DUP2 MSTORE PUSH1 0x1 PUSH1 0x20 MSTORE PUSH1 0x40 SWAP1 KECCAK256 SSTORE PUSH1 0x2 SLOAD PUSH2 0x919 SWAP1 DUP3 PUSH4 0xFFFFFFFF PUSH2 0xBE0 AND JUMP JUMPDEST PUSH1 0x2 SSTORE POP POP JUMP JUMPDEST PUSH1 0x0 SLOAD PUSH1 0x1 PUSH1 0x1 PUSH1 0xA0 SHL SUB AND CALLER EQ PUSH2 0x975 JUMPI PUSH1 0x40 DUP1 MLOAD PUSH3 0x461BCD PUSH1 0xE5 SHL DUP2 MSTORE PUSH1 0x20 PUSH1 0x4 DUP3 ADD MSTORE PUSH1 0x13 PUSH1 0x24 DUP3 ADD MSTORE PUSH19 0x13DB9B1E481B585C9AD95D08185B1B1BDDD959 PUSH1 0x6A SHL PUSH1 0x44 DUP3 ADD MSTORE SWAP1 MLOAD SWAP1 DUP2 SWAP1 SUB PUSH1 0x64 ADD SWAP1 REVERT JUMPDEST PUSH1 0x1 PUSH1 0x1 PUSH1 0xA0 SHL SUB DUP3 AND PUSH1 0x0 SWAP1 DUP2 MSTORE PUSH1 0x1 PUSH1 0x20 MSTORE PUSH1 0x40 SWAP1 KECCAK256 SLOAD PUSH2 0x9A2 SWAP1 PUSH2 0x8E8 SWAP1 DUP4 PUSH4 0xFFFFFFFF PUSH2 0xEB0 AND JUMP JUMPDEST PUSH1 0x1 PUSH1 0x1 PUSH1 0xA0 SHL SUB DUP4 AND PUSH1 0x0 SWAP1 DUP2 MSTORE PUSH1 0x1 PUSH1 0x20 MSTORE PUSH1 0x40 SWAP1 KECCAK256 SSTORE PUSH1 0x2 SLOAD PUSH2 0x919 SWAP1 DUP3 PUSH4 0xFFFFFFFF PUSH2 0xEB0 AND JUMP JUMPDEST PUSH1 0x3 PUSH1 0x20 MSTORE PUSH1 0x0 SWAP1 DUP2 MSTORE PUSH1 0x40 SWAP1 KECCAK256 SLOAD DUP2 JUMP JUMPDEST PUSH1 0x0 SLOAD PUSH1 0x1 PUSH1 0x1 PUSH1 0xA0 SHL SUB AND DUP2 JUMP JUMPDEST PUSH1 0x2 SLOAD DUP2 JUMP JUMPDEST PUSH1 0x1 PUSH1 0x20 MSTORE PUSH1 0x0 SWAP1 DUP2 MSTORE PUSH1 0x40 SWAP1 KECCAK256 SLOAD DUP2 JUMP JUMPDEST PUSH1 0x40 MLOAD DUP1 PUSH1 0x40 ADD PUSH1 0x40 MSTORE DUP1 PUSH1 0x4 DUP2 MSTORE PUSH1 0x20 ADD PUSH4 0x1CD3D415 PUSH1 0xE2 SHL DUP2 MSTORE POP DUP2 JUMP JUMPDEST PUSH1 0x0 DUP1 SLOAD PUSH1 0x40 DUP1 MLOAD PUSH4 0x62C47A93 PUSH1 0xE1 SHL DUP2 MSTORE DUP2 MLOAD DUP5 SWAP4 DUP5 SWAP4 PUSH1 0x1 PUSH1 0x1 PUSH1 0xA0 SHL SUB SWAP1 SWAP2 AND SWAP3 PUSH4 0xC588F526 SWAP3 PUSH1 0x4 DUP1 DUP4 ADD SWAP4 SWAP3 DUP3 SWAP1 SUB ADD DUP2 DUP7 DUP1 EXTCODESIZE ISZERO DUP1 ISZERO PUSH2 0xA6C JUMPI PUSH1 0x0 DUP1 REVERT JUMPDEST POP GAS STATICCALL ISZERO DUP1 ISZERO PUSH2 0xA80 JUMPI RETURNDATASIZE PUSH1 0x0 DUP1 RETURNDATACOPY RETURNDATASIZE PUSH1 0x0 REVERT JUMPDEST POP POP POP POP PUSH1 0x40 MLOAD RETURNDATASIZE PUSH1 0x40 DUP2 LT ISZERO PUSH2 0xA96 JUMPI PUSH1 0x0 DUP1 REVERT JUMPDEST POP DUP1 MLOAD PUSH1 0x20 SWAP2 DUP3 ADD MLOAD PUSH1 0x1 PUSH1 0x1 PUSH1 0xA0 SHL SUB DUP8 AND PUSH1 0x0 SWAP1 DUP2 MSTORE PUSH1 0x1 SWAP1 SWAP4 MSTORE PUSH1 0x40 SWAP1 SWAP3 KECCAK256 SLOAD SWAP1 SWAP4 POP SWAP1 SWAP2 POP PUSH2 0xACA SWAP1 DUP4 DUP4 PUSH2 0xE14 JUMP JUMPDEST SWAP3 POP POP POP JUMPDEST SWAP2 SWAP1 POP JUMP JUMPDEST PUSH1 0x0 PUSH2 0x6C3 CALLER DUP5 DUP5 PUSH2 0xC3D JUMP JUMPDEST PUSH1 0x0 SLOAD PUSH1 0x1 PUSH1 0x1 PUSH1 0xA0 SHL SUB AND CALLER EQ PUSH2 0xB36 JUMPI PUSH1 0x40 DUP1 MLOAD PUSH3 0x461BCD PUSH1 0xE5 SHL DUP2 MSTORE PUSH1 0x20 PUSH1 0x4 DUP3 ADD MSTORE PUSH1 0x13 PUSH1 0x24 DUP3 ADD MSTORE PUSH19 0x13DB9B1E481B585C9AD95D08185B1B1BDDD959 PUSH1 0x6A SHL PUSH1 0x44 DUP3 ADD MSTORE SWAP1 MLOAD SWAP1 DUP2 SWAP1 SUB PUSH1 0x64 ADD SWAP1 REVERT JUMPDEST DUP1 PUSH1 0x1 PUSH1 0x1 PUSH1 0xA0 SHL SUB AND SELFDESTRUCT JUMPDEST PUSH1 0x0 DUP1 SLOAD PUSH1 0x40 DUP1 MLOAD PUSH4 0x62C47A93 PUSH1 0xE1 SHL DUP2 MSTORE DUP2 MLOAD DUP5 SWAP4 PUSH1 0x1 PUSH1 0x1 PUSH1 0xA0 SHL SUB AND SWAP3 PUSH4 0xC588F526 SWAP3 PUSH1 0x4 DUP1 DUP3 ADD SWAP4 SWAP2 DUP3 SWAP1 SUB ADD DUP2 DUP7 DUP1 EXTCODESIZE ISZERO DUP1 ISZERO PUSH2 0xB83 JUMPI PUSH1 0x0 DUP1 REVERT JUMPDEST POP GAS STATICCALL ISZERO DUP1 ISZERO PUSH2 0xB97 JUMPI RETURNDATASIZE PUSH1 0x0 DUP1 RETURNDATACOPY RETURNDATASIZE PUSH1 0x0 REVERT JUMPDEST POP POP POP POP PUSH1 0x40 MLOAD RETURNDATASIZE PUSH1 0x40 DUP2 LT ISZERO PUSH2 0xBAD JUMPI PUSH1 0x0 DUP1 REVERT JUMPDEST POP PUSH1 0x20 ADD MLOAD SWAP1 POP PUSH2 0xBBD DUP2 PUSH2 0xF67 JUMP JUMPDEST SWAP2 POP POP SWAP1 JUMP JUMPDEST PUSH1 0x5 PUSH1 0x20 SWAP1 DUP2 MSTORE PUSH1 0x0 SWAP3 DUP4 MSTORE PUSH1 0x40 DUP1 DUP5 KECCAK256 SWAP1 SWAP2 MSTORE SWAP1 DUP3 MSTORE SWAP1 KECCAK256 SLOAD DUP2 JUMP JUMPDEST PUSH1 0x0 DUP3 DUP3 GT ISZERO PUSH2 0xC37 JUMPI PUSH1 0x40 DUP1 MLOAD PUSH3 0x461BCD PUSH1 0xE5 SHL DUP2 MSTORE PUSH1 0x20 PUSH1 0x4 DUP3 ADD MSTORE PUSH1 0x1E PUSH1 0x24 DUP3 ADD MSTORE PUSH32 0x536166654D6174683A207375627472616374696F6E206F766572666C6F770000 PUSH1 0x44 DUP3 ADD MSTORE SWAP1 MLOAD SWAP1 DUP2 SWAP1 SUB PUSH1 0x64 ADD SWAP1 REVERT JUMPDEST POP SWAP1 SUB SWAP1 JUMP JUMPDEST PUSH1 0x0 DUP1 PUSH1 0x0 SWAP1 SLOAD SWAP1 PUSH2 0x100 EXP SWAP1 DIV PUSH1 0x1 PUSH1 0x1 PUSH1 0xA0 SHL SUB AND PUSH1 0x1 PUSH1 0x1 PUSH1 0xA0 SHL SUB AND PUSH4 0x27745BAE PUSH1 0x40 MLOAD DUP2 PUSH4 0xFFFFFFFF AND PUSH1 0xE0 SHL DUP2 MSTORE PUSH1 0x4 ADD PUSH1 0x0 PUSH1 0x40 MLOAD DUP1 DUP4 SUB DUP2 DUP7 DUP1 EXTCODESIZE ISZERO DUP1 ISZERO PUSH2 0xC8C JUMPI PUSH1 0x0 DUP1 REVERT JUMPDEST POP GAS STATICCALL ISZERO DUP1 ISZERO PUSH2 0xCA0 JUMPI RETURNDATASIZE PUSH1 0x0 DUP1 RETURNDATACOPY RETURNDATASIZE PUSH1 0x0 REVERT JUMPDEST POP POP POP POP PUSH1 0x1 PUSH1 0x1 PUSH1 0xA0 SHL SUB DUP4 AND ISZERO DUP1 ISZERO SWAP1 PUSH2 0xCC5 JUMPI POP PUSH1 0x1 PUSH1 0x1 PUSH1 0xA0 SHL SUB DUP4 AND ADDRESS EQ ISZERO JUMPDEST PUSH2 0xD08 JUMPI PUSH1 0x40 DUP1 MLOAD PUSH3 0x461BCD PUSH1 0xE5 SHL DUP2 MSTORE PUSH1 0x20 PUSH1 0x4 DUP3 ADD MSTORE PUSH1 0xF PUSH1 0x24 DUP3 ADD MSTORE PUSH15 0x496E76616C69642061646472657373 PUSH1 0x88 SHL PUSH1 0x44 DUP3 ADD MSTORE SWAP1 MLOAD SWAP1 DUP2 SWAP1 SUB PUSH1 0x64 ADD SWAP1 REVERT JUMPDEST PUSH1 0x1 PUSH1 0x1 PUSH1 0xA0 SHL SUB DUP5 AND PUSH1 0x0 SWAP1 DUP2 MSTORE PUSH1 0x3 PUSH1 0x20 MSTORE PUSH1 0x40 SWAP1 KECCAK256 SLOAD DUP1 DUP4 GT ISZERO PUSH2 0xD6D JUMPI PUSH1 0x40 DUP1 MLOAD PUSH3 0x461BCD PUSH1 0xE5 SHL DUP2 MSTORE PUSH1 0x20 PUSH1 0x4 DUP3 ADD MSTORE PUSH1 0x14 PUSH1 0x24 DUP3 ADD MSTORE PUSH20 0x496E73756666696369656E742062616C616E6365 PUSH1 0x60 SHL PUSH1 0x44 DUP3 ADD MSTORE SWAP1 MLOAD SWAP1 DUP2 SWAP1 SUB PUSH1 0x64 ADD SWAP1 REVERT JUMPDEST PUSH2 0xD7D DUP2 DUP5 PUSH4 0xFFFFFFFF PUSH2 0xBE0 AND JUMP JUMPDEST PUSH1 0x1 PUSH1 0x1 PUSH1 0xA0 SHL SUB DUP1 DUP8 AND PUSH1 0x0 SWAP1 DUP2 MSTORE PUSH1 0x3 PUSH1 0x20 MSTORE PUSH1 0x40 DUP1 DUP3 KECCAK256 SWAP4 SWAP1 SWAP4 SSTORE SWAP1 DUP7 AND DUP2 MSTORE KECCAK256 SLOAD PUSH2 0xDB2 SWAP1 DUP5 PUSH4 0xFFFFFFFF PUSH2 0xEB0 AND JUMP JUMPDEST PUSH1 0x1 PUSH1 0x1 PUSH1 0xA0 SHL SUB DUP1 DUP7 AND PUSH1 0x0 DUP2 DUP2 MSTORE PUSH1 0x3 PUSH1 0x20 SWAP1 DUP2 MSTORE PUSH1 0x40 SWAP2 DUP3 SWAP1 KECCAK256 SWAP5 SWAP1 SWAP5 SSTORE DUP1 MLOAD DUP8 DUP2 MSTORE SWAP1 MLOAD SWAP2 SWAP4 SWAP3 DUP10 AND SWAP3 PUSH32 0xDDF252AD1BE2C89B69C2B068FC378DAA952BA7F163C4A11628F55A4DF523B3EF SWAP3 SWAP2 DUP3 SWAP1 SUB ADD SWAP1 LOG3 POP PUSH1 0x1 SWAP5 SWAP4 POP POP POP POP JUMP JUMPDEST PUSH1 0x0 DUP1 PUSH2 0xE27 DUP6 DUP6 PUSH4 0xFFFFFFFF PUSH2 0xF8E AND JUMP JUMPDEST SWAP1 POP PUSH1 0x0 PUSH2 0xE34 DUP5 PUSH2 0xF67 JUMP JUMPDEST SWAP1 POP PUSH1 0x2 SLOAD DUP7 EQ DUP1 ISZERO PUSH2 0xE46 JUMPI POP DUP6 ISZERO ISZERO JUMPDEST DUP1 PUSH2 0xE4F JUMPI POP DUP1 ISZERO JUMPDEST ISZERO PUSH2 0xE5D JUMPI SWAP2 POP PUSH2 0x6C3 SWAP1 POP JUMP JUMPDEST DUP1 DUP3 GT ISZERO PUSH2 0xEA7 JUMPI PUSH1 0x40 DUP1 MLOAD PUSH3 0x461BCD PUSH1 0xE5 SHL DUP2 MSTORE PUSH1 0x20 PUSH1 0x4 DUP3 ADD MSTORE PUSH1 0x12 PUSH1 0x24 DUP3 ADD MSTORE PUSH18 0x737570706C79203C20636C61696D61626C65 PUSH1 0x70 SHL PUSH1 0x44 DUP3 ADD MSTORE SWAP1 MLOAD SWAP1 DUP2 SWAP1 SUB PUSH1 0x64 ADD SWAP1 REVERT JUMPDEST POP SWAP5 SWAP4 POP POP POP POP JUMP JUMPDEST PUSH1 0x0 DUP3 DUP3 ADD DUP4 DUP2 LT ISZERO PUSH2 0x6C3 JUMPI PUSH1 0x40 DUP1 MLOAD PUSH3 0x461BCD PUSH1 0xE5 SHL DUP2 MSTORE PUSH1 0x20 PUSH1 0x4 DUP3 ADD MSTORE PUSH1 0x1B PUSH1 0x24 DUP3 ADD MSTORE PUSH32 0x536166654D6174683A206164646974696F6E206F766572666C6F770000000000 PUSH1 0x44 DUP3 ADD MSTORE SWAP1 MLOAD SWAP1 DUP2 SWAP1 SUB PUSH1 0x64 ADD SWAP1 REVERT JUMPDEST PUSH1 0x0 PUSH7 0x2386F26FC10000 DUP3 LT ISZERO DUP1 PUSH2 0xF20 JUMPI POP DUP2 ISZERO JUMPDEST PUSH2 0xF63 JUMPI PUSH1 0x40 DUP1 MLOAD PUSH3 0x461BCD PUSH1 0xE5 SHL DUP2 MSTORE PUSH1 0x20 PUSH1 0x4 DUP3 ADD MSTORE PUSH1 0xF PUSH1 0x24 DUP3 ADD MSTORE PUSH15 0x42616C616E6365203C2024302E3031 PUSH1 0x88 SHL PUSH1 0x44 DUP3 ADD MSTORE SWAP1 MLOAD SWAP1 DUP2 SWAP1 SUB PUSH1 0x64 ADD SWAP1 REVERT JUMPDEST POP SWAP1 JUMP JUMPDEST PUSH1 0x4 SLOAD PUSH1 0x0 SWAP1 DUP1 DUP4 GT PUSH2 0xF7E JUMPI PUSH1 0x0 SWAP2 POP POP PUSH2 0xACF JUMP JUMPDEST PUSH2 0x6C3 DUP4 DUP3 PUSH4 0xFFFFFFFF PUSH2 0xBE0 AND JUMP JUMPDEST PUSH1 0x0 PUSH2 0x6C3 DUP3 PUSH2 0xFAC DUP6 PUSH8 0xDE0B6B3A7640000 PUSH4 0xFFFFFFFF PUSH2 0xFB8 AND JUMP JUMPDEST SWAP1 PUSH4 0xFFFFFFFF PUSH2 0x1011 AND JUMP JUMPDEST PUSH1 0x0 DUP3 PUSH2 0xFC7 JUMPI POP PUSH1 0x0 PUSH2 0x4D5 JUMP JUMPDEST DUP3 DUP3 MUL DUP3 DUP5 DUP3 DUP2 PUSH2 0xFD4 JUMPI INVALID JUMPDEST DIV EQ PUSH2 0x6C3 JUMPI PUSH1 0x40 MLOAD PUSH3 0x461BCD PUSH1 0xE5 SHL DUP2 MSTORE PUSH1 0x4 ADD DUP1 DUP1 PUSH1 0x20 ADD DUP3 DUP2 SUB DUP3 MSTORE PUSH1 0x21 DUP2 MSTORE PUSH1 0x20 ADD DUP1 PUSH2 0x107C PUSH1 0x21 SWAP2 CODECOPY PUSH1 0x40 ADD SWAP2 POP POP PUSH1 0x40 MLOAD DUP1 SWAP2 SUB SWAP1 REVERT JUMPDEST PUSH1 0x0 DUP1 DUP3 GT PUSH2 0x1067 JUMPI PUSH1 0x40 DUP1 MLOAD PUSH3 0x461BCD PUSH1 0xE5 SHL DUP2 MSTORE PUSH1 0x20 PUSH1 0x4 DUP3 ADD MSTORE PUSH1 0x1A PUSH1 0x24 DUP3 ADD MSTORE PUSH32 0x536166654D6174683A206469766973696F6E206279207A65726F000000000000 PUSH1 0x44 DUP3 ADD MSTORE SWAP1 MLOAD SWAP1 DUP2 SWAP1 SUB PUSH1 0x64 ADD SWAP1 REVERT JUMPDEST PUSH1 0x0 DUP3 DUP5 DUP2 PUSH2 0x1072 JUMPI INVALID JUMPDEST DIV SWAP5 SWAP4 POP POP POP POP JUMP INVALID MSTORE8 PUSH2 0x6665 0x4D PUSH2 0x7468 GASPRICE KECCAK256 PUSH14 0x756C7469706C69636174696F6E20 PUSH16 0x766572666C6F77A265627A7A72315820 LOG3 NUMBER 0x5C 0xE6 0x4C 0x4C DUP5 0xE0 0xDD SWAP13 0xC4 0xDD REVERT 0xB3 MUL CALLDATACOPY 0xBB DUP2 0xEF 0xD7 CALLCODE 0x5C AND SWAP6 0x4D 0xB2 0xC7 GASLIMIT 0xDD 0x4A 0xAA OR PUSH5 0x736F6C6343 STOP SDIV GT STOP ORIGIN MSTORE8 PUSH2 0x6665 0x4D PUSH2 0x7468 GASPRICE KECCAK256 PUSH14 0x756C7469706C69636174696F6E20 PUSH16 0x766572666C6F7770BD4A33BF447720D7 OR 0xD0 DUP16 GASPRICE SELFDESTRUCT 0xB5 0xAE 0xCF 0xE4 0xD2 0xEB 0xB8 0xE3 0xDD SWAP5 MSTORE8 SWAP16 MSTORE8 SGT 0xE2 DIFFICULTY PUSH23 0x43596F75206D757374206265206E6F6D696E6174656420 PUSH3 0x65666F PUSH19 0x6520796F752063616E20616363657074206F77 PUSH15 0x6572736869704F6E6C792074686520 PUSH4 0x6F6E7472 PUSH2 0x6374 KECCAK256 PUSH16 0x776E6572206D617920706572666F726D KECCAK256 PUSH21 0x68697320616374696F6EA265627A7A723158208929 0xB4 SWAP16 PUSH18 0xCDF3A3E5DCDB1B6B7A3B27C65778F712EE45 CALLDATACOPY 0xEE 0xEB SWAP6 SWAP3 0xF 0xF8 MULMOD 0xCE PUSH5 0x736F6C6343 STOP SDIV GT STOP ORIGIN "
		},
		"gasEstimates": {
			"creation": {
				"codeDepositCost": "4461800",
				"executionCost": "infinite",
				"totalCost": "infinite"
			},
			"external": {
				"acceptOwnership()": "infinite",
				"createMarket(address,uint256[2],bytes32,uint256,bool,uint256[3],uint256[2],uint256[3])": "infinite",
				"isResolverCached()": "infinite",
				"nominateNewOwner(address)": "infinite",
				"nominatedOwner()": "1037",
				"owner()": "1125",
				"rebuildCache()": "infinite",
				"resolver()": "1038",
				"resolverAddressesRequired()": "infinite"
			},
			"internal": {
				"_manager()": "infinite"
			}
		},
		"methodIdentifiers": {
			"acceptOwnership()": "79ba5097",
			"createMarket(address,uint256[2],bytes32,uint256,bool,uint256[3],uint256[2],uint256[3])": "130efa50",
			"isResolverCached()": "2af64bd3",
			"nominateNewOwner(address)": "1627540c",
			"nominatedOwner()": "53a47bb7",
			"owner()": "8da5cb5b",
			"rebuildCache()": "74185360",
			"resolver()": "04f3bcec",
			"resolverAddressesRequired()": "899ffef4"
		}
	},
	"abi": [
		{
			"inputs": [
				{
					"internalType": "address",
					"name": "_owner",
					"type": "address"
				},
				{
					"internalType": "address",
					"name": "_resolver",
					"type": "address"
				}
			],
			"payable": false,
			"stateMutability": "nonpayable",
			"type": "constructor"
		},
		{
			"anonymous": false,
			"inputs": [
				{
					"indexed": false,
					"internalType": "bytes32",
					"name": "name",
					"type": "bytes32"
				},
				{
					"indexed": false,
					"internalType": "address",
					"name": "destination",
					"type": "address"
				}
			],
			"name": "CacheUpdated",
			"type": "event"
		},
		{
			"anonymous": false,
			"inputs": [
				{
					"indexed": false,
					"internalType": "address",
					"name": "oldOwner",
					"type": "address"
				},
				{
					"indexed": false,
					"internalType": "address",
					"name": "newOwner",
					"type": "address"
				}
			],
			"name": "OwnerChanged",
			"type": "event"
		},
		{
			"anonymous": false,
			"inputs": [
				{
					"indexed": false,
					"internalType": "address",
					"name": "newOwner",
					"type": "address"
				}
			],
			"name": "OwnerNominated",
			"type": "event"
		},
		{
			"constant": false,
			"inputs": [],
			"name": "acceptOwnership",
			"outputs": [],
			"payable": false,
			"stateMutability": "nonpayable",
			"type": "function"
		},
		{
			"constant": false,
			"inputs": [
				{
					"internalType": "address",
					"name": "creator",
					"type": "address"
				},
				{
					"internalType": "uint256[2]",
					"name": "creatorLimits",
					"type": "uint256[2]"
				},
				{
					"internalType": "bytes32",
					"name": "oracleKey",
					"type": "bytes32"
				},
				{
					"internalType": "uint256",
					"name": "strikePrice",
					"type": "uint256"
				},
				{
					"internalType": "bool",
					"name": "refundsEnabled",
					"type": "bool"
				},
				{
					"internalType": "uint256[3]",
					"name": "times",
					"type": "uint256[3]"
				},
				{
					"internalType": "uint256[2]",
					"name": "bids",
					"type": "uint256[2]"
				},
				{
					"internalType": "uint256[3]",
					"name": "fees",
					"type": "uint256[3]"
				}
			],
			"name": "createMarket",
			"outputs": [
				{
					"internalType": "contract BinaryOptionMarket",
					"name": "",
					"type": "address"
				}
			],
			"payable": false,
			"stateMutability": "nonpayable",
			"type": "function"
		},
		{
			"constant": true,
			"inputs": [],
			"name": "isResolverCached",
			"outputs": [
				{
					"internalType": "bool",
					"name": "",
					"type": "bool"
				}
			],
			"payable": false,
			"stateMutability": "view",
			"type": "function"
		},
		{
			"constant": false,
			"inputs": [
				{
					"internalType": "address",
					"name": "_owner",
					"type": "address"
				}
			],
			"name": "nominateNewOwner",
			"outputs": [],
			"payable": false,
			"stateMutability": "nonpayable",
			"type": "function"
		},
		{
			"constant": true,
			"inputs": [],
			"name": "nominatedOwner",
			"outputs": [
				{
					"internalType": "address",
					"name": "",
					"type": "address"
				}
			],
			"payable": false,
			"stateMutability": "view",
			"type": "function"
		},
		{
			"constant": true,
			"inputs": [],
			"name": "owner",
			"outputs": [
				{
					"internalType": "address",
					"name": "",
					"type": "address"
				}
			],
			"payable": false,
			"stateMutability": "view",
			"type": "function"
		},
		{
			"constant": false,
			"inputs": [],
			"name": "rebuildCache",
			"outputs": [],
			"payable": false,
			"stateMutability": "nonpayable",
			"type": "function"
		},
		{
			"constant": true,
			"inputs": [],
			"name": "resolver",
			"outputs": [
				{
					"internalType": "contract AddressResolver",
					"name": "",
					"type": "address"
				}
			],
			"payable": false,
			"stateMutability": "view",
			"type": "function"
		},
		{
			"constant": true,
			"inputs": [],
			"name": "resolverAddressesRequired",
			"outputs": [
				{
					"internalType": "bytes32[]",
					"name": "addresses",
					"type": "bytes32[]"
				}
			],
			"payable": false,
			"stateMutability": "view",
			"type": "function"
		}
	]
}